{
  "contractName": "DArt",
  "abi": [
    {
      "inputs": [],
      "stateMutability": "nonpayable",
      "type": "constructor"
    },
    {
      "anonymous": false,
      "inputs": [
        {
          "components": [
            {
              "internalType": "bytes32",
              "name": "hashedName",
              "type": "bytes32"
            },
            {
              "internalType": "address",
              "name": "minter",
              "type": "address"
            },
            {
              "internalType": "address",
              "name": "property",
              "type": "address"
            },
            {
              "internalType": "address",
              "name": "possession",
              "type": "address"
            },
            {
              "internalType": "bytes32",
              "name": "exposedAt",
              "type": "bytes32"
            },
            {
              "internalType": "bytes32",
              "name": "status",
              "type": "bytes32"
            }
          ],
          "indexed": true,
          "internalType": "struct DArt.Artwork",
          "name": "artwork",
          "type": "tuple"
        }
      ],
      "name": "ProtectionActivityStarted",
      "type": "event"
    },
    {
      "inputs": [],
      "name": "creator",
      "outputs": [
        {
          "internalType": "address",
          "name": "",
          "type": "address"
        }
      ],
      "stateMutability": "view",
      "type": "function",
      "constant": true
    },
    {
      "inputs": [],
      "name": "dcoin",
      "outputs": [
        {
          "internalType": "contract DCoin",
          "name": "",
          "type": "address"
        }
      ],
      "stateMutability": "view",
      "type": "function",
      "constant": true
    },
    {
      "inputs": [],
      "name": "patron",
      "outputs": [
        {
          "internalType": "contract Patron",
          "name": "",
          "type": "address"
        }
      ],
      "stateMutability": "view",
      "type": "function",
      "constant": true
    },
    {
      "inputs": [
        {
          "internalType": "bytes32",
          "name": "",
          "type": "bytes32"
        }
      ],
      "name": "registerdActivities",
      "outputs": [
        {
          "internalType": "address",
          "name": "author",
          "type": "address"
        },
        {
          "internalType": "uint256",
          "name": "timestamp",
          "type": "uint256"
        },
        {
          "internalType": "enum DArt.ProtectionActivities",
          "name": "typology",
          "type": "uint8"
        },
        {
          "internalType": "bytes32",
          "name": "extraInfo",
          "type": "bytes32"
        }
      ],
      "stateMutability": "view",
      "type": "function",
      "constant": true
    },
    {
      "inputs": [
        {
          "internalType": "bytes32",
          "name": "",
          "type": "bytes32"
        }
      ],
      "name": "registerdExibitions",
      "outputs": [
        {
          "internalType": "bytes32",
          "name": "hashedName",
          "type": "bytes32"
        },
        {
          "internalType": "address",
          "name": "organizer",
          "type": "address"
        },
        {
          "internalType": "bool",
          "name": "isOn",
          "type": "bool"
        }
      ],
      "stateMutability": "view",
      "type": "function",
      "constant": true
    },
    {
      "inputs": [
        {
          "internalType": "bytes32",
          "name": "",
          "type": "bytes32"
        }
      ],
      "name": "registeredArtworks",
      "outputs": [
        {
          "internalType": "bytes32",
          "name": "hashedName",
          "type": "bytes32"
        },
        {
          "internalType": "address",
          "name": "minter",
          "type": "address"
        },
        {
          "internalType": "address",
          "name": "property",
          "type": "address"
        },
        {
          "internalType": "address",
          "name": "possession",
          "type": "address"
        },
        {
          "internalType": "bytes32",
          "name": "exposedAt",
          "type": "bytes32"
        },
        {
          "internalType": "bytes32",
          "name": "status",
          "type": "bytes32"
        }
      ],
      "stateMutability": "view",
      "type": "function",
      "constant": true
    },
    {
      "inputs": [],
      "name": "verification",
      "outputs": [
        {
          "internalType": "contract Verification",
          "name": "",
          "type": "address"
        }
      ],
      "stateMutability": "view",
      "type": "function",
      "constant": true
    },
    {
      "inputs": [
        {
          "internalType": "uint256",
          "name": "newprice",
          "type": "uint256"
        }
      ],
      "name": "setPrice",
      "outputs": [],
      "stateMutability": "nonpayable",
      "type": "function"
    },
    {
      "inputs": [
        {
          "internalType": "bytes32",
          "name": "hashedName",
          "type": "bytes32"
        }
      ],
      "name": "mintArtworkNFT",
      "outputs": [],
      "stateMutability": "nonpayable",
      "type": "function"
    },
    {
      "inputs": [
        {
          "internalType": "bytes32",
          "name": "hashedName",
          "type": "bytes32"
        },
        {
          "internalType": "bool",
          "name": "status",
          "type": "bool"
        }
      ],
      "name": "mintExibitionNFT",
      "outputs": [],
      "stateMutability": "nonpayable",
      "type": "function"
    },
    {
      "inputs": [
        {
          "internalType": "bytes32",
          "name": "artworkID",
          "type": "bytes32"
        },
        {
          "internalType": "enum DArt.ProtectionActivities",
          "name": "oftype",
          "type": "uint8"
        },
        {
          "internalType": "bytes32",
          "name": "extrainfo",
          "type": "bytes32"
        }
      ],
      "name": "createActivity",
      "outputs": [],
      "stateMutability": "nonpayable",
      "type": "function"
    },
    {
      "inputs": [
        {
          "internalType": "address",
          "name": "target",
          "type": "address"
        },
        {
          "internalType": "bytes32",
          "name": "artwork",
          "type": "bytes32"
        }
      ],
      "name": "allowAccessToArtwork",
      "outputs": [],
      "stateMutability": "nonpayable",
      "type": "function"
    },
    {
      "inputs": [
        {
          "internalType": "bytes32",
          "name": "artwork",
          "type": "bytes32"
        }
      ],
      "name": "revokeAccessToArtwork",
      "outputs": [],
      "stateMutability": "nonpayable",
      "type": "function"
    },
    {
      "inputs": [
        {
          "internalType": "bytes32",
          "name": "artwork",
          "type": "bytes32"
        },
        {
          "internalType": "address",
          "name": "_to",
          "type": "address"
        }
      ],
      "name": "donateWorkOfArt",
      "outputs": [],
      "stateMutability": "nonpayable",
      "type": "function"
    },
    {
      "inputs": [
        {
          "internalType": "bytes32",
          "name": "artwork",
          "type": "bytes32"
        }
      ],
      "name": "getProperty",
      "outputs": [
        {
          "internalType": "address",
          "name": "",
          "type": "address"
        }
      ],
      "stateMutability": "view",
      "type": "function",
      "constant": true
    }
  ],
  "bytecode": "0x6080604052600160045560405161001590610194565b604051809103906000f080158015610031573d6000803e3d6000fd5b50600580546001600160a01b0319166001600160a01b03929092169190911790556040513090610060906101a1565b6001600160a01b039091168152602001604051809103906000f08015801561008c573d6000803e3d6000fd5b50600680546001600160a01b0319166001600160a01b039290921691821790556040513091906100bb906101ae565b6001600160a01b03928316815291166020820152604001604051809103906000f0801580156100ee573d6000803e3d6000fd5b50600780546001600160a01b0319166001600160a01b039290921691909117905534801561011b57600080fd5b50600080546001600160a01b03191633179055600654600754604051631217410960e01b81526001600160a01b039182166004820152911690631217410990602401600060405180830381600087803b15801561017757600080fd5b505af115801561018b573d6000803e3d6000fd5b505050506101bb565b6106c480610e4783390190565b61094b8061150b83390190565b61062980611e5683390190565b610c7d806101ca6000396000f3fe608060405234801561001057600080fd5b50600436106100f55760003560e01c80637278b2f211610097578063f4edcb4a11610066578063f4edcb4a14610292578063f9b82118146102a5578063fc13ae29146102b8578063ff9ebc51146102cb57600080fd5b80637278b2f21461020557806373150fa31461021857806391b7f5ed1461026c578063d0565e3e1461027f57600080fd5b80634c2d127d116100d35780634c2d127d146101695780634ffe2a8b1461017e57806362df36e91461019157806370ef131e146101f257600080fd5b806302d05d3f146100fa5780630ba32b271461012a578063463f7a891461013d575b600080fd5b60005461010d906001600160a01b031681565b6040516001600160a01b0390911681526020015b60405180910390f35b60075461010d906001600160a01b031681565b61010d61014b366004610abf565b6000908152600160205260409020600201546001600160a01b031690565b61017c610177366004610ad8565b61035a565b005b60055461010d906001600160a01b031681565b6101cd61019f366004610abf565b600260205260009081526040902080546001909101546001600160a01b03811690600160a01b900460ff1683565b604080519384526001600160a01b039092166020840152151590820152606001610121565b60065461010d906001600160a01b031681565b61017c610213366004610b30565b610629565b61025c610226366004610abf565b600360208190526000918252604090912080546001820154600283015492909301546001600160a01b03909116929160ff169084565b6040516101219493929190610b72565b61017c61027a366004610abf565b6106b4565b61017c61028d366004610abf565b6106d3565b61017c6102a0366004610bb9565b610878565b61017c6102b3366004610abf565b61099d565b61017c6102c6366004610bee565b6109d0565b61031d6102d9366004610abf565b60016020819052600091825260409091208054918101546002820154600383015460048401546005909401546001600160a01b039384169492841693909116919086565b604080519687526001600160a01b0395861660208801529385169386019390935292166060840152608083019190915260a082015260c001610121565b600554604051634427673360e01b81523360048201526000916001600160a01b031690634427673390602401602060405180830381865afa1580156103a3573d6000803e3d6000fd5b505050506040513d601f19601f820116820180604052508101906103c79190610c18565b9050806004146103d9576103d9610c31565b6000848152600160205260409020600301546001600160a01b031633146104885760405162461bcd60e51b815260206004820152605260248201527f596f7520646f206e6f74206861766520746865206e656365737361727920706560448201527f726d697373696f6e7320746f2063726561746520616e2041637469766974792060648201527161626f7574207468697320617274776f726b60701b608482015260a4015b60405180910390fd5b6040516bffffffffffffffffffffffff193360601b16602082015242603482015260009060540160408051601f19818403018152828252805160209182012060008981526001835283902060059081018290556080850184523385524292850192909252935090820190869081111561050357610503610b5c565b81526020908101859052600083815260038252604090819020835181546001600160a01b0319166001600160a01b0390911617815591830151600180840191909155908301516002830180549192909160ff19169083600581111561056a5761056a610b5c565b021790555060608201518160030155905050610584610a04565b600584600581111561059857610598610b5c565b141580156105b8575060048460058111156105b5576105b5610b5c565b14155b15610622576007546040516354250b1d60e11b8152336004820152602481018790526001600160a01b039091169063a84a163a90604401600060405180830381600087803b15801561060957600080fd5b505af115801561061d573d6000803e3d6000fd5b505050505b5050505050565b6000828152600160205260409020600201546001600160a01b031633146106a95760405162461bcd60e51b815260206004820152602e60248201527f596f7520617265206e6f7420746865206f776e6572206f66207468652073656c60448201526d6563746564206172746f776f726b60901b606482015260840161047f565b506000526001602052565b6000546001600160a01b031633146106ce576106ce610c31565b600455565b600554604051634427673360e01b81523360048201526000916001600160a01b031690634427673390602401602060405180830381865afa15801561071c573d6000803e3d6000fd5b505050506040513d601f19601f820116820180604052508101906107409190610c18565b90506004811061075257610752610c31565b600061075d83610a72565b600081815260016020819052604090912001549091506001600160a01b0316156107d55760405162461bcd60e51b815260206004820152602360248201527f4120636f6c6c6973696f6e20647572696e672068617368696e67206f636375726044820152621c995960ea1b606482015260840161047f565b6107dd610a04565b6040805160c0810182529384523360208086018281528684019283526000606088018181526080890182815260a08a018381529783526001948590529590912097518855905191870180546001600160a01b03199081166001600160a01b0394851617909155925160028801805485169184169190911790555160038701805490931691161790555160048401555160059092019190915550565b600554604051634427673360e01b81523360048201526000916001600160a01b031690634427673390602401602060405180830381865afa1580156108c1573d6000803e3d6000fd5b505050506040513d601f19601f820116820180604052508101906108e59190610c18565b9050600281106108f7576108f7610c31565b600061090284610a72565b600081815260016020819052604090912001549091506001600160a01b03161561092e5761092e610c31565b610936610a04565b6040805160608101825294855233602080870191825294151586830190815260009384526002909552912093518455516001909301805492511515600160a01b026001600160a81b03199093166001600160a01b0394909416939093179190911790915550565b6000818152600160205260409020600201546001600160a01b031633146109c6576109c6610c31565b6000526001602052565b6000818152600160205260409020600201546001600160a01b031633146109f9576109f9610c31565b600052506001602052565b60065460048054604051638cd6a2ad60e01b815291820152336024820152600060448201526001600160a01b0390911690638cd6a2ad90606401600060405180830381600087803b158015610a5857600080fd5b505af1158015610a6c573d6000803e3d6000fd5b50505050565b60008133604051602001610aa292919091825260601b6bffffffffffffffffffffffff1916602082015260340190565b604051602081830303815290604052805190602001209050919050565b600060208284031215610ad157600080fd5b5035919050565b600080600060608486031215610aed57600080fd5b83359250602084013560068110610b0357600080fd5b929592945050506040919091013590565b80356001600160a01b0381168114610b2b57600080fd5b919050565b60008060408385031215610b4357600080fd5b82359150610b5360208401610b14565b90509250929050565b634e487b7160e01b600052602160045260246000fd5b6001600160a01b0385168152602081018490526080810160068410610ba757634e487b7160e01b600052602160045260246000fd5b60408201939093526060015292915050565b60008060408385031215610bcc57600080fd5b8235915060208301358015158114610be357600080fd5b809150509250929050565b60008060408385031215610c0157600080fd5b610c0a83610b14565b946020939093013593505050565b600060208284031215610c2a57600080fd5b5051919050565b634e487b7160e01b600052600160045260246000fdfea26469706673582212209094ffe36101141da332fe7a298ca05fbe458514be3ecd41e0b4107d33cb73bf64736f6c634300080a0033608060405234801561001057600080fd5b50600080546001600160a01b03191633179055610692806100326000396000f3fe608060405234801561001057600080fd5b506004361061009e5760003560e01c8063923f0b9311610066578063923f0b931461013d578063a2d7ed7614610152578063b479d3a914610165578063b9209e33146101a7578063c9c76a7d146101d757600080fd5b806302d05d3f146100a357806344276733146100d35780635f1ef4e3146100f4578063766954b414610117578063826c81691461012a575b600080fd5b6000546100b6906001600160a01b031681565b6040516001600160a01b0390911681526020015b60405180910390f35b6100e66100e136600461049a565b6101ea565b6040519081526020016100ca565b6101076101023660046104bc565b610253565b60405190151581526020016100ca565b6100e6610125366004610531565b610298565b6100e6610138366004610573565b6102cb565b61015061014b3660046105c7565b610336565b005b6100e661016036600461049a565b6103e0565b61019861017336600461049a565b6001602081905260009182526040909120805491015460ff8082169161010090041683565b6040516100ca93929190610611565b6101076101b536600461049a565b6001600160a01b03166000908152600160208190526040909120015460ff1690565b6101506101e536600461049a565b610424565b6001600160a01b03811660009081526001602081905260408220015460ff1661021257600080fd5b6001600160a01b03821660009081526001602081905260409091200154610100900460ff166004811115610248576102486105fb565b92915050565b919050565b6001600160a01b03811660009081526001602081905260408220015460ff1661027b57600080fd5b506001600160a01b03166000908152600160205260409020541490565b600082826040516020016102ad92919061064c565b60405160208183030381529060405280519060200120905092915050565b600083836040516020016102e092919061064c565b60408051601f198184030181528282528051602091820120908301526bffffffffffffffffffffffff19606085901b16908201526054016040516020818303038152906040528051906020012090509392505050565b336000908152600160208190526040909120015460ff166103dc57604080516060810182528381526000602082015290810182600481111561037a5761037a6105fb565b9052336000908152600160208181526040928390208451815590840151918101805492151560ff198416811782559385015191939192909161ff00191661ffff19909116176101008360048111156103d4576103d46105fb565b021790555050505b5050565b6001600160a01b03811660009081526001602081905260408220015460ff1661040857600080fd5b506001600160a01b031660009081526001602052604090205490565b6000546001600160a01b03163314801561045557506001600160a01b03811660009081526001602052604090205415155b1561009e576001600160a01b031660009081526001602081905260409091208101805460ff19169091179055565b80356001600160a01b038116811461024e57600080fd5b6000602082840312156104ac57600080fd5b6104b582610483565b9392505050565b600080604083850312156104cf57600080fd5b823591506104df60208401610483565b90509250929050565b60008083601f8401126104fa57600080fd5b50813567ffffffffffffffff81111561051257600080fd5b60208301915083602082850101111561052a57600080fd5b9250929050565b6000806020838503121561054457600080fd5b823567ffffffffffffffff81111561055b57600080fd5b610567858286016104e8565b90969095509350505050565b60008060006040848603121561058857600080fd5b833567ffffffffffffffff81111561059f57600080fd5b6105ab868287016104e8565b90945092506105be905060208501610483565b90509250925092565b600080604083850312156105da57600080fd5b823591506020830135600581106105f057600080fd5b809150509250929050565b634e487b7160e01b600052602160045260246000fd5b8381528215156020820152606081016005831061063e57634e487b7160e01b600052602160045260246000fd5b826040830152949350505050565b818382376000910190815291905056fea2646970667358221220875d2a1985bfffa912f52647b370f0c13869e0de7696ce5297813b234d8095f664736f6c634300080a00336080604052600060025534801561001557600080fd5b5060405161094b38038061094b83398101604081905261003491610067565b60008054336001600160a01b031991821617909155600480549091166001600160a01b0392909216919091179055610097565b60006020828403121561007957600080fd5b81516001600160a01b038116811461009057600080fd5b9392505050565b6108a5806100a66000396000f3fe6080604052600436106100dd5760003560e01c8063603e5f251161007f5780638d859f3e116100595780638d859f3e14610222578063b7760c8f1461023d578063e086e5ec1461025d578063e3d670d71461027257600080fd5b8063603e5f25146101be57806373f42561146101de5780638cd6a2ad1461020257600080fd5b806312174109116100bb57806312174109146101565780631249c58b146101765780632e1a7d4d1461017e5780634b60690d1461019e57600080fd5b806307546172146100e25780630c08bf881461011f5780630f177a6f14610136575b600080fd5b3480156100ee57600080fd5b50600054610102906001600160a01b031681565b6040516001600160a01b0390911681526020015b60405180910390f35b34801561012b57600080fd5b5061013461029f565b005b34801561014257600080fd5b506101346101513660046106d1565b610317565b34801561016257600080fd5b506101346101713660046106fb565b61035f565b61013461039b565b34801561018a57600080fd5b5061013461019936600461071d565b610429565b3480156101aa57600080fd5b50600454610102906001600160a01b031681565b3480156101ca57600080fd5b50600354610102906001600160a01b031681565b3480156101ea57600080fd5b506101f460025481565b604051908152602001610116565b34801561020e57600080fd5b5061013461021d366004610736565b6104be565b34801561022e57600080fd5b506101f466071afd498d000081565b34801561024957600080fd5b5061013461025836600461077b565b610575565b34801561026957600080fd5b506101346105f0565b34801561027e57600080fd5b506101f461028d3660046106fb565b60016020526000908152604090205481565b6000546001600160a01b031633146103095760405162461bcd60e51b815260206004820152602260248201527f596f752063616e6e6f74207465726d696e6174652074686520636f6e74726163604482015261742160f01b60648201526084015b60405180910390fd5b6000546001600160a01b0316ff5b6003546001600160a01b0316331461032e57600080fd5b6001600160a01b038216600090815260016020526040812080548392906103569084906107bd565b90915550505050565b6000546001600160a01b03163314610379576103796107d5565b600380546001600160a01b0319166001600160a01b0392909216919091179055565b66071afd498d00003410156103f25760405162461bcd60e51b815260206004820152601d60248201527f4e6f7420656e6f7567682076616c756520666f72206120746f6b656e210000006044820152606401610300565b61040366071afd498d0000346107eb565b33600090815260016020526040812080549091906104229084906107bd565b9091555050565b336000908152600160205260409020548111156104585760405162461bcd60e51b81526004016103009061080d565b3360009081526001602052604081208054839290610477908490610839565b909155503390506108fc61049266071afd498d000084610850565b6040518115909202916000818181858888f193505050501580156104ba573d6000803e3d6000fd5b5050565b6003546001600160a01b03163314806104e157506004546001600160a01b031633145b6104ed576104ed6107d5565b6001600160a01b0382166000908152600160205260409020548311156105255760405162461bcd60e51b81526004016103009061080d565b6001600160a01b0382166000908152600160205260408120805485929061054d908490610839565b9091555081905061057057826002600082825461056a91906107bd565b90915550505b505050565b336000908152600160205260409020548211156105a45760405162461bcd60e51b81526004016103009061080d565b33600090815260016020526040812080548492906105c3908490610839565b90915550506001600160a01b038116600090815260016020526040812080548492906103569084906107bd565b6000546001600160a01b0316331461065d5760405162461bcd60e51b815260206004820152602a60248201527f596f75277265206e6f7420746865206d696e746572206f662074686520736d616044820152691c9d18dbdb9d1c9858dd60b21b6064820152608401610300565b6000546002546001600160a01b03909116906108fc906106859066071afd498d000090610850565b6040518115909202916000818181858888f193505050501580156106ad573d6000803e3d6000fd5b506000600255565b80356001600160a01b03811681146106cc57600080fd5b919050565b600080604083850312156106e457600080fd5b6106ed836106b5565b946020939093013593505050565b60006020828403121561070d57600080fd5b610716826106b5565b9392505050565b60006020828403121561072f57600080fd5b5035919050565b60008060006060848603121561074b57600080fd5b8335925061075b602085016106b5565b91506040840135801515811461077057600080fd5b809150509250925092565b6000806040838503121561078e57600080fd5b8235915061079e602084016106b5565b90509250929050565b634e487b7160e01b600052601160045260246000fd5b600082198211156107d0576107d06107a7565b500190565b634e487b7160e01b600052600160045260246000fd5b60008261080857634e487b7160e01b600052601260045260246000fd5b500490565b6020808252601290820152714e6f7420656e6f7567682044436f696e732160701b604082015260600190565b60008282101561084b5761084b6107a7565b500390565b600081600019048311821515161561086a5761086a6107a7565b50029056fea264697066735822122071de76d53668d90fc3e4c4302211c03c60296aadc5e5e67c69c5753885cc1df564736f6c634300080a0033608060405234801561001057600080fd5b5060405161062938038061062983398101604081905261002f91610088565b600480546001600160a01b039384166001600160a01b03199182161790915560038054929093169181169190911790915560028054909116331790556100c2565b6001600160a01b038116811461008557600080fd5b50565b6000806040838503121561009b57600080fd5b82516100a681610070565b60208401519092506100b781610070565b809150509250929050565b610558806100d16000396000f3fe608060405234801561001057600080fd5b50600436106100935760003560e01c8063a3ed221d11610066578063a3ed221d14610174578063a84a163a14610194578063a915b5e2146101a9578063b37c16d2146101c9578063ce3d3d48146101dc57600080fd5b806307546172146100985780633cdc4b58146100c85780634b60690d146101415780636a29a62014610154575b600080fd5b6002546100ab906001600160a01b031681565b6040516001600160a01b0390911681526020015b60405180910390f35b6101336100d6366004610422565b6040516bffffffffffffffffffffffff19606084811b8216602084015283901b1660348201526000908190819060480160405160208183030381529060405280519060200120815260200190815260200160002054905092915050565b6040519081526020016100bf565b6004546100ab906001600160a01b031681565b61013361016236600461045b565b60016020526000908152604090205481565b61013361018236600461045b565b60009081526001602052604090205490565b6101a76101a2366004610474565b6101ef565b005b6101336101b736600461045b565b60006020819052908152604090205481565b6101a76101d73660046104a0565b610299565b6003546100ab906001600160a01b031681565b6004546001600160a01b03163314610209576102096104c2565b600081815260016020526040902054801561029457600354604051630f177a6f60e01b81526001600160a01b0385811660048301526024820184905290911690630f177a6f90604401600060405180830381600087803b15801561026c57600080fd5b505af1158015610280573d6000803e3d6000fd5b505050600083815260016020526040812055505b505050565b600354604051638cd6a2ad60e01b815260048101839052336024820152600160448201526001600160a01b0390911690638cd6a2ad90606401600060405180830381600087803b1580156102ec57600080fd5b505af1158015610300573d6000803e3d6000fd5b505050600083815260016020526040812080548493509091906103249084906104d8565b90915550506004805460405163463f7a8960e01b81529182018490526000916001600160a01b039091169063463f7a8990602401602060405180830381865afa158015610375573d6000803e3d6000fd5b505050506040513d601f19601f8201168201806040525081019061039991906104fe565b6040516bffffffffffffffffffffffff1933606090811b8216602084015283901b16603482015290915082906000908190604801604051602081830303815290604052805190602001208152602001908152602001600020600082825461040091906104d8565b9091555050505050565b6001600160a01b038116811461041f57600080fd5b50565b6000806040838503121561043557600080fd5b82356104408161040a565b915060208301356104508161040a565b809150509250929050565b60006020828403121561046d57600080fd5b5035919050565b6000806040838503121561048757600080fd5b82356104928161040a565b946020939093013593505050565b600080604083850312156104b357600080fd5b50508035926020909101359150565b634e487b7160e01b600052600160045260246000fd5b600082198211156104f957634e487b7160e01b600052601160045260246000fd5b500190565b60006020828403121561051057600080fd5b815161051b8161040a565b939250505056fea2646970667358221220689e6541a2b704a95f5e1963f95a04e0704fd4a653500d82f4b98e3daa9112f164736f6c634300080a0033",
  "immutableReferences": {},
  "source": "//for compability reasons, we work only with these versions\npragma solidity >=0.7.0 < 0.9.0;\n\nimport \"./Verification.sol\";\nimport \"./Patron.sol\";\nimport \"./DCoin.sol\";\n\n// import {symbol1 as alias, symbol2} from \"filename\";\n/*\nimport {isVerified, getRole as func, func} from \"./Verification.sol\";\nimport {Unauthorized, add as func, Point} from \"./DCoin.sol\";\nimport {Unauthorized, add as func, Point} from \"./Patron.sol\";\n*/\n\nerror Unauthorized(address caller);\n\n\n//we have objects to work with\ncontract DArt {\n\n    /* DUBBI:\n    Ripassa gli event\n    */\n\n    /*\n        TODO inserisci i pagamenti per i servizi\n        Fai event\n    */\n \n    event ProtectionActivityStarted(Artwork indexed artwork);\n\n    //we have a struct to store the data about artworks\n    struct Artwork {\n        bytes32 hashedName;\n        address minter; //the address of the museum that minted the artwork\n        address property;\n        address possession;\n        bytes32 exposedAt; // Da vedere come gestire lo storico delle esposizioni\n        bytes32 status; // Da vedere come gestire lo storico delle operazioni\n    }\n\n    // A struct to collect information about exibitions\n    struct Exibition {\n        bytes32 hashedName;\n        address organizer;\n        bool isOn; \n    }\n\n    struct Activity{\n        // bytes32 artworkId;\n        address author;\n        uint timestamp;\n        ProtectionActivities typology;\n        bytes32 extraInfo;\n    }\n    \n    // This enum indicates the type of operation applied to and update of an artwork\n    enum ProtectionActivities {\n        PREVENTION,\n        PROTECTIOIN,\n        MAINTAINANCE,\n        RESTAURATION,\n        DAMAGE,\n        UPDATE\n    }\n\n    //this is the address of the creator MAYBE PRIVATE, namely the owner\n    //of the smart contract that it can do some special actions\n    address public creator;\n\n    mapping (bytes32 => Artwork) public registeredArtworks;\n    mapping (bytes32 => Exibition) public registerdExibitions;\n    mapping (bytes32 => Activity) public registerdActivities;\n\n\n    uint private price = 1;\n\n    /*\n    address public constant dcoinSmartcontract;\n    address public constant verificatioSmartcontract; \n    address public constant patronSmartcontract;\n    */\n\n    Verification public verification = new Verification();   \n    DCoin public dcoin = new DCoin(address(this));\n    Patron public patron = new Patron(this, dcoin);   \n  \n\n\n    //the first time that we call che smart contract we need to save which is the\n    //creator, because it can do after some important actions\n    constructor(){\n        //so we save the address of the creator, one time and forever\n        /*\n        dcoin = dcoinSmartcontract;\n        verification = verificatioSmartcontract;\n        patron = patronSmartcontract;\n        */\n        creator = msg.sender;\n        dcoin.setContrats(address(Patron(address(patron))));\n    }\n\n    /**\n        @notice a pure faction to hash a string and the address of the caller, used to create univoque ids\n        @param hashedName the hashed string that have to be hashed with the msg.sender\n     */\n     // Dovrebbe essere pure ma da errore\n    function hashTextAndAddress(bytes32 hashedName) internal view returns(bytes32) {\n        return keccak256(abi.encodePacked(hashedName, msg.sender));\n    }\n\n    function checkWallet() internal {\n        assert(verification.isVerified(msg.sender));\n        /*assert(\n            verificationSmartcontract.call(aby.encodingWithSignature(\"isVerified(address)\",msg.sender)),\n            \"Sender's wallet is not verifed\");*/\n    }\n\n    function payService() internal {\n        dcoin.burn(price, msg.sender, false);   \n        //dcoinSmartcontract.call(aby.encodingWithSignature(\"burn(uint,address,bool)\",price,msg.sender,false));\n    }\n\n    function setPrice(uint newprice) external{\n        assert(msg.sender == creator);\n        price = newprice;\n    }\n\n    //called by a museum, to add an artwork in blockchain (MAYBE TO DO\n    /**\n        @notice mint an Artwork NFT. The id of the NFT is the hash of its name and the minter address.\n        @param hashedName name of the artwork hashed using keccak256\n     */    \n    function mintArtworkNFT(bytes32 hashedName) external {\n        uint role = verification.getRole(msg.sender);\n        //role = verificationSmartcontract.call(abi.encodingWithSignature(\"getRole(address)\",msg.sender));\n        assert(role < 4);\n        //assert(registeredWallets[msg.sender].verified, \"Sender's wallet is not verifed\");\n        bytes32 kek = hashTextAndAddress(hashedName);\n        require(registeredArtworks[kek].minter == address(0x0), \"A collision during hashing occurred\");\n        payService();\n        //we add the artwork to the mapping\n        /*\n        TODO: all this stuff have to be recoded and we have to decide if use one mapping from address to \n        a list of artworks or a mapping from any artwork to walletts, or both of them\n        */\n        registeredArtworks[kek] = Artwork(hashedName, msg.sender, msg.sender, address(0x0), 0, 0);\n    }\n\n    /**\n        @notice mint an Exibition NFT. The id of the NFT is the hash of its name and the minter address.\n        @param hashedName the Exibition's name hashed using keccak256\n        @param status indicates the status of the creare exibition, if it's on or not\n     */\n    function mintExibitionNFT(bytes32 hashedName, bool status) external {\n        //role = verificationSmartcontract.call(abi.encodingWithSignature(\"getRole(address)\",msg.sender));\n        uint role = verification.getRole(msg.sender);\n        assert(role < 2);\n        bytes32 kek = hashTextAndAddress(hashedName);\n        assert(registeredArtworks[kek].minter == address(0x0));\n        payService();\n        registerdExibitions[kek] = Exibition(hashedName, msg.sender, status);\n    }\n\n    function createActivity(bytes32 artworkID, ProtectionActivities oftype, bytes32 extrainfo) external{\n        uint role = verification.getRole(msg.sender);\n        //role = verificationSmartcontract.call(abi.encodingWithSignature(\"getRole(address)\",msg.sender));\n        assert(role == 4);\n        require(registeredArtworks[artworkID].possession == msg.sender,  \"You do not have the necessary permissions to create an Activity about this artwork\");\n        bytes32 kek = keccak256(abi.encodePacked(msg.sender, block.timestamp));\n        registeredArtworks[artworkID].status =   kek;\n        registerdActivities[kek] = Activity(msg.sender, block.timestamp, oftype, extrainfo);  \n        //TODO: Save all the activities\n        payService();\n        if (oftype != ProtectionActivities.UPDATE && oftype != ProtectionActivities.DAMAGE){\n        patron.moveFunds(msg.sender, artworkID);\n        }\n        //patronSmartcontract.call(abi.encodingWithSignature(\"moveFunds(address,bytes32\",msg.sender, artworkID));\n    }\n\n    function allowAccessToArtwork(address target, bytes32 artwork) external {\n        //assert(museums[target].verified);\n        assert(registeredArtworks[artwork].property == msg.sender);\n        registeredArtworks[artwork].possession == target;\n    }\n\n    function revokeAccessToArtwork(bytes32 artwork) external {\n        assert(registeredArtworks[artwork].property == msg.sender);\n        registeredArtworks[artwork].possession == address(0x0);\n    }\n\n    function donateWorkOfArt(bytes32 artwork, address _to) external{\n        require(registeredArtworks[artwork].property == msg.sender, \"You are not the owner of the selected artowork\");\n        registeredArtworks[artwork].property == _to;\n    }\n\n    function getProperty(bytes32 artwork) external view returns(address){\n        return registeredArtworks[artwork].property;\n    }\n}\n",
  "sourcePath": "/Users/MichaelPlug/Documents/TF/contracts/DArt.sol",
  "compiler": {
    "name": "solc",
    "version": "0.8.10+commit.fc410830.Emscripten.clang"
  },
  "schemaVersion": "3.4.11",
  "updatedAt": "2023-01-02T11:42:45.350Z",
  "networkType": "ethereum",
  "devdoc": {
    "kind": "dev",
    "methods": {
      "mintArtworkNFT(bytes32)": {
        "params": {
          "hashedName": "name of the artwork hashed using keccak256"
        }
      },
      "mintExibitionNFT(bytes32,bool)": {
        "params": {
          "hashedName": "the Exibition's name hashed using keccak256",
          "status": "indicates the status of the creare exibition, if it's on or not"
        }
      }
    },
    "version": 1
  },
  "userdoc": {
    "kind": "user",
    "methods": {
      "mintArtworkNFT(bytes32)": {
        "notice": "mint an Artwork NFT. The id of the NFT is the hash of its name and the minter address."
      },
      "mintExibitionNFT(bytes32,bool)": {
        "notice": "mint an Exibition NFT. The id of the NFT is the hash of its name and the minter address."
      }
    },
    "version": 1
  }
}