{
  "contractName": "DCoin",
  "abi": [
    {
      "inputs": [
        {
          "internalType": "address",
          "name": "main",
          "type": "address"
        }
      ],
      "stateMutability": "nonpayable",
      "type": "constructor"
    },
    {
      "inputs": [],
      "name": "PRICE",
      "outputs": [
        {
          "internalType": "uint256",
          "name": "",
          "type": "uint256"
        }
      ],
      "stateMutability": "view",
      "type": "function"
    },
    {
      "inputs": [
        {
          "internalType": "address",
          "name": "",
          "type": "address"
        }
      ],
      "name": "balance",
      "outputs": [
        {
          "internalType": "uint256",
          "name": "",
          "type": "uint256"
        }
      ],
      "stateMutability": "view",
      "type": "function"
    },
    {
      "inputs": [],
      "name": "burned",
      "outputs": [
        {
          "internalType": "uint256",
          "name": "",
          "type": "uint256"
        }
      ],
      "stateMutability": "view",
      "type": "function"
    },
    {
      "inputs": [],
      "name": "mainSmartcontract",
      "outputs": [
        {
          "internalType": "address",
          "name": "",
          "type": "address"
        }
      ],
      "stateMutability": "view",
      "type": "function"
    },
    {
      "inputs": [],
      "name": "minter",
      "outputs": [
        {
          "internalType": "address",
          "name": "",
          "type": "address"
        }
      ],
      "stateMutability": "view",
      "type": "function"
    },
    {
      "inputs": [],
      "name": "patronSmartcontract",
      "outputs": [
        {
          "internalType": "address",
          "name": "",
          "type": "address"
        }
      ],
      "stateMutability": "view",
      "type": "function"
    },
    {
      "inputs": [
        {
          "internalType": "address",
          "name": "patron",
          "type": "address"
        }
      ],
      "name": "setContrats",
      "outputs": [],
      "stateMutability": "nonpayable",
      "type": "function"
    },
    {
      "inputs": [],
      "name": "mint",
      "outputs": [],
      "stateMutability": "payable",
      "type": "function"
    },
    {
      "inputs": [
        {
          "internalType": "uint256",
          "name": "amount",
          "type": "uint256"
        },
        {
          "internalType": "address",
          "name": "wallet",
          "type": "address"
        },
        {
          "internalType": "bool",
          "name": "pending",
          "type": "bool"
        }
      ],
      "name": "burn",
      "outputs": [],
      "stateMutability": "nonpayable",
      "type": "function"
    },
    {
      "inputs": [
        {
          "internalType": "uint256",
          "name": "amount",
          "type": "uint256"
        },
        {
          "internalType": "address",
          "name": "to",
          "type": "address"
        }
      ],
      "name": "transfer",
      "outputs": [],
      "stateMutability": "nonpayable",
      "type": "function"
    },
    {
      "inputs": [
        {
          "internalType": "address",
          "name": "_to",
          "type": "address"
        },
        {
          "internalType": "uint256",
          "name": "amount",
          "type": "uint256"
        }
      ],
      "name": "magicMint",
      "outputs": [],
      "stateMutability": "nonpayable",
      "type": "function"
    },
    {
      "inputs": [
        {
          "internalType": "uint256",
          "name": "amount",
          "type": "uint256"
        }
      ],
      "name": "withdraw",
      "outputs": [],
      "stateMutability": "nonpayable",
      "type": "function"
    },
    {
      "inputs": [],
      "name": "terminate",
      "outputs": [],
      "stateMutability": "nonpayable",
      "type": "function"
    },
    {
      "inputs": [],
      "name": "withdrawETH",
      "outputs": [],
      "stateMutability": "nonpayable",
      "type": "function"
    }
  ],
  "bytecode": "0x6080604052600060025534801561001557600080fd5b5060405161094b38038061094b83398101604081905261003491610067565b60008054336001600160a01b031991821617909155600480549091166001600160a01b0392909216919091179055610097565b60006020828403121561007957600080fd5b81516001600160a01b038116811461009057600080fd5b9392505050565b6108a5806100a66000396000f3fe6080604052600436106100dd5760003560e01c8063603e5f251161007f5780638d859f3e116100595780638d859f3e14610222578063b7760c8f1461023d578063e086e5ec1461025d578063e3d670d71461027257600080fd5b8063603e5f25146101be57806373f42561146101de5780638cd6a2ad1461020257600080fd5b806312174109116100bb57806312174109146101565780631249c58b146101765780632e1a7d4d1461017e5780634b60690d1461019e57600080fd5b806307546172146100e25780630c08bf881461011f5780630f177a6f14610136575b600080fd5b3480156100ee57600080fd5b50600054610102906001600160a01b031681565b6040516001600160a01b0390911681526020015b60405180910390f35b34801561012b57600080fd5b5061013461029f565b005b34801561014257600080fd5b506101346101513660046106d1565b610317565b34801561016257600080fd5b506101346101713660046106fb565b61035f565b61013461039b565b34801561018a57600080fd5b5061013461019936600461071d565b610429565b3480156101aa57600080fd5b50600454610102906001600160a01b031681565b3480156101ca57600080fd5b50600354610102906001600160a01b031681565b3480156101ea57600080fd5b506101f460025481565b604051908152602001610116565b34801561020e57600080fd5b5061013461021d366004610736565b6104be565b34801561022e57600080fd5b506101f466071afd498d000081565b34801561024957600080fd5b5061013461025836600461077b565b610575565b34801561026957600080fd5b506101346105f0565b34801561027e57600080fd5b506101f461028d3660046106fb565b60016020526000908152604090205481565b6000546001600160a01b031633146103095760405162461bcd60e51b815260206004820152602260248201527f596f752063616e6e6f74207465726d696e6174652074686520636f6e74726163604482015261742160f01b60648201526084015b60405180910390fd5b6000546001600160a01b0316ff5b6003546001600160a01b0316331461032e57600080fd5b6001600160a01b038216600090815260016020526040812080548392906103569084906107bd565b90915550505050565b6000546001600160a01b03163314610379576103796107d5565b600380546001600160a01b0319166001600160a01b0392909216919091179055565b66071afd498d00003410156103f25760405162461bcd60e51b815260206004820152601d60248201527f4e6f7420656e6f7567682076616c756520666f72206120746f6b656e210000006044820152606401610300565b61040366071afd498d0000346107eb565b33600090815260016020526040812080549091906104229084906107bd565b9091555050565b336000908152600160205260409020548111156104585760405162461bcd60e51b81526004016103009061080d565b3360009081526001602052604081208054839290610477908490610839565b909155503390506108fc61049266071afd498d000084610850565b6040518115909202916000818181858888f193505050501580156104ba573d6000803e3d6000fd5b5050565b6003546001600160a01b03163314806104e157506004546001600160a01b031633145b6104ed576104ed6107d5565b6001600160a01b0382166000908152600160205260409020548311156105255760405162461bcd60e51b81526004016103009061080d565b6001600160a01b0382166000908152600160205260408120805485929061054d908490610839565b9091555081905061057057826002600082825461056a91906107bd565b90915550505b505050565b336000908152600160205260409020548211156105a45760405162461bcd60e51b81526004016103009061080d565b33600090815260016020526040812080548492906105c3908490610839565b90915550506001600160a01b038116600090815260016020526040812080548492906103569084906107bd565b6000546001600160a01b0316331461065d5760405162461bcd60e51b815260206004820152602a60248201527f596f75277265206e6f7420746865206d696e746572206f662074686520736d616044820152691c9d18dbdb9d1c9858dd60b21b6064820152608401610300565b6000546002546001600160a01b03909116906108fc906106859066071afd498d000090610850565b6040518115909202916000818181858888f193505050501580156106ad573d6000803e3d6000fd5b506000600255565b80356001600160a01b03811681146106cc57600080fd5b919050565b600080604083850312156106e457600080fd5b6106ed836106b5565b946020939093013593505050565b60006020828403121561070d57600080fd5b610716826106b5565b9392505050565b60006020828403121561072f57600080fd5b5035919050565b60008060006060848603121561074b57600080fd5b8335925061075b602085016106b5565b91506040840135801515811461077057600080fd5b809150509250925092565b6000806040838503121561078e57600080fd5b8235915061079e602084016106b5565b90509250929050565b634e487b7160e01b600052601160045260246000fd5b600082198211156107d0576107d06107a7565b500190565b634e487b7160e01b600052600160045260246000fd5b60008261080857634e487b7160e01b600052601260045260246000fd5b500490565b6020808252601290820152714e6f7420656e6f7567682044436f696e732160701b604082015260600190565b60008282101561084b5761084b6107a7565b500390565b600081600019048311821515161561086a5761086a6107a7565b50029056fea264697066735822122071de76d53668d90fc3e4c4302211c03c60296aadc5e5e67c69c5753885cc1df564736f6c634300080a0033",
  "immutableReferences": {},
  "source": "//for compability reasons, we work only with these versions\npragma solidity >=0.7.0 < 0.9.0;\n\n//error Unauthorized(address caller);\n\n//we have objects to work with\ncontract DCoin {\n    address public minter;\n    mapping (address => uint) public balance;\n    uint public constant PRICE = 2 * 1e15; \n    uint public burned = 0;\n    // uint public constant PRICE = 2 finney; \n    // finney is no longer a supported denomination since Solidity v.0.7.0\n\n    address public patronSmartcontract; \n    address public mainSmartcontract; \n\n    constructor(address main) {\n        minter = msg.sender;\n        mainSmartcontract = main;\n    }\n\n    function setContrats(address patron) external {\n        assert(minter == msg.sender);\n        patronSmartcontract = patron;\n    }\n\n    function mint() public payable {\n        require(msg.value >= PRICE, \"Not enough value for a token!\");\n        balance[msg.sender] += msg.value / PRICE;\n        // Guess guess, where does the remainder of the msg.value end?\n    }\n\n    function burn(uint amount, address wallet, bool pending) external {\n        assert(msg.sender == patronSmartcontract || msg.sender == mainSmartcontract);\n        require(balance[wallet] >= amount, \"Not enough DCoins!\");\n        // Take the amount of HelloToken from the sender and give back the amount of ether\n        balance[wallet] -= amount;\n        if(!pending) {\n            burned += amount;\n            } \n        // Send the amount of ether to the sender\n    }\n\n    function transfer(uint amount, address to) external {\n        require(balance[msg.sender] >= amount, \"Not enough DCoins!\");\n        balance[msg.sender] -= amount;\n        balance[to] += amount;\n    }\n\n    function magicMint(address _to, uint amount) external {\n        require(msg.sender == patronSmartcontract);\n        balance[_to] += amount;\n    }\n\n    function withdraw(uint amount) external {\n        require(balance[msg.sender] >= amount, \"Not enough DCoins!\");\n        balance[msg.sender] -= amount;\n        payable(msg.sender).transfer(amount * PRICE);  \n    } \n\n    function terminate() public {\n        require(msg.sender == minter, \"You cannot terminate the contract!\");\n        selfdestruct(payable(minter));\n    }\n\n    function withdrawETH() external {\n        require(msg.sender == minter,  \"You're not the minter of the smartcontract\");\n        payable(minter).transfer(burned * PRICE);\n        burned = 0;\n    }\n}\n",
  "sourcePath": "/Users/MichaelPlug/Documents/TF/contracts/DCoin.sol",
  "compiler": {
    "name": "solc",
    "version": "0.8.10+commit.fc410830.Emscripten.clang"
  },
  "schemaVersion": "3.4.11",
  "updatedAt": "2023-01-02T11:03:48.708Z",
  "devdoc": {
    "kind": "dev",
    "methods": {},
    "version": 1
  },
  "userdoc": {
    "kind": "user",
    "methods": {},
    "version": 1
  }
}