{
  "contractName": "Patron",
  "abi": [
    {
      "inputs": [
        {
          "internalType": "contract DArt",
          "name": "main",
          "type": "address"
        },
        {
          "internalType": "contract DCoin",
          "name": "dcoin",
          "type": "address"
        }
      ],
      "stateMutability": "nonpayable",
      "type": "constructor"
    },
    {
      "inputs": [],
      "name": "dcoinSmartcontract",
      "outputs": [
        {
          "internalType": "contract DCoin",
          "name": "",
          "type": "address"
        }
      ],
      "stateMutability": "view",
      "type": "function"
    },
    {
      "inputs": [
        {
          "internalType": "bytes32",
          "name": "",
          "type": "bytes32"
        }
      ],
      "name": "funds",
      "outputs": [
        {
          "internalType": "uint256",
          "name": "",
          "type": "uint256"
        }
      ],
      "stateMutability": "view",
      "type": "function"
    },
    {
      "inputs": [],
      "name": "mainSmartcontract",
      "outputs": [
        {
          "internalType": "contract DArt",
          "name": "",
          "type": "address"
        }
      ],
      "stateMutability": "view",
      "type": "function"
    },
    {
      "inputs": [],
      "name": "minter",
      "outputs": [
        {
          "internalType": "address",
          "name": "",
          "type": "address"
        }
      ],
      "stateMutability": "view",
      "type": "function"
    },
    {
      "inputs": [
        {
          "internalType": "bytes32",
          "name": "",
          "type": "bytes32"
        }
      ],
      "name": "patronCredit",
      "outputs": [
        {
          "internalType": "uint256",
          "name": "",
          "type": "uint256"
        }
      ],
      "stateMutability": "view",
      "type": "function"
    },
    {
      "inputs": [
        {
          "internalType": "bytes32",
          "name": "artwork",
          "type": "bytes32"
        },
        {
          "internalType": "uint256",
          "name": "amount",
          "type": "uint256"
        }
      ],
      "name": "crowfunding",
      "outputs": [],
      "stateMutability": "nonpayable",
      "type": "function"
    },
    {
      "inputs": [
        {
          "internalType": "bytes32",
          "name": "artwork",
          "type": "bytes32"
        }
      ],
      "name": "viewFunds",
      "outputs": [
        {
          "internalType": "uint256",
          "name": "",
          "type": "uint256"
        }
      ],
      "stateMutability": "view",
      "type": "function"
    },
    {
      "inputs": [
        {
          "internalType": "address",
          "name": "patron",
          "type": "address"
        },
        {
          "internalType": "address",
          "name": "museum",
          "type": "address"
        }
      ],
      "name": "viewPatronCredit",
      "outputs": [
        {
          "internalType": "uint256",
          "name": "",
          "type": "uint256"
        }
      ],
      "stateMutability": "view",
      "type": "function"
    },
    {
      "inputs": [
        {
          "internalType": "address",
          "name": "_to",
          "type": "address"
        },
        {
          "internalType": "bytes32",
          "name": "artwork",
          "type": "bytes32"
        }
      ],
      "name": "moveFunds",
      "outputs": [],
      "stateMutability": "nonpayable",
      "type": "function"
    }
  ],
  "bytecode": "0x608060405234801561001057600080fd5b5060405161062938038061062983398101604081905261002f91610088565b600480546001600160a01b039384166001600160a01b03199182161790915560038054929093169181169190911790915560028054909116331790556100c2565b6001600160a01b038116811461008557600080fd5b50565b6000806040838503121561009b57600080fd5b82516100a681610070565b60208401519092506100b781610070565b809150509250929050565b610558806100d16000396000f3fe608060405234801561001057600080fd5b50600436106100935760003560e01c8063a3ed221d11610066578063a3ed221d14610174578063a84a163a14610194578063a915b5e2146101a9578063b37c16d2146101c9578063ce3d3d48146101dc57600080fd5b806307546172146100985780633cdc4b58146100c85780634b60690d146101415780636a29a62014610154575b600080fd5b6002546100ab906001600160a01b031681565b6040516001600160a01b0390911681526020015b60405180910390f35b6101336100d6366004610422565b6040516bffffffffffffffffffffffff19606084811b8216602084015283901b1660348201526000908190819060480160405160208183030381529060405280519060200120815260200190815260200160002054905092915050565b6040519081526020016100bf565b6004546100ab906001600160a01b031681565b61013361016236600461045b565b60016020526000908152604090205481565b61013361018236600461045b565b60009081526001602052604090205490565b6101a76101a2366004610474565b6101ef565b005b6101336101b736600461045b565b60006020819052908152604090205481565b6101a76101d73660046104a0565b610299565b6003546100ab906001600160a01b031681565b6004546001600160a01b03163314610209576102096104c2565b600081815260016020526040902054801561029457600354604051630f177a6f60e01b81526001600160a01b0385811660048301526024820184905290911690630f177a6f90604401600060405180830381600087803b15801561026c57600080fd5b505af1158015610280573d6000803e3d6000fd5b505050600083815260016020526040812055505b505050565b600354604051638cd6a2ad60e01b815260048101839052336024820152600160448201526001600160a01b0390911690638cd6a2ad90606401600060405180830381600087803b1580156102ec57600080fd5b505af1158015610300573d6000803e3d6000fd5b505050600083815260016020526040812080548493509091906103249084906104d8565b90915550506004805460405163463f7a8960e01b81529182018490526000916001600160a01b039091169063463f7a8990602401602060405180830381865afa158015610375573d6000803e3d6000fd5b505050506040513d601f19601f8201168201806040525081019061039991906104fe565b6040516bffffffffffffffffffffffff1933606090811b8216602084015283901b16603482015290915082906000908190604801604051602081830303815290604052805190602001208152602001908152602001600020600082825461040091906104d8565b9091555050505050565b6001600160a01b038116811461041f57600080fd5b50565b6000806040838503121561043557600080fd5b82356104408161040a565b915060208301356104508161040a565b809150509250929050565b60006020828403121561046d57600080fd5b5035919050565b6000806040838503121561048757600080fd5b82356104928161040a565b946020939093013593505050565b600080604083850312156104b357600080fd5b50508035926020909101359150565b634e487b7160e01b600052600160045260246000fd5b600082198211156104f957634e487b7160e01b600052601160045260246000fd5b500190565b60006020828403121561051057600080fd5b815161051b8161040a565b939250505056fea2646970667358221220689e6541a2b704a95f5e1963f95a04e0704fd4a653500d82f4b98e3daa9112f164736f6c634300080a0033",
  "immutableReferences": {},
  "source": "//for compability reasons, we work only with these versions\npragma solidity >=0.7.0 < 0.9.0;\n\n//import \"Verication.sol\";\nimport \"./DArt.sol\";\nimport \"./DCoin.sol\";\n\n// import {symbol1 as alias, symbol2} from \"filename\";\n//import {Unauthorized, add as func, Point} from \"./Verification.sol\";\n/*\nimport {Unauthorized, add as func, Point} from \"./DArt.sol\";\nimport {Unauthorized, add as func, Point} from \"./Patron.sol\";\n*/\n\ncontract Patron {\n\n    mapping (bytes32 => uint) public patronCredit;\n    mapping (bytes32 => uint) public funds;\n\n    \n    address public minter;\n    //address public constant verificatioSmartcontract; \n    \n    DCoin public dcoinSmartcontract;\n    //address public dcoinSmartcontract; \n    DArt public mainSmartcontract; \n    \n\n    constructor(DArt main, DCoin dcoin){\n     //   verification = verificatioSmartcontract;  \n        mainSmartcontract = main ;\n        dcoinSmartcontract = dcoin;\n        minter = msg.sender;\n    }\n\n/*\n    function setContrats(address main) external {\n        assert(msg.sender == minter);\n        mainSmartcontract = main;\n    }\n    */\n\n    function crowfunding(bytes32 artwork, uint amount) external {\n        //require(registeredArtworks[artwork].minter == 0x0, \"This artwork is not registered\");\n        dcoinSmartcontract.burn(amount, msg.sender, true);\n        //dcoinSmartcontract.call(abi.encodingWithSignature(\"burn(uint,address,bool)\", amount, msg.sender, true));\n        funds[artwork] += amount;\n        address museum = mainSmartcontract.getProperty(artwork);\n        //address museum = mainSmartcontract.call(abi.encodingWithSignature(\"getProperty(bytes32)\", artwork));\n        patronCredit[keccak256(abi.encodePacked(msg.sender,museum))] += amount;\n    }\n\n    function viewFunds(bytes32 artwork) external view returns(uint){\n        return funds[artwork];\n    }\n\n    function viewPatronCredit(address patron, address museum) external view returns(uint){\n        return patronCredit[keccak256(abi.encodePacked(patron,museum))];\n    }\n\n    function moveFunds(address _to, bytes32 artwork) external {\n        assert(msg.sender == address(mainSmartcontract));\n        uint fund = funds[artwork];\n        if (fund != 0) {\n            dcoinSmartcontract.magicMint(_to, fund);\n            //dcoinSmartcontract.call(abi.encodingWithSignature(\"magicMint(address,amount)\",_to,funds[bytes32]));\n            funds[artwork] = 0;\n        }\n    }\n}",
  "sourcePath": "/Users/MichaelPlug/Documents/TF/contracts/Patron.sol",
  "compiler": {
    "name": "solc",
    "version": "0.8.10+commit.fc410830.Emscripten.clang"
  },
  "schemaVersion": "3.4.11",
  "updatedAt": "2023-01-02T11:03:48.712Z",
  "devdoc": {
    "kind": "dev",
    "methods": {},
    "version": 1
  },
  "userdoc": {
    "kind": "user",
    "methods": {},
    "version": 1
  }
}