{
  "contractName": "Verification",
  "abi": [
    {
      "inputs": [],
      "stateMutability": "nonpayable",
      "type": "constructor"
    },
    {
      "inputs": [],
      "name": "creator",
      "outputs": [
        {
          "internalType": "address",
          "name": "",
          "type": "address"
        }
      ],
      "stateMutability": "view",
      "type": "function"
    },
    {
      "inputs": [
        {
          "internalType": "address",
          "name": "",
          "type": "address"
        }
      ],
      "name": "registeredWallets",
      "outputs": [
        {
          "internalType": "bytes32",
          "name": "hashedName",
          "type": "bytes32"
        },
        {
          "internalType": "bool",
          "name": "verified",
          "type": "bool"
        },
        {
          "internalType": "enum Verification.Actors",
          "name": "role",
          "type": "uint8"
        }
      ],
      "stateMutability": "view",
      "type": "function"
    },
    {
      "inputs": [
        {
          "internalType": "bytes32",
          "name": "hashedName",
          "type": "bytes32"
        },
        {
          "internalType": "enum Verification.Actors",
          "name": "role",
          "type": "uint8"
        }
      ],
      "name": "museumRequestCreation",
      "outputs": [],
      "stateMutability": "nonpayable",
      "type": "function"
    },
    {
      "inputs": [
        {
          "internalType": "address",
          "name": "museum",
          "type": "address"
        }
      ],
      "name": "museumCreation",
      "outputs": [],
      "stateMutability": "nonpayable",
      "type": "function"
    },
    {
      "inputs": [
        {
          "internalType": "address",
          "name": "museum",
          "type": "address"
        }
      ],
      "name": "isVerified",
      "outputs": [
        {
          "internalType": "bool",
          "name": "",
          "type": "bool"
        }
      ],
      "stateMutability": "view",
      "type": "function"
    },
    {
      "inputs": [
        {
          "internalType": "address",
          "name": "museum",
          "type": "address"
        }
      ],
      "name": "getRole",
      "outputs": [
        {
          "internalType": "uint256",
          "name": "role",
          "type": "uint256"
        }
      ],
      "stateMutability": "view",
      "type": "function"
    },
    {
      "inputs": [
        {
          "internalType": "address",
          "name": "museum",
          "type": "address"
        }
      ],
      "name": "getHashedName",
      "outputs": [
        {
          "internalType": "bytes32",
          "name": "",
          "type": "bytes32"
        }
      ],
      "stateMutability": "view",
      "type": "function"
    },
    {
      "inputs": [
        {
          "internalType": "bytes32",
          "name": "hashedName",
          "type": "bytes32"
        },
        {
          "internalType": "address",
          "name": "museum",
          "type": "address"
        }
      ],
      "name": "verifyHashedName",
      "outputs": [
        {
          "internalType": "bool",
          "name": "",
          "type": "bool"
        }
      ],
      "stateMutability": "view",
      "type": "function"
    },
    {
      "inputs": [
        {
          "internalType": "string",
          "name": "name",
          "type": "string"
        }
      ],
      "name": "hashString",
      "outputs": [
        {
          "internalType": "bytes32",
          "name": "",
          "type": "bytes32"
        }
      ],
      "stateMutability": "pure",
      "type": "function"
    },
    {
      "inputs": [
        {
          "internalType": "string",
          "name": "name",
          "type": "string"
        },
        {
          "internalType": "address",
          "name": "wallet",
          "type": "address"
        }
      ],
      "name": "hashStringAndWallet",
      "outputs": [
        {
          "internalType": "bytes32",
          "name": "",
          "type": "bytes32"
        }
      ],
      "stateMutability": "pure",
      "type": "function"
    }
  ],
  "bytecode": "0x608060405234801561001057600080fd5b50336000806101000a81548173ffffffffffffffffffffffffffffffffffffffff021916908373ffffffffffffffffffffffffffffffffffffffff160217905550610d07806100606000396000f3fe608060405234801561001057600080fd5b506004361061009e5760003560e01c8063923f0b9311610066578063923f0b9314610181578063a2d7ed761461019d578063b479d3a9146101cd578063b9209e33146101ff578063c9c76a7d1461022f5761009e565b806302d05d3f146100a357806344276733146100c15780635f1ef4e3146100f1578063766954b414610121578063826c816914610151575b600080fd5b6100ab61024b565b6040516100b89190610837565b60405180910390f35b6100db60048036038101906100d69190610888565b61026f565b6040516100e891906108ce565b60405180910390f35b61010b6004803603810190610106919061091f565b610339565b604051610118919061097a565b60405180910390f35b61013b600480360381019061013691906109fa565b6103e7565b6040516101489190610a56565b60405180910390f35b61016b60048036038101906101669190610a71565b61041a565b6040516101789190610a56565b60405180910390f35b61019b60048036038101906101969190610af6565b610476565b005b6101b760048036038101906101b29190610888565b6105a2565b6040516101c49190610a56565b60405180910390f35b6101e760048036038101906101e29190610888565b61064d565b6040516101f693929190610bad565b60405180910390f35b61021960048036038101906102149190610888565b610691565b604051610226919061097a565b60405180910390f35b61024960048036038101906102449190610888565b6106ea565b005b60008054906101000a900473ffffffffffffffffffffffffffffffffffffffff1681565b6000801515600160008473ffffffffffffffffffffffffffffffffffffffff1673ffffffffffffffffffffffffffffffffffffffff16815260200190815260200160002060010160009054906101000a900460ff161515036102d057600080fd5b600160008373ffffffffffffffffffffffffffffffffffffffff1673ffffffffffffffffffffffffffffffffffffffff16815260200190815260200160002060010160019054906101000a900460ff16600481111561033257610331610b36565b5b9050919050565b6000801515600160008473ffffffffffffffffffffffffffffffffffffffff1673ffffffffffffffffffffffffffffffffffffffff16815260200190815260200160002060010160009054906101000a900460ff1615150361039a57600080fd5b600160008373ffffffffffffffffffffffffffffffffffffffff1673ffffffffffffffffffffffffffffffffffffffff168152602001908152602001600020600001548314905092915050565b600082826040516020016103fc929190610c23565b60405160208183030381529060405280519060200120905092915050565b6000838360405160200161042f929190610c23565b6040516020818303038152906040528051906020012082604051602001610457929190610ca5565b6040516020818303038152906040528051906020012090509392505050565b60001515600160003373ffffffffffffffffffffffffffffffffffffffff1673ffffffffffffffffffffffffffffffffffffffff16815260200190815260200160002060010160009054906101000a900460ff1615150361059e5760405180606001604052808381526020016000151581526020018260048111156104fe576104fd610b36565b5b815250600160003373ffffffffffffffffffffffffffffffffffffffff1673ffffffffffffffffffffffffffffffffffffffff1681526020019081526020016000206000820151816000015560208201518160010160006101000a81548160ff02191690831515021790555060408201518160010160016101000a81548160ff0219169083600481111561059557610594610b36565b5b02179055509050505b5050565b6000801515600160008473ffffffffffffffffffffffffffffffffffffffff1673ffffffffffffffffffffffffffffffffffffffff16815260200190815260200160002060010160009054906101000a900460ff1615150361060357600080fd5b600160008373ffffffffffffffffffffffffffffffffffffffff1673ffffffffffffffffffffffffffffffffffffffff168152602001908152602001600020600001549050919050565b60016020528060005260406000206000915090508060000154908060010160009054906101000a900460ff16908060010160019054906101000a900460ff16905083565b6000600160008373ffffffffffffffffffffffffffffffffffffffff1673ffffffffffffffffffffffffffffffffffffffff16815260200190815260200160002060010160009054906101000a900460ff169050919050565b60008054906101000a900473ffffffffffffffffffffffffffffffffffffffff1673ffffffffffffffffffffffffffffffffffffffff163373ffffffffffffffffffffffffffffffffffffffff1614801561078a57506000801b600160008373ffffffffffffffffffffffffffffffffffffffff1673ffffffffffffffffffffffffffffffffffffffff1681526020019081526020016000206000015414155b156107ee5760018060008373ffffffffffffffffffffffffffffffffffffffff1673ffffffffffffffffffffffffffffffffffffffff16815260200190815260200160002060010160006101000a81548160ff0219169083151502179055506107f3565b600080fd5b50565b600073ffffffffffffffffffffffffffffffffffffffff82169050919050565b6000610821826107f6565b9050919050565b61083181610816565b82525050565b600060208201905061084c6000830184610828565b92915050565b600080fd5b600080fd5b61086581610816565b811461087057600080fd5b50565b6000813590506108828161085c565b92915050565b60006020828403121561089e5761089d610852565b5b60006108ac84828501610873565b91505092915050565b6000819050919050565b6108c8816108b5565b82525050565b60006020820190506108e360008301846108bf565b92915050565b6000819050919050565b6108fc816108e9565b811461090757600080fd5b50565b600081359050610919816108f3565b92915050565b6000806040838503121561093657610935610852565b5b60006109448582860161090a565b925050602061095585828601610873565b9150509250929050565b60008115159050919050565b6109748161095f565b82525050565b600060208201905061098f600083018461096b565b92915050565b600080fd5b600080fd5b600080fd5b60008083601f8401126109ba576109b9610995565b5b8235905067ffffffffffffffff8111156109d7576109d661099a565b5b6020830191508360018202830111156109f3576109f261099f565b5b9250929050565b60008060208385031215610a1157610a10610852565b5b600083013567ffffffffffffffff811115610a2f57610a2e610857565b5b610a3b858286016109a4565b92509250509250929050565b610a50816108e9565b82525050565b6000602082019050610a6b6000830184610a47565b92915050565b600080600060408486031215610a8a57610a89610852565b5b600084013567ffffffffffffffff811115610aa857610aa7610857565b5b610ab4868287016109a4565b93509350506020610ac786828701610873565b9150509250925092565b60058110610ade57600080fd5b50565b600081359050610af081610ad1565b92915050565b60008060408385031215610b0d57610b0c610852565b5b6000610b1b8582860161090a565b9250506020610b2c85828601610ae1565b9150509250929050565b7f4e487b7100000000000000000000000000000000000000000000000000000000600052602160045260246000fd5b60058110610b7657610b75610b36565b5b50565b6000819050610b8782610b65565b919050565b6000610b9782610b79565b9050919050565b610ba781610b8c565b82525050565b6000606082019050610bc26000830186610a47565b610bcf602083018561096b565b610bdc6040830184610b9e565b949350505050565b600081905092915050565b82818337600083830152505050565b6000610c0a8385610be4565b9350610c17838584610bef565b82840190509392505050565b6000610c30828486610bfe565b91508190509392505050565b6000819050919050565b610c57610c52826108e9565b610c3c565b82525050565b60008160601b9050919050565b6000610c7582610c5d565b9050919050565b6000610c8782610c6a565b9050919050565b610c9f610c9a82610816565b610c7c565b82525050565b6000610cb18285610c46565b602082019150610cc18284610c8e565b601482019150819050939250505056fea26469706673582212207b34572076deb00d965ed175facdac05277d7eff30be445a9b296cf8d11c205364736f6c63430008110033",
  "immutableReferences": {},
  "source": "//for compability reasons, we work only with these versions\npragma solidity >=0.7.0 < 0.9.0;\n\n//error Unauthorized(address caller);\n\ncontract Verification {\n\n    /// @notice A collection of informations about a wallet that operate with the contact\n    struct Wallet{\n        //we have to hash also the address?\n        bytes32 hashedName;\n        bool verified;\n        Actors role;\n    }\n\n    // This enum indicates the type of actor associated to a registered wallet\n    enum Actors {\n        MUSEUM,\n        GALLERY,\n        PRIVATE_COLLECTOR,\n        ARTIST,\n        PROTECTION_LAB\n    }\n\n    //this is the address of the creator MAYBE PRIVATE, namely the owner\n    //of the smart contract that it can do some special actions\n    address public creator;\n\n    //this is a list that contains all the ids registered (true) or pending to be it (false) to DArt\n    mapping (address => Wallet) public registeredWallets;\n\n    //the first time that we call che smart contract we need to save which is the\n    //creator, because it can do after some important actions\n    constructor(){\n        //so we save the address of the creator, one time and forever\n        creator = msg.sender;\n    }\n\n    //mettiamo noi o l'utente queste informazioni? se lo fa l'utente significa che potrebbe richiamare la funzione e resettarle?\n    //called by a museum that wants to enter in the blockchain\n    /**\n        @notice the sender create a request of verification, minting an IDNFT with verification variable as false\n        @param hashedName the hashed name of the requesting actor\n        @param role the type of the actor\n     */\n    function museumRequestCreation(bytes32 hashedName, Actors role) external {\n        if (registeredWallets[msg.sender].verified == false){\n            registeredWallets[msg.sender] = Wallet(hashedName, false, role);\n        }\n    }\n\n    //called by a smart contract, given a specificc address\n    function museumCreation(address museum) external {\n        // veryf the sender is the creator/owner of the smart contract and that there is a pendig reques to register the wallet\n        if (msg.sender == creator && registeredWallets[museum].hashedName != 0){\n            // change the status of the museum to verified\n            registeredWallets[museum].verified = true;\n        }\n         else {\n            revert();\n        }\n    }\n\n    // Verify if a wallet is registered in the blockchain as an verified actor\n    function isVerified(address museum) external view returns(bool) {\n        return registeredWallets[museum].verified;\n    }\n\n    // Get the role of a wallet if it is registered in the blockchain as an verified actor\n    function getRole(address museum) external view returns(uint role) {\n        if (registeredWallets[museum].verified == false){\n            revert();\n        }\n        else {\n\n            return uint(registeredWallets[museum].role);\n        }\n    }\n\n    // Get the hashed name of a wallet if it is registered in the blockchain as an verified actor\n    function getHashedName(address museum) external view returns(bytes32) {\n        if (registeredWallets[museum].verified == false){\n            revert();\n        }\n        else {\n            return registeredWallets[museum].hashedName;\n        }\n    }\n\n    // Verify if a name is the same of the hashed name of a wallet if it is registered in the blockchain as an verified actor\n    function verifyHashedName(bytes32 hashedName, address museum) external view returns(bool) {\n        if (registeredWallets[museum].verified == false){\n            revert();\n        }\n        else {\n            return hashedName == registeredWallets[museum].hashedName;\n        }\n    }\n\n    function hashString(string calldata name) external pure returns(bytes32) {\n        return keccak256(abi.encodePacked(name));\n    }\n\n    function hashStringAndWallet(string calldata name, address wallet) external pure returns(bytes32){\n        return keccak256(abi.encodePacked(keccak256(abi.encodePacked(name)), wallet));\n    }\n}",
  "sourcePath": "/home/giordano/Desktop/Blockchain/Truffle/contracts/Verification.sol",
  "compiler": {
    "name": "solc",
    "version": "0.8.17+commit.8df45f5f.Emscripten.clang"
  },
  "schemaVersion": "3.4.11",
  "updatedAt": "2023-01-04T10:54:49.249Z",
  "devdoc": {
    "kind": "dev",
    "methods": {
      "museumRequestCreation(bytes32,uint8)": {
        "params": {
          "hashedName": "the hashed name of the requesting actor",
          "role": "the type of the actor"
        }
      }
    },
    "version": 1
  },
  "userdoc": {
    "kind": "user",
    "methods": {
      "museumRequestCreation(bytes32,uint8)": {
        "notice": "the sender create a request of verification, minting an IDNFT with verification variable as false"
      }
    },
    "version": 1
  }
}