{
  "contractName": "Verification",
  "abi": [
    {
      "inputs": [],
      "stateMutability": "nonpayable",
      "type": "constructor"
    },
    {
      "inputs": [],
      "name": "creator",
      "outputs": [
        {
          "internalType": "address",
          "name": "",
          "type": "address"
        }
      ],
      "stateMutability": "view",
      "type": "function"
    },
    {
      "inputs": [
        {
          "internalType": "address",
          "name": "",
          "type": "address"
        }
      ],
      "name": "registeredWallets",
      "outputs": [
        {
          "internalType": "bytes32",
          "name": "hashedName",
          "type": "bytes32"
        },
        {
          "internalType": "bool",
          "name": "verified",
          "type": "bool"
        },
        {
          "internalType": "enum Verification.Actors",
          "name": "role",
          "type": "uint8"
        }
      ],
      "stateMutability": "view",
      "type": "function"
    },
    {
      "inputs": [
        {
          "internalType": "bytes32",
          "name": "hashedName",
          "type": "bytes32"
        },
        {
          "internalType": "enum Verification.Actors",
          "name": "role",
          "type": "uint8"
        }
      ],
      "name": "museumRequestCreation",
      "outputs": [],
      "stateMutability": "nonpayable",
      "type": "function"
    },
    {
      "inputs": [
        {
          "internalType": "address",
          "name": "museum",
          "type": "address"
        }
      ],
      "name": "museumCreation",
      "outputs": [],
      "stateMutability": "nonpayable",
      "type": "function"
    },
    {
      "inputs": [
        {
          "internalType": "address",
          "name": "museum",
          "type": "address"
        }
      ],
      "name": "isVerified",
      "outputs": [
        {
          "internalType": "bool",
          "name": "",
          "type": "bool"
        }
      ],
      "stateMutability": "view",
      "type": "function"
    },
    {
      "inputs": [
        {
          "internalType": "address",
          "name": "museum",
          "type": "address"
        }
      ],
      "name": "getRole",
      "outputs": [
        {
          "internalType": "uint256",
          "name": "role",
          "type": "uint256"
        }
      ],
      "stateMutability": "view",
      "type": "function"
    },
    {
      "inputs": [
        {
          "internalType": "address",
          "name": "museum",
          "type": "address"
        }
      ],
      "name": "getHashedName",
      "outputs": [
        {
          "internalType": "bytes32",
          "name": "",
          "type": "bytes32"
        }
      ],
      "stateMutability": "view",
      "type": "function"
    },
    {
      "inputs": [
        {
          "internalType": "bytes32",
          "name": "hashedName",
          "type": "bytes32"
        },
        {
          "internalType": "address",
          "name": "museum",
          "type": "address"
        }
      ],
      "name": "verifyHashedName",
      "outputs": [
        {
          "internalType": "bool",
          "name": "",
          "type": "bool"
        }
      ],
      "stateMutability": "view",
      "type": "function"
    },
    {
      "inputs": [
        {
          "internalType": "string",
          "name": "name",
          "type": "string"
        }
      ],
      "name": "hashString",
      "outputs": [
        {
          "internalType": "bytes32",
          "name": "",
          "type": "bytes32"
        }
      ],
      "stateMutability": "pure",
      "type": "function"
    },
    {
      "inputs": [
        {
          "internalType": "string",
          "name": "name",
          "type": "string"
        },
        {
          "internalType": "address",
          "name": "wallet",
          "type": "address"
        }
      ],
      "name": "hashStringAndWallet",
      "outputs": [
        {
          "internalType": "bytes32",
          "name": "",
          "type": "bytes32"
        }
      ],
      "stateMutability": "pure",
      "type": "function"
    }
  ],
  "bytecode": "0x608060405234801561001057600080fd5b50600080546001600160a01b03191633179055610692806100326000396000f3fe608060405234801561001057600080fd5b506004361061009e5760003560e01c8063923f0b9311610066578063923f0b931461013d578063a2d7ed7614610152578063b479d3a914610165578063b9209e33146101a7578063c9c76a7d146101d757600080fd5b806302d05d3f146100a357806344276733146100d35780635f1ef4e3146100f4578063766954b414610117578063826c81691461012a575b600080fd5b6000546100b6906001600160a01b031681565b6040516001600160a01b0390911681526020015b60405180910390f35b6100e66100e136600461049a565b6101ea565b6040519081526020016100ca565b6101076101023660046104bc565b610253565b60405190151581526020016100ca565b6100e6610125366004610531565b610298565b6100e6610138366004610573565b6102cb565b61015061014b3660046105c7565b610336565b005b6100e661016036600461049a565b6103e0565b61019861017336600461049a565b6001602081905260009182526040909120805491015460ff8082169161010090041683565b6040516100ca93929190610611565b6101076101b536600461049a565b6001600160a01b03166000908152600160208190526040909120015460ff1690565b6101506101e536600461049a565b610424565b6001600160a01b03811660009081526001602081905260408220015460ff1661021257600080fd5b6001600160a01b03821660009081526001602081905260409091200154610100900460ff166004811115610248576102486105fb565b92915050565b919050565b6001600160a01b03811660009081526001602081905260408220015460ff1661027b57600080fd5b506001600160a01b03166000908152600160205260409020541490565b600082826040516020016102ad92919061064c565b60405160208183030381529060405280519060200120905092915050565b600083836040516020016102e092919061064c565b60408051601f198184030181528282528051602091820120908301526bffffffffffffffffffffffff19606085901b16908201526054016040516020818303038152906040528051906020012090509392505050565b336000908152600160208190526040909120015460ff166103dc57604080516060810182528381526000602082015290810182600481111561037a5761037a6105fb565b9052336000908152600160208181526040928390208451815590840151918101805492151560ff198416811782559385015191939192909161ff00191661ffff19909116176101008360048111156103d4576103d46105fb565b021790555050505b5050565b6001600160a01b03811660009081526001602081905260408220015460ff1661040857600080fd5b506001600160a01b031660009081526001602052604090205490565b6000546001600160a01b03163314801561045557506001600160a01b03811660009081526001602052604090205415155b1561009e576001600160a01b031660009081526001602081905260409091208101805460ff19169091179055565b80356001600160a01b038116811461024e57600080fd5b6000602082840312156104ac57600080fd5b6104b582610483565b9392505050565b600080604083850312156104cf57600080fd5b823591506104df60208401610483565b90509250929050565b60008083601f8401126104fa57600080fd5b50813567ffffffffffffffff81111561051257600080fd5b60208301915083602082850101111561052a57600080fd5b9250929050565b6000806020838503121561054457600080fd5b823567ffffffffffffffff81111561055b57600080fd5b610567858286016104e8565b90969095509350505050565b60008060006040848603121561058857600080fd5b833567ffffffffffffffff81111561059f57600080fd5b6105ab868287016104e8565b90945092506105be905060208501610483565b90509250925092565b600080604083850312156105da57600080fd5b823591506020830135600581106105f057600080fd5b809150509250929050565b634e487b7160e01b600052602160045260246000fd5b8381528215156020820152606081016005831061063e57634e487b7160e01b600052602160045260246000fd5b826040830152949350505050565b818382376000910190815291905056fea2646970667358221220875d2a1985bfffa912f52647b370f0c13869e0de7696ce5297813b234d8095f664736f6c634300080a0033",
  "immutableReferences": {},
  "source": "//for compability reasons, we work only with these versions\npragma solidity >=0.7.0 < 0.9.0;\n\n//error Unauthorized(address caller);\n\ncontract Verification {\n\n    /// @notice A collection of informations about a wallet that operate with the contact\n    struct Wallet{\n        //we have to hash also the address?\n        bytes32 hashedName;\n        bool verified;\n        Actors role;\n    }\n\n    // This enum indicates the type of actor associated to a registered wallet\n    enum Actors {\n        MUSEUM,\n        GALLERY,\n        PRIVATE_COLLECTOR,\n        ARTIST,\n        PROTECTION_LAB\n    }\n\n    //this is the address of the creator MAYBE PRIVATE, namely the owner\n    //of the smart contract that it can do some special actions\n    address public creator;\n\n    //this is a list that contains all the ids registered (true) or pending to be it (false) to DArt\n    mapping (address => Wallet) public registeredWallets;\n\n    //the first time that we call che smart contract we need to save which is the\n    //creator, because it can do after some important actions\n    constructor(){\n        //so we save the address of the creator, one time and forever\n        creator = msg.sender;\n    }\n\n    //mettiamo noi o l'utente queste informazioni? se lo fa l'utente significa che potrebbe richiamare la funzione e resettarle?\n    //called by a museum that wants to enter in the blockchain\n    /**\n        @notice the sender create a request of verification, minting an IDNFT with verification variable as false\n        @param hashedName the hashed name of the requesting actor\n        @param role the type of the actor\n     */\n    function museumRequestCreation(bytes32 hashedName, Actors role) external {\n        if (registeredWallets[msg.sender].verified == false){\n            registeredWallets[msg.sender] = Wallet(hashedName, false, role);\n        }\n    }\n\n    //called by a smart contract, given a specificc address\n    function museumCreation(address museum) external {\n        // veryf the sender is the creator/owner of the smart contract and that there is a pendig reques to register the wallet\n        if (msg.sender == creator && registeredWallets[museum].hashedName != 0){\n            // change the status of the museum to verified\n            registeredWallets[museum].verified = true;\n        }\n         else {\n            revert();\n        }\n    }\n\n    // Verify if a wallet is registered in the blockchain as an verified actor\n    function isVerified(address museum) external view returns(bool) {\n        return registeredWallets[museum].verified;\n    }\n\n    // Get the role of a wallet if it is registered in the blockchain as an verified actor\n    function getRole(address museum) external view returns(uint role) {\n        if (registeredWallets[museum].verified == false){\n            revert();\n        }\n        else {\n\n            return uint(registeredWallets[museum].role);\n        }\n    }\n\n    // Get the hashed name of a wallet if it is registered in the blockchain as an verified actor\n    function getHashedName(address museum) external view returns(bytes32) {\n        if (registeredWallets[museum].verified == false){\n            revert();\n        }\n        else {\n            return registeredWallets[museum].hashedName;\n        }\n    }\n\n    // Verify if a name is the same of the hashed name of a wallet if it is registered in the blockchain as an verified actor\n    function verifyHashedName(bytes32 hashedName, address museum) external view returns(bool) {\n        if (registeredWallets[museum].verified == false){\n            revert();\n        }\n        else {\n            return hashedName == registeredWallets[museum].hashedName;\n        }\n    }\n\n    function hashString(string calldata name) external pure returns(bytes32) {\n        return keccak256(abi.encodePacked(name));\n    }\n\n    function hashStringAndWallet(string calldata name, address wallet) external pure returns(bytes32){\n        return keccak256(abi.encodePacked(keccak256(abi.encodePacked(name)), wallet));\n    }\n}",
  "sourcePath": "/Users/MichaelPlug/Documents/TF/contracts/Verification.sol",
  "compiler": {
    "name": "solc",
    "version": "0.8.10+commit.fc410830.Emscripten.clang"
  },
  "schemaVersion": "3.4.11",
  "updatedAt": "2023-01-02T11:03:48.714Z",
  "devdoc": {
    "kind": "dev",
    "methods": {
      "museumRequestCreation(bytes32,uint8)": {
        "params": {
          "hashedName": "the hashed name of the requesting actor",
          "role": "the type of the actor"
        }
      }
    },
    "version": 1
  },
  "userdoc": {
    "kind": "user",
    "methods": {
      "museumRequestCreation(bytes32,uint8)": {
        "notice": "the sender create a request of verification, minting an IDNFT with verification variable as false"
      }
    },
    "version": 1
  }
}