{
  "contractName": "DArt",
  "abi": [
    {
      "inputs": [],
      "stateMutability": "nonpayable",
      "type": "constructor"
    },
    {
      "anonymous": false,
      "inputs": [
        {
          "indexed": true,
          "internalType": "bytes32",
          "name": "artwork",
          "type": "bytes32"
        },
        {
          "indexed": true,
          "internalType": "address",
          "name": "user",
          "type": "address"
        }
      ],
      "name": "allowedAccessToArtwork",
      "type": "event"
    },
    {
      "anonymous": false,
      "inputs": [
        {
          "indexed": true,
          "internalType": "bytes32",
          "name": "artwork",
          "type": "bytes32"
        },
        {
          "indexed": true,
          "internalType": "address",
          "name": "user",
          "type": "address"
        }
      ],
      "name": "deniedAccessToArtwork",
      "type": "event"
    },
    {
      "anonymous": false,
      "inputs": [
        {
          "indexed": true,
          "internalType": "bytes32",
          "name": "artwork",
          "type": "bytes32"
        },
        {
          "indexed": true,
          "internalType": "address",
          "name": "user",
          "type": "address"
        }
      ],
      "name": "donatedArtwork",
      "type": "event"
    },
    {
      "inputs": [],
      "name": "creator",
      "outputs": [
        {
          "internalType": "address",
          "name": "",
          "type": "address"
        }
      ],
      "stateMutability": "view",
      "type": "function",
      "constant": true
    },
    {
      "inputs": [],
      "name": "dcoin",
      "outputs": [
        {
          "internalType": "contract DCoin",
          "name": "",
          "type": "address"
        }
      ],
      "stateMutability": "view",
      "type": "function",
      "constant": true
    },
    {
      "inputs": [],
      "name": "patron",
      "outputs": [
        {
          "internalType": "contract Patron",
          "name": "",
          "type": "address"
        }
      ],
      "stateMutability": "view",
      "type": "function",
      "constant": true
    },
    {
      "inputs": [
        {
          "internalType": "bytes32",
          "name": "",
          "type": "bytes32"
        }
      ],
      "name": "registerdActivities",
      "outputs": [
        {
          "internalType": "address",
          "name": "author",
          "type": "address"
        },
        {
          "internalType": "uint256",
          "name": "timestamp",
          "type": "uint256"
        },
        {
          "internalType": "enum DArt.ProtectionActivities",
          "name": "typology",
          "type": "uint8"
        },
        {
          "internalType": "bytes32",
          "name": "extraInfo",
          "type": "bytes32"
        }
      ],
      "stateMutability": "view",
      "type": "function",
      "constant": true
    },
    {
      "inputs": [
        {
          "internalType": "bytes32",
          "name": "",
          "type": "bytes32"
        }
      ],
      "name": "registerdExibitions",
      "outputs": [
        {
          "internalType": "bytes32",
          "name": "hashedName",
          "type": "bytes32"
        },
        {
          "internalType": "address",
          "name": "organizer",
          "type": "address"
        },
        {
          "internalType": "bool",
          "name": "isOn",
          "type": "bool"
        }
      ],
      "stateMutability": "view",
      "type": "function",
      "constant": true
    },
    {
      "inputs": [
        {
          "internalType": "bytes32",
          "name": "",
          "type": "bytes32"
        }
      ],
      "name": "registeredArtworks",
      "outputs": [
        {
          "internalType": "bytes32",
          "name": "hashedName",
          "type": "bytes32"
        },
        {
          "internalType": "address",
          "name": "minter",
          "type": "address"
        },
        {
          "internalType": "address",
          "name": "property",
          "type": "address"
        },
        {
          "internalType": "address",
          "name": "possession",
          "type": "address"
        },
        {
          "internalType": "bytes32",
          "name": "exposedAt",
          "type": "bytes32"
        },
        {
          "internalType": "bytes32",
          "name": "status",
          "type": "bytes32"
        }
      ],
      "stateMutability": "view",
      "type": "function",
      "constant": true
    },
    {
      "inputs": [],
      "name": "verification",
      "outputs": [
        {
          "internalType": "contract Verification",
          "name": "",
          "type": "address"
        }
      ],
      "stateMutability": "view",
      "type": "function",
      "constant": true
    },
    {
      "inputs": [
        {
          "internalType": "address",
          "name": "dcoinad",
          "type": "address"
        },
        {
          "internalType": "address",
          "name": "verificationad",
          "type": "address"
        },
        {
          "internalType": "address",
          "name": "patronad",
          "type": "address"
        }
      ],
      "name": "setContracts",
      "outputs": [],
      "stateMutability": "nonpayable",
      "type": "function"
    },
    {
      "inputs": [
        {
          "internalType": "bytes32",
          "name": "hashedName",
          "type": "bytes32"
        }
      ],
      "name": "hashTextAndAddress",
      "outputs": [
        {
          "internalType": "bytes32",
          "name": "",
          "type": "bytes32"
        }
      ],
      "stateMutability": "view",
      "type": "function",
      "constant": true
    },
    {
      "inputs": [
        {
          "internalType": "bytes32",
          "name": "hashedName",
          "type": "bytes32"
        }
      ],
      "name": "mintArtworkNFT",
      "outputs": [],
      "stateMutability": "nonpayable",
      "type": "function"
    },
    {
      "inputs": [
        {
          "internalType": "bytes32",
          "name": "hashedName",
          "type": "bytes32"
        },
        {
          "internalType": "bool",
          "name": "status",
          "type": "bool"
        }
      ],
      "name": "mintExibitionNFT",
      "outputs": [],
      "stateMutability": "nonpayable",
      "type": "function"
    },
    {
      "inputs": [
        {
          "internalType": "bytes32",
          "name": "exibitionID",
          "type": "bytes32"
        }
      ],
      "name": "endExibition",
      "outputs": [],
      "stateMutability": "nonpayable",
      "type": "function"
    },
    {
      "inputs": [
        {
          "internalType": "bytes32",
          "name": "artworkID",
          "type": "bytes32"
        },
        {
          "internalType": "bytes32",
          "name": "exibitionID",
          "type": "bytes32"
        }
      ],
      "name": "exposeArtwork",
      "outputs": [],
      "stateMutability": "nonpayable",
      "type": "function"
    },
    {
      "inputs": [
        {
          "internalType": "bytes32",
          "name": "artworkID",
          "type": "bytes32"
        }
      ],
      "name": "removeArtworkFromExibition",
      "outputs": [],
      "stateMutability": "nonpayable",
      "type": "function"
    },
    {
      "inputs": [
        {
          "internalType": "bytes32",
          "name": "artworkID",
          "type": "bytes32"
        },
        {
          "internalType": "enum DArt.ProtectionActivities",
          "name": "oftype",
          "type": "uint8"
        },
        {
          "internalType": "bytes32",
          "name": "extrainfo",
          "type": "bytes32"
        }
      ],
      "name": "mintActivity",
      "outputs": [],
      "stateMutability": "nonpayable",
      "type": "function"
    },
    {
      "inputs": [
        {
          "internalType": "address",
          "name": "target",
          "type": "address"
        },
        {
          "internalType": "bytes32",
          "name": "artwork",
          "type": "bytes32"
        }
      ],
      "name": "allowAccessToArtwork",
      "outputs": [],
      "stateMutability": "nonpayable",
      "type": "function"
    },
    {
      "inputs": [
        {
          "internalType": "bytes32",
          "name": "artwork",
          "type": "bytes32"
        }
      ],
      "name": "revokeAccessToArtwork",
      "outputs": [],
      "stateMutability": "nonpayable",
      "type": "function"
    },
    {
      "inputs": [
        {
          "internalType": "bytes32",
          "name": "artwork",
          "type": "bytes32"
        },
        {
          "internalType": "address",
          "name": "_to",
          "type": "address"
        }
      ],
      "name": "donateWorkOfArt",
      "outputs": [],
      "stateMutability": "nonpayable",
      "type": "function"
    },
    {
      "inputs": [
        {
          "internalType": "bytes32",
          "name": "artwork",
          "type": "bytes32"
        }
      ],
      "name": "getProperty",
      "outputs": [
        {
          "internalType": "address",
          "name": "",
          "type": "address"
        }
      ],
      "stateMutability": "view",
      "type": "function",
      "constant": true
    },
    {
      "inputs": [],
      "name": "terminate",
      "outputs": [],
      "stateMutability": "nonpayable",
      "type": "function"
    }
  ],
  "bytecode": "0x608060405234801561001057600080fd5b50336000806101000a81548173ffffffffffffffffffffffffffffffffffffffff021916908373ffffffffffffffffffffffffffffffffffffffff1602179055506126e9806100606000396000f3fe608060405234801561001057600080fd5b506004361061012c5760003560e01c806373150fa3116100ad578063ece9795a11610071578063ece9795a1461030c578063f4edcb4a1461033c578063f9b8211814610358578063fc13ae2914610374578063ff9ebc51146103905761012c565b806373150fa3146102695780637f9574cb1461029c578063b3066d49146102b8578063b7836c06146102d4578063d0565e3e146102f05761012c565b8063463f7a89116100f4578063463f7a89146101af5780634ffe2a8b146101df57806362df36e9146101fd57806370ef131e1461022f5780637278b2f21461024d5761012c565b806302d05d3f146101315780630ba32b271461014f5780630c08bf881461016d578063120570eb1461017757806345d8d1ce14610193575b600080fd5b6101396103c5565b6040516101469190611977565b60405180910390f35b6101576103e9565b60405161016491906119f1565b60405180910390f35b61017561040f565b005b610191600480360381019061018c9190611a47565b6104d6565b005b6101ad60048036038101906101a89190611a99565b6105ac565b005b6101c960048036038101906101c49190611a47565b6109b8565b6040516101d69190611977565b60405180910390f35b6101e76109f8565b6040516101f49190611b0d565b60405180910390f35b61021760048036038101906102129190611a47565b610a1e565b60405161022693929190611b52565b60405180910390f35b610237610a75565b6040516102449190611baa565b60405180910390f35b61026760048036038101906102629190611bf1565b610a9b565b005b610283600480360381019061027e9190611a47565b610bdc565b6040516102939493929190611cc1565b60405180910390f35b6102b660048036038101906102b19190611a47565b610c39565b005b6102d260048036038101906102cd9190611d06565b610cfe565b005b6102ee60048036038101906102e99190611d59565b610e54565b005b61030a60048036038101906103059190611a47565b61101e565b005b61032660048036038101906103219190611a47565b611394565b6040516103339190611d99565b60405180910390f35b61035660048036038101906103519190611de0565b6113c6565b005b610372600480360381019061036d9190611a47565b611647565b005b61038e60048036038101906103899190611e20565b61178b565b005b6103aa60048036038101906103a59190611a47565b61189a565b6040516103bc96959493929190611e60565b60405180910390f35b60008054906101000a900473ffffffffffffffffffffffffffffffffffffffff1681565b600660009054906101000a900473ffffffffffffffffffffffffffffffffffffffff1681565b60008054906101000a900473ffffffffffffffffffffffffffffffffffffffff1673ffffffffffffffffffffffffffffffffffffffff163373ffffffffffffffffffffffffffffffffffffffff161461049d576040517f08c379a000000000000000000000000000000000000000000000000000000000815260040161049490611f44565b60405180910390fd5b60008054906101000a900473ffffffffffffffffffffffffffffffffffffffff1673ffffffffffffffffffffffffffffffffffffffff16ff5b3373ffffffffffffffffffffffffffffffffffffffff166002600083815260200190815260200160002060010160009054906101000a900473ffffffffffffffffffffffffffffffffffffffff1673ffffffffffffffffffffffffffffffffffffffff161461057a576040517f08c379a000000000000000000000000000000000000000000000000000000000815260040161057190611fd6565b60405180910390fd5b60006002600083815260200190815260200160002060010160146101000a81548160ff02191690831515021790555050565b6000600460009054906101000a900473ffffffffffffffffffffffffffffffffffffffff1673ffffffffffffffffffffffffffffffffffffffff166344276733336040518263ffffffff1660e01b81526004016106099190611977565b602060405180830381865afa158015610626573d6000803e3d6000fd5b505050506040513d601f19601f8201168201806040525081019061064a9190612022565b90506004811461065d5761065c61204f565b5b3373ffffffffffffffffffffffffffffffffffffffff166001600086815260200190815260200160002060030160009054906101000a900473ffffffffffffffffffffffffffffffffffffffff1673ffffffffffffffffffffffffffffffffffffffff1614610701576040517f08c379a00000000000000000000000000000000000000000000000000000000081526004016106f890612116565b60405180910390fd5b6000334260405160200161071692919061219f565b60405160208183030381529060405280519060200120905080600160008781526020019081526020016000206005018190555060405180608001604052803373ffffffffffffffffffffffffffffffffffffffff16815260200142815260200185600581111561078957610788611c4a565b5b8152602001848152506003600083815260200190815260200160002060008201518160000160006101000a81548173ffffffffffffffffffffffffffffffffffffffff021916908373ffffffffffffffffffffffffffffffffffffffff1602179055506020820151816001015560408201518160020160006101000a81548160ff0219169083600581111561082157610820611c4a565b5b021790555060608201518160030155905050600560009054906101000a900473ffffffffffffffffffffffffffffffffffffffff1673ffffffffffffffffffffffffffffffffffffffff1663fcd3533c6002336040518363ffffffff1660e01b8152600401610891929190612206565b600060405180830381600087803b1580156108ab57600080fd5b505af11580156108bf573d6000803e3d6000fd5b505050506005808111156108d6576108d5611c4a565b5b8460058111156108e9576108e8611c4a565b5b1415801561091c57506004600581111561090657610905611c4a565b5b84600581111561091957610918611c4a565b5b14155b156109b157600660009054906101000a900473ffffffffffffffffffffffffffffffffffffffff1673ffffffffffffffffffffffffffffffffffffffff1663a84a163a33876040518363ffffffff1660e01b815260040161097e92919061222f565b600060405180830381600087803b15801561099857600080fd5b505af11580156109ac573d6000803e3d6000fd5b505050505b5050505050565b60006001600083815260200190815260200160002060020160009054906101000a900473ffffffffffffffffffffffffffffffffffffffff169050919050565b600460009054906101000a900473ffffffffffffffffffffffffffffffffffffffff1681565b60026020528060005260406000206000915090508060000154908060010160009054906101000a900473ffffffffffffffffffffffffffffffffffffffff16908060010160149054906101000a900460ff16905083565b600560009054906101000a900473ffffffffffffffffffffffffffffffffffffffff1681565b3373ffffffffffffffffffffffffffffffffffffffff166001600084815260200190815260200160002060020160009054906101000a900473ffffffffffffffffffffffffffffffffffffffff1673ffffffffffffffffffffffffffffffffffffffff1614610b3f576040517f08c379a0000000000000000000000000000000000000000000000000000000008152600401610b36906122ca565b60405180910390fd5b806001600084815260200190815260200160002060020160006101000a81548173ffffffffffffffffffffffffffffffffffffffff021916908373ffffffffffffffffffffffffffffffffffffffff1602179055508073ffffffffffffffffffffffffffffffffffffffff16827f20b354cf3549e1751a33d04abadf22fb05930d6c8aeb0bdd6455f2801c52d45860405160405180910390a35050565b60036020528060005260406000206000915090508060000160009054906101000a900473ffffffffffffffffffffffffffffffffffffffff16908060010154908060020160009054906101000a900460ff16908060030154905084565b3373ffffffffffffffffffffffffffffffffffffffff166001600083815260200190815260200160002060030160009054906101000a900473ffffffffffffffffffffffffffffffffffffffff1673ffffffffffffffffffffffffffffffffffffffff1614610cdd576040517f08c379a0000000000000000000000000000000000000000000000000000000008152600401610cd49061235c565b60405180910390fd5b6000801b600160008381526020019081526020016000206004018190555050565b60008054906101000a900473ffffffffffffffffffffffffffffffffffffffff1673ffffffffffffffffffffffffffffffffffffffff163373ffffffffffffffffffffffffffffffffffffffff1614610d8c576040517f08c379a0000000000000000000000000000000000000000000000000000000008152600401610d83906123ee565b60405180910390fd5b82600560006101000a81548173ffffffffffffffffffffffffffffffffffffffff021916908373ffffffffffffffffffffffffffffffffffffffff16021790555081600460006101000a81548173ffffffffffffffffffffffffffffffffffffffff021916908373ffffffffffffffffffffffffffffffffffffffff16021790555080600660006101000a81548173ffffffffffffffffffffffffffffffffffffffff021916908373ffffffffffffffffffffffffffffffffffffffff160217905550505050565b3373ffffffffffffffffffffffffffffffffffffffff166001600084815260200190815260200160002060020160009054906101000a900473ffffffffffffffffffffffffffffffffffffffff1673ffffffffffffffffffffffffffffffffffffffff1614610ef8576040517f08c379a0000000000000000000000000000000000000000000000000000000008152600401610eef90612480565b60405180910390fd5b6002600082815260200190815260200160002060010160149054906101000a900460ff16610f5b576040517f08c379a0000000000000000000000000000000000000000000000000000000008152600401610f52906124ec565b60405180910390fd5b3373ffffffffffffffffffffffffffffffffffffffff166002600083815260200190815260200160002060010160009054906101000a900473ffffffffffffffffffffffffffffffffffffffff1673ffffffffffffffffffffffffffffffffffffffff1614610fff576040517f08c379a0000000000000000000000000000000000000000000000000000000008152600401610ff6906124ec565b60405180910390fd5b8060016000848152602001908152602001600020600401819055505050565b6000600460009054906101000a900473ffffffffffffffffffffffffffffffffffffffff1673ffffffffffffffffffffffffffffffffffffffff166344276733336040518263ffffffff1660e01b815260040161107b9190611977565b602060405180830381865afa158015611098573d6000803e3d6000fd5b505050506040513d601f19601f820116820180604052508101906110bc9190612022565b9050600481106110cf576110ce61204f565b5b60006110da83611394565b9050600073ffffffffffffffffffffffffffffffffffffffff166001600083815260200190815260200160002060010160009054906101000a900473ffffffffffffffffffffffffffffffffffffffff1673ffffffffffffffffffffffffffffffffffffffff1614611181576040517f08c379a00000000000000000000000000000000000000000000000000000000081526004016111789061257e565b60405180910390fd5b600560009054906101000a900473ffffffffffffffffffffffffffffffffffffffff1673ffffffffffffffffffffffffffffffffffffffff1663fcd3533c6000336040518363ffffffff1660e01b81526004016111df9291906125d9565b600060405180830381600087803b1580156111f957600080fd5b505af115801561120d573d6000803e3d6000fd5b505050506040518060c001604052808481526020013373ffffffffffffffffffffffffffffffffffffffff1681526020013373ffffffffffffffffffffffffffffffffffffffff1681526020013373ffffffffffffffffffffffffffffffffffffffff1681526020016000801b81526020016000801b815250600160008381526020019081526020016000206000820151816000015560208201518160010160006101000a81548173ffffffffffffffffffffffffffffffffffffffff021916908373ffffffffffffffffffffffffffffffffffffffff16021790555060408201518160020160006101000a81548173ffffffffffffffffffffffffffffffffffffffff021916908373ffffffffffffffffffffffffffffffffffffffff16021790555060608201518160030160006101000a81548173ffffffffffffffffffffffffffffffffffffffff021916908373ffffffffffffffffffffffffffffffffffffffff1602179055506080820151816004015560a08201518160050155905050505050565b600081336040516020016113a9929190612623565b604051602081830303815290604052805190602001209050919050565b6000600460009054906101000a900473ffffffffffffffffffffffffffffffffffffffff1673ffffffffffffffffffffffffffffffffffffffff166344276733336040518263ffffffff1660e01b81526004016114239190611977565b602060405180830381865afa158015611440573d6000803e3d6000fd5b505050506040513d601f19601f820116820180604052508101906114649190612022565b9050600281106114775761147661204f565b5b600061148284611394565b9050600073ffffffffffffffffffffffffffffffffffffffff166001600083815260200190815260200160002060010160009054906101000a900473ffffffffffffffffffffffffffffffffffffffff1673ffffffffffffffffffffffffffffffffffffffff16146114f7576114f661204f565b5b600560009054906101000a900473ffffffffffffffffffffffffffffffffffffffff1673ffffffffffffffffffffffffffffffffffffffff1663fcd3533c6001336040518363ffffffff1660e01b815260040161155592919061268a565b600060405180830381600087803b15801561156f57600080fd5b505af1158015611583573d6000803e3d6000fd5b5050505060405180606001604052808581526020013373ffffffffffffffffffffffffffffffffffffffff168152602001841515815250600260008381526020019081526020016000206000820151816000015560208201518160010160006101000a81548173ffffffffffffffffffffffffffffffffffffffff021916908373ffffffffffffffffffffffffffffffffffffffff16021790555060408201518160010160146101000a81548160ff02191690831515021790555090505050505050565b3373ffffffffffffffffffffffffffffffffffffffff166001600083815260200190815260200160002060020160009054906101000a900473ffffffffffffffffffffffffffffffffffffffff1673ffffffffffffffffffffffffffffffffffffffff16146116b9576116b861204f565b5b6001600082815260200190815260200160002060030160009054906101000a900473ffffffffffffffffffffffffffffffffffffffff1673ffffffffffffffffffffffffffffffffffffffff16817fc0bee89993516a316cc85daffaa82b1d8fb9aff0cb48ddffcda904ad54324fd960405160405180910390a3336001600083815260200190815260200160002060030160006101000a81548173ffffffffffffffffffffffffffffffffffffffff021916908373ffffffffffffffffffffffffffffffffffffffff16021790555050565b3373ffffffffffffffffffffffffffffffffffffffff166001600083815260200190815260200160002060020160009054906101000a900473ffffffffffffffffffffffffffffffffffffffff1673ffffffffffffffffffffffffffffffffffffffff16146117fd576117fc61204f565b5b816001600083815260200190815260200160002060030160006101000a81548173ffffffffffffffffffffffffffffffffffffffff021916908373ffffffffffffffffffffffffffffffffffffffff1602179055508173ffffffffffffffffffffffffffffffffffffffff16817f27919521dc7f9103d6d4e9443db46560e09a5d4d1d457b95180a177e942d75b660405160405180910390a35050565b60016020528060005260406000206000915090508060000154908060010160009054906101000a900473ffffffffffffffffffffffffffffffffffffffff16908060020160009054906101000a900473ffffffffffffffffffffffffffffffffffffffff16908060030160009054906101000a900473ffffffffffffffffffffffffffffffffffffffff16908060040154908060050154905086565b600073ffffffffffffffffffffffffffffffffffffffff82169050919050565b600061196182611936565b9050919050565b61197181611956565b82525050565b600060208201905061198c6000830184611968565b92915050565b6000819050919050565b60006119b76119b26119ad84611936565b611992565b611936565b9050919050565b60006119c98261199c565b9050919050565b60006119db826119be565b9050919050565b6119eb816119d0565b82525050565b6000602082019050611a0660008301846119e2565b92915050565b600080fd5b6000819050919050565b611a2481611a11565b8114611a2f57600080fd5b50565b600081359050611a4181611a1b565b92915050565b600060208284031215611a5d57611a5c611a0c565b5b6000611a6b84828501611a32565b91505092915050565b60068110611a8157600080fd5b50565b600081359050611a9381611a74565b92915050565b600080600060608486031215611ab257611ab1611a0c565b5b6000611ac086828701611a32565b9350506020611ad186828701611a84565b9250506040611ae286828701611a32565b9150509250925092565b6000611af7826119be565b9050919050565b611b0781611aec565b82525050565b6000602082019050611b226000830184611afe565b92915050565b611b3181611a11565b82525050565b60008115159050919050565b611b4c81611b37565b82525050565b6000606082019050611b676000830186611b28565b611b746020830185611968565b611b816040830184611b43565b949350505050565b6000611b94826119be565b9050919050565b611ba481611b89565b82525050565b6000602082019050611bbf6000830184611b9b565b92915050565b611bce81611956565b8114611bd957600080fd5b50565b600081359050611beb81611bc5565b92915050565b60008060408385031215611c0857611c07611a0c565b5b6000611c1685828601611a32565b9250506020611c2785828601611bdc565b9150509250929050565b6000819050919050565b611c4481611c31565b82525050565b7f4e487b7100000000000000000000000000000000000000000000000000000000600052602160045260246000fd5b60068110611c8a57611c89611c4a565b5b50565b6000819050611c9b82611c79565b919050565b6000611cab82611c8d565b9050919050565b611cbb81611ca0565b82525050565b6000608082019050611cd66000830187611968565b611ce36020830186611c3b565b611cf06040830185611cb2565b611cfd6060830184611b28565b95945050505050565b600080600060608486031215611d1f57611d1e611a0c565b5b6000611d2d86828701611bdc565b9350506020611d3e86828701611bdc565b9250506040611d4f86828701611bdc565b9150509250925092565b60008060408385031215611d7057611d6f611a0c565b5b6000611d7e85828601611a32565b9250506020611d8f85828601611a32565b9150509250929050565b6000602082019050611dae6000830184611b28565b92915050565b611dbd81611b37565b8114611dc857600080fd5b50565b600081359050611dda81611db4565b92915050565b60008060408385031215611df757611df6611a0c565b5b6000611e0585828601611a32565b9250506020611e1685828601611dcb565b9150509250929050565b60008060408385031215611e3757611e36611a0c565b5b6000611e4585828601611bdc565b9250506020611e5685828601611a32565b9150509250929050565b600060c082019050611e756000830189611b28565b611e826020830188611968565b611e8f6040830187611968565b611e9c6060830186611968565b611ea96080830185611b28565b611eb660a0830184611b28565b979650505050505050565b600082825260208201905092915050565b7f596f752063616e6e6f74207465726d696e6174652074686520636f6e7472616360008201527f7421000000000000000000000000000000000000000000000000000000000000602082015250565b6000611f2e602283611ec1565b9150611f3982611ed2565b604082019050919050565b60006020820190508181036000830152611f5d81611f21565b9050919050565b7f596f7520646f206e6f74206861766520746865206e656365737361727920706560008201527f726d697373696f6e7320746f20656e64207468697320657869626974696f6e00602082015250565b6000611fc0603f83611ec1565b9150611fcb82611f64565b604082019050919050565b60006020820190508181036000830152611fef81611fb3565b9050919050565b611fff81611c31565b811461200a57600080fd5b50565b60008151905061201c81611ff6565b92915050565b60006020828403121561203857612037611a0c565b5b60006120468482850161200d565b91505092915050565b7f4e487b7100000000000000000000000000000000000000000000000000000000600052600160045260246000fd5b7f596f7520646f206e6f74206861766520746865206e656365737361727920706560008201527f726d697373696f6e7320746f2063726561746520616e2041637469766974792060208201527f61626f7574207468697320617274776f726b0000000000000000000000000000604082015250565b6000612100605283611ec1565b915061210b8261207e565b606082019050919050565b6000602082019050818103600083015261212f816120f3565b9050919050565b60008160601b9050919050565b600061214e82612136565b9050919050565b600061216082612143565b9050919050565b61217861217382611956565b612155565b82525050565b6000819050919050565b61219961219482611c31565b61217e565b82525050565b60006121ab8285612167565b6014820191506121bb8284612188565b6020820191508190509392505050565b6000819050919050565b60006121f06121eb6121e6846121cb565b611992565b611c31565b9050919050565b612200816121d5565b82525050565b600060408201905061221b60008301856121f7565b6122286020830184611968565b9392505050565b60006040820190506122446000830185611968565b6122516020830184611b28565b9392505050565b7f596f7520617265206e6f7420746865206f776e6572206f66207468652073656c60008201527f6563746564206172746f776f726b000000000000000000000000000000000000602082015250565b60006122b4602e83611ec1565b91506122bf82612258565b604082019050919050565b600060208201905081810360008301526122e3816122a7565b9050919050565b7f596f7520646f206e6f74206861766520746865206e656365737361727920706560008201527f726d697373696f6e7320746f2072656d6f7665207468697320617274776f726b602082015250565b6000612346604083611ec1565b9150612351826122ea565b604082019050919050565b6000602082019050818103600083015261237581612339565b9050919050565b7f4f6e6c79207468652063726561746f722063616e207365742074686520636f6e60008201527f7472616374730000000000000000000000000000000000000000000000000000602082015250565b60006123d8602683611ec1565b91506123e38261237c565b604082019050919050565b60006020820190508181036000830152612407816123cb565b9050919050565b7f596f7520646f206e6f74206861766520746865206e656365737361727920706560008201527f726d697373696f6e7320746f206578706f7365207468697320617274776f726b602082015250565b600061246a604083611ec1565b91506124758261240e565b604082019050919050565b600060208201905081810360008301526124998161245d565b9050919050565b7f54686520657869626974696f6e206973206e6f74206f6e000000000000000000600082015250565b60006124d6601783611ec1565b91506124e1826124a0565b602082019050919050565b60006020820190508181036000830152612505816124c9565b9050919050565b7f4120636f6c6c6973696f6e20647572696e672068617368696e67206f6363757260008201527f7265640000000000000000000000000000000000000000000000000000000000602082015250565b6000612568602383611ec1565b91506125738261250c565b604082019050919050565b600060208201905081810360008301526125978161255b565b9050919050565b6000819050919050565b60006125c36125be6125b98461259e565b611992565b611c31565b9050919050565b6125d3816125a8565b82525050565b60006040820190506125ee60008301856125ca565b6125fb6020830184611968565b9392505050565b6000819050919050565b61261d61261882611a11565b612602565b82525050565b600061262f828561260c565b60208201915061263f8284612167565b6014820191508190509392505050565b6000819050919050565b600061267461266f61266a8461264f565b611992565b611c31565b9050919050565b61268481612659565b82525050565b600060408201905061269f600083018561267b565b6126ac6020830184611968565b939250505056fea2646970667358221220edd556b0159fbda3cf588845da66ffe7e31aff369a79fb8ecfa7732962dc318564736f6c63430008110033",
  "immutableReferences": {},
  "source": "//for compability reasons, we work only with these versions\npragma solidity >=0.7.0 < 0.9.0;\n\n\nimport \"./Verification.sol\";\nimport \"./Patron.sol\";\nimport \"./DCoin.sol\";\n\n//we have objects to work with\ncontract DArt {\n\n    event allowedAccessToArtwork(bytes32 indexed artwork, address indexed user);\n    event deniedAccessToArtwork(bytes32 indexed artwork, address indexed user);\n    event donatedArtwork(bytes32 indexed artwork, address indexed user);\n\n    //event ProtectionActivityStarted(Artwork indexed artwork);\n\n    //we have a struct to store the data about artworks\n    struct Artwork {\n        bytes32 hashedName;\n        address minter; //the address of the museum that minted the artwork\n        address property;\n        address possession;\n        bytes32 exposedAt; // Da vedere come gestire lo storico delle esposizioni\n        bytes32 status; // Da vedere come gestire lo storico delle operazioni\n    }\n\n    // A struct to collect information about exibitions\n    struct Exibition {\n        bytes32 hashedName;\n        address organizer;\n        bool isOn; \n    }\n\n    struct Activity{\n        // bytes32 artworkId;\n        address author;\n        uint timestamp;\n        ProtectionActivities typology;\n        bytes32 extraInfo;\n    }\n    \n    // This enum indicates the type of operation applied to and update of an artwork\n    enum ProtectionActivities {\n        PREVENTION,\n        PROTECTIOIN,\n        MAINTAINANCE,\n        RESTAURATION,\n        DAMAGE,\n        UPDATE\n    }\n\n    //this is the address of the creator MAYBE PRIVATE, namely the owner\n    //of the smart contract that it can do some special actions\n    address public creator;\n\n    mapping (bytes32 => Artwork) public registeredArtworks;\n    mapping (bytes32 => Exibition) public registerdExibitions;\n    mapping (bytes32 => Activity) public registerdActivities;\n\n    /*\n    address public constant dcoinSmartcontract;\n    address public constant verificatioSmartcontract; \n    address public constant patronSmartcontract;\n    */\n\n    //         mainSmartcontract.call(abi.encodeWithSignature(\"setCostOfServices(uint[3])\", [1,2,3]));\n\n    Verification public verification;\n    DCoin public dcoin;\n    Patron public patron;   \n  \n\n\n    //the first time that we call che smart contract we need to save which is the\n    //creator, because it can do after some important actions\n    constructor(){\n        //so we save the address of the creator, one time and forever\n        /*\n        dcoin = dcoinSmartcontract;\n        verification = verificatioSmartcontract;\n        patron = patronSmartcontract;\n        */\n        creator = msg.sender;\n        //dcoin.setContrats(address(Patron(address(patron))));\n    }\n\n    function setContracts(address dcoinad, address verificationad, address patronad) external{\n        require(msg.sender == creator, \"Only the creator can set the contracts\");\n        dcoin = DCoin(dcoinad);\n        verification = Verification(verificationad);\n        patron = Patron(patronad);\n    }\n\n    /**\n        @notice a pure faction to hash a string and the address of the caller, used to create univoque ids\n        @param hashedName the hashed string that have to be hashed with the msg.sender\n     */\n     // Dovrebbe essere pure ma da errore\n    function hashTextAndAddress(bytes32 hashedName) public view returns(bytes32) {\n        return keccak256(abi.encodePacked(hashedName, msg.sender));\n    }\n\n    function checkWallet() internal view {\n        //(bool success, bytes memory data) = verification.call(abi.encodeWithSignature(\"isVerified(address)\",msg.sender));\n        require(verification.isVerified(msg.sender), \"Sender's wallet is not verifed\");\n        //assert(verification.isVerified(msg.sender));\n        /*assert(\n            verificationSmartcontract.call(aby.encodingWithSignature(\"isVerified(address)\",msg.sender)),\n            \"Sender's wallet is not verifed\");*/\n    }\n\n    //called by a museum, to add an artwork in blockchain (MAYBE TO DO\n    /**\n        @notice mint an Artwork NFT. The id of the NFT is the hash of its name and the minter address.\n        @param hashedName name of the artwork hashed using keccak256\n     */    \n    function mintArtworkNFT(bytes32 hashedName) external {\n        uint role = verification.getRole(msg.sender);\n        assert(role < 4);\n        bytes32 kek = hashTextAndAddress(hashedName);\n        require(registeredArtworks[kek].minter == address(0x0), \"A collision during hashing occurred\");\n        dcoin.burn(0, msg.sender);   \n        registeredArtworks[kek] = Artwork(hashedName, msg.sender, msg.sender, msg.sender, 0, 0);\n    }\n\n    /**\n        @notice mint an Exibition NFT. The id of the NFT is the hash of its name and the minter address.\n        @param hashedName the Exibition's name hashed using keccak256\n        @param status indicates the status of the creare exibition, if it's on or not\n     */\n    function mintExibitionNFT(bytes32 hashedName, bool status) external {\n        uint role = verification.getRole(msg.sender);\n        assert(role < 2);\n        bytes32 kek = hashTextAndAddress(hashedName);\n        assert(registeredArtworks[kek].minter == address(0x0));\n        dcoin.burn(1, msg.sender);\n        registerdExibitions[kek] = Exibition(hashedName, msg.sender, status);\n    }\n\n    function endExibition(bytes32 exibitionID) external {\n        require(registerdExibitions[exibitionID].organizer == msg.sender, \"You do not have the necessary permissions to end this exibition\");\n        registerdExibitions[exibitionID].isOn = false;\n    }\n\n    function exposeArtwork(bytes32 artworkID, bytes32 exibitionID) external {\n        require(registeredArtworks[artworkID].property == msg.sender, \"You do not have the necessary permissions to expose this artwork\");\n        require(registerdExibitions[exibitionID].isOn, \"The exibition is not on\");\n        require(registerdExibitions[exibitionID].organizer == msg.sender, \"The exibition is not on\");\n        registeredArtworks[artworkID].exposedAt = exibitionID;\n    }\n\n    function removeArtworkFromExibition(bytes32 artworkID) external {\n        require(registeredArtworks[artworkID].possession == msg.sender, \"You do not have the necessary permissions to remove this artwork\");\n        registeredArtworks[artworkID].exposedAt = bytes32(0x0);\n    }\n\n    function mintActivity(bytes32 artworkID, ProtectionActivities oftype, bytes32 extrainfo) external{\n        uint role = verification.getRole(msg.sender);\n        assert(role == 4);\n        require(registeredArtworks[artworkID].possession == msg.sender,  \"You do not have the necessary permissions to create an Activity about this artwork\");\n        bytes32 kek = keccak256(abi.encodePacked(msg.sender, block.timestamp));\n        registeredArtworks[artworkID].status =   kek;\n        registerdActivities[kek] = Activity(msg.sender, block.timestamp, oftype, extrainfo);  \n        dcoin.burn(2,msg.sender);\n        if (oftype != ProtectionActivities.UPDATE && oftype != ProtectionActivities.DAMAGE){\n            patron.moveFunds(msg.sender, artworkID);\n        }\n    }\n\n    function allowAccessToArtwork(address target, bytes32 artwork) external {\n        //assert(museums[target].verified);\n        assert(registeredArtworks[artwork].property == msg.sender);\n        registeredArtworks[artwork].possession = target;\n        emit allowedAccessToArtwork(artwork, target);\n    }\n\n    function revokeAccessToArtwork(bytes32 artwork) external {\n        assert(registeredArtworks[artwork].property == msg.sender);\n        emit deniedAccessToArtwork(artwork, registeredArtworks[artwork].possession);\n        registeredArtworks[artwork].possession = msg.sender;\n    }\n\n    function donateWorkOfArt(bytes32 artwork, address _to) external{\n        require(registeredArtworks[artwork].property == msg.sender, \"You are not the owner of the selected artowork\");\n        //require is verified\n        registeredArtworks[artwork].property = _to;\n        emit donatedArtwork(artwork, _to);\n    }\n\n    function getProperty(bytes32 artwork) external view returns(address){\n        return registeredArtworks[artwork].property;\n    }\n\n    function terminate() public {\n        require(msg.sender == creator, \"You cannot terminate the contract!\");\n        selfdestruct(payable(creator));\n    }\n}\n",
  "sourcePath": "/Users/MichaelPlug/Documents/DArt/Truffle/contracts/DArt.sol",
  "compiler": {
    "name": "solc",
    "version": "0.8.17+commit.8df45f5f.Emscripten.clang"
  },
  "schemaVersion": "3.4.11",
  "updatedAt": "2023-01-13T16:58:35.888Z",
  "networkType": "ethereum",
  "devdoc": {
    "kind": "dev",
    "methods": {
      "hashTextAndAddress(bytes32)": {
        "params": {
          "hashedName": "the hashed string that have to be hashed with the msg.sender"
        }
      },
      "mintArtworkNFT(bytes32)": {
        "params": {
          "hashedName": "name of the artwork hashed using keccak256"
        }
      },
      "mintExibitionNFT(bytes32,bool)": {
        "params": {
          "hashedName": "the Exibition's name hashed using keccak256",
          "status": "indicates the status of the creare exibition, if it's on or not"
        }
      }
    },
    "version": 1
  },
  "userdoc": {
    "kind": "user",
    "methods": {
      "hashTextAndAddress(bytes32)": {
        "notice": "a pure faction to hash a string and the address of the caller, used to create univoque ids"
      },
      "mintArtworkNFT(bytes32)": {
        "notice": "mint an Artwork NFT. The id of the NFT is the hash of its name and the minter address."
      },
      "mintExibitionNFT(bytes32,bool)": {
        "notice": "mint an Exibition NFT. The id of the NFT is the hash of its name and the minter address."
      }
    },
    "version": 1
  }
}