{
  "contractName": "DArt",
  "abi": [
    {
      "inputs": [],
      "stateMutability": "nonpayable",
      "type": "constructor"
    },
    {
      "inputs": [],
      "name": "creator",
      "outputs": [
        {
          "internalType": "address",
          "name": "",
          "type": "address"
        }
      ],
      "stateMutability": "view",
      "type": "function",
      "constant": true
    },
    {
      "inputs": [],
      "name": "dcoin",
      "outputs": [
        {
          "internalType": "contract DCoin",
          "name": "",
          "type": "address"
        }
      ],
      "stateMutability": "view",
      "type": "function",
      "constant": true
    },
    {
      "inputs": [],
      "name": "patron",
      "outputs": [
        {
          "internalType": "contract Patron",
          "name": "",
          "type": "address"
        }
      ],
      "stateMutability": "view",
      "type": "function",
      "constant": true
    },
    {
      "inputs": [
        {
          "internalType": "bytes32",
          "name": "",
          "type": "bytes32"
        }
      ],
      "name": "registerdActivities",
      "outputs": [
        {
          "internalType": "address",
          "name": "author",
          "type": "address"
        },
        {
          "internalType": "uint256",
          "name": "timestamp",
          "type": "uint256"
        },
        {
          "internalType": "enum DArt.ProtectionActivities",
          "name": "typology",
          "type": "uint8"
        },
        {
          "internalType": "bytes32",
          "name": "extraInfo",
          "type": "bytes32"
        }
      ],
      "stateMutability": "view",
      "type": "function",
      "constant": true
    },
    {
      "inputs": [
        {
          "internalType": "bytes32",
          "name": "",
          "type": "bytes32"
        }
      ],
      "name": "registerdExibitions",
      "outputs": [
        {
          "internalType": "bytes32",
          "name": "hashedName",
          "type": "bytes32"
        },
        {
          "internalType": "address",
          "name": "organizer",
          "type": "address"
        },
        {
          "internalType": "bool",
          "name": "isOn",
          "type": "bool"
        }
      ],
      "stateMutability": "view",
      "type": "function",
      "constant": true
    },
    {
      "inputs": [
        {
          "internalType": "bytes32",
          "name": "",
          "type": "bytes32"
        }
      ],
      "name": "registeredArtworks",
      "outputs": [
        {
          "internalType": "bytes32",
          "name": "hashedName",
          "type": "bytes32"
        },
        {
          "internalType": "address",
          "name": "minter",
          "type": "address"
        },
        {
          "internalType": "address",
          "name": "property",
          "type": "address"
        },
        {
          "internalType": "address",
          "name": "possession",
          "type": "address"
        },
        {
          "internalType": "bytes32",
          "name": "exposedAt",
          "type": "bytes32"
        },
        {
          "internalType": "bytes32",
          "name": "status",
          "type": "bytes32"
        }
      ],
      "stateMutability": "view",
      "type": "function",
      "constant": true
    },
    {
      "inputs": [],
      "name": "verification",
      "outputs": [
        {
          "internalType": "contract Verification",
          "name": "",
          "type": "address"
        }
      ],
      "stateMutability": "view",
      "type": "function",
      "constant": true
    },
    {
      "inputs": [
        {
          "internalType": "address",
          "name": "dcoinad",
          "type": "address"
        },
        {
          "internalType": "address",
          "name": "verificationad",
          "type": "address"
        },
        {
          "internalType": "address",
          "name": "patronad",
          "type": "address"
        }
      ],
      "name": "setContracts",
      "outputs": [],
      "stateMutability": "nonpayable",
      "type": "function"
    },
    {
      "inputs": [
        {
          "internalType": "bytes32",
          "name": "hashedName",
          "type": "bytes32"
        }
      ],
      "name": "hashTextAndAddress",
      "outputs": [
        {
          "internalType": "bytes32",
          "name": "",
          "type": "bytes32"
        }
      ],
      "stateMutability": "view",
      "type": "function",
      "constant": true
    },
    {
      "inputs": [
        {
          "internalType": "bytes32",
          "name": "hashedName",
          "type": "bytes32"
        }
      ],
      "name": "mintArtworkNFT",
      "outputs": [],
      "stateMutability": "nonpayable",
      "type": "function"
    },
    {
      "inputs": [
        {
          "internalType": "bytes32",
          "name": "hashedName",
          "type": "bytes32"
        },
        {
          "internalType": "bool",
          "name": "status",
          "type": "bool"
        }
      ],
      "name": "mintExibitionNFT",
      "outputs": [],
      "stateMutability": "nonpayable",
      "type": "function"
    },
    {
      "inputs": [
        {
          "internalType": "bytes32",
          "name": "exibitionID",
          "type": "bytes32"
        }
      ],
      "name": "endExibition",
      "outputs": [],
      "stateMutability": "nonpayable",
      "type": "function"
    },
    {
      "inputs": [
        {
          "internalType": "bytes32",
          "name": "artworkID",
          "type": "bytes32"
        },
        {
          "internalType": "bytes32",
          "name": "exibitionID",
          "type": "bytes32"
        }
      ],
      "name": "exposeArtwork",
      "outputs": [],
      "stateMutability": "nonpayable",
      "type": "function"
    },
    {
      "inputs": [
        {
          "internalType": "bytes32",
          "name": "artworkID",
          "type": "bytes32"
        }
      ],
      "name": "removeArtworkFromExibition",
      "outputs": [],
      "stateMutability": "nonpayable",
      "type": "function"
    },
    {
      "inputs": [
        {
          "internalType": "bytes32",
          "name": "artworkID",
          "type": "bytes32"
        },
        {
          "internalType": "enum DArt.ProtectionActivities",
          "name": "oftype",
          "type": "uint8"
        },
        {
          "internalType": "bytes32",
          "name": "extrainfo",
          "type": "bytes32"
        }
      ],
      "name": "mintActivity",
      "outputs": [],
      "stateMutability": "nonpayable",
      "type": "function"
    },
    {
      "inputs": [
        {
          "internalType": "address",
          "name": "target",
          "type": "address"
        },
        {
          "internalType": "bytes32",
          "name": "artwork",
          "type": "bytes32"
        }
      ],
      "name": "allowAccessToArtwork",
      "outputs": [],
      "stateMutability": "nonpayable",
      "type": "function"
    },
    {
      "inputs": [
        {
          "internalType": "bytes32",
          "name": "artwork",
          "type": "bytes32"
        }
      ],
      "name": "revokeAccessToArtwork",
      "outputs": [],
      "stateMutability": "nonpayable",
      "type": "function"
    },
    {
      "inputs": [
        {
          "internalType": "bytes32",
          "name": "artwork",
          "type": "bytes32"
        },
        {
          "internalType": "address",
          "name": "_to",
          "type": "address"
        }
      ],
      "name": "donateWorkOfArt",
      "outputs": [],
      "stateMutability": "nonpayable",
      "type": "function"
    },
    {
      "inputs": [
        {
          "internalType": "bytes32",
          "name": "artwork",
          "type": "bytes32"
        }
      ],
      "name": "getProperty",
      "outputs": [
        {
          "internalType": "address",
          "name": "",
          "type": "address"
        }
      ],
      "stateMutability": "view",
      "type": "function",
      "constant": true
    },
    {
      "inputs": [],
      "name": "terminate",
      "outputs": [],
      "stateMutability": "nonpayable",
      "type": "function"
    }
  ],
  "bytecode": "0x608060405234801561001057600080fd5b50336000806101000a81548173ffffffffffffffffffffffffffffffffffffffff021916908373ffffffffffffffffffffffffffffffffffffffff1602179055506125e7806100606000396000f3fe608060405234801561001057600080fd5b506004361061012c5760003560e01c806373150fa3116100ad578063ece9795a11610071578063ece9795a1461030c578063f4edcb4a1461033c578063f9b8211814610358578063fc13ae2914610374578063ff9ebc51146103905761012c565b806373150fa3146102695780637f9574cb1461029c578063b3066d49146102b8578063b7836c06146102d4578063d0565e3e146102f05761012c565b8063463f7a89116100f4578063463f7a89146101af5780634ffe2a8b146101df57806362df36e9146101fd57806370ef131e1461022f5780637278b2f21461024d5761012c565b806302d05d3f146101315780630ba32b271461014f5780630c08bf881461016d578063120570eb1461017757806345d8d1ce14610193575b600080fd5b6101396103c5565b6040516101469190611875565b60405180910390f35b6101576103e9565b60405161016491906118ef565b60405180910390f35b61017561040f565b005b610191600480360381019061018c9190611945565b6104d6565b005b6101ad60048036038101906101a89190611997565b6105ac565b005b6101c960048036038101906101c49190611945565b6109b8565b6040516101d69190611875565b60405180910390f35b6101e76109f8565b6040516101f49190611a0b565b60405180910390f35b61021760048036038101906102129190611945565b610a1e565b60405161022693929190611a50565b60405180910390f35b610237610a75565b6040516102449190611aa8565b60405180910390f35b61026760048036038101906102629190611aef565b610a9b565b005b610283600480360381019061027e9190611945565b610b98565b6040516102939493929190611bbf565b60405180910390f35b6102b660048036038101906102b19190611945565b610bf5565b005b6102d260048036038101906102cd9190611c04565b610cba565b005b6102ee60048036038101906102e99190611c57565b610e10565b005b61030a60048036038101906103059190611945565b610fda565b005b61032660048036038101906103219190611945565b611350565b6040516103339190611c97565b60405180910390f35b61035660048036038101906103519190611cde565b611382565b005b610372600480360381019061036d9190611945565b611603565b005b61038e60048036038101906103899190611d1e565b6116cd565b005b6103aa60048036038101906103a59190611945565b611798565b6040516103bc96959493929190611d5e565b60405180910390f35b60008054906101000a900473ffffffffffffffffffffffffffffffffffffffff1681565b600660009054906101000a900473ffffffffffffffffffffffffffffffffffffffff1681565b60008054906101000a900473ffffffffffffffffffffffffffffffffffffffff1673ffffffffffffffffffffffffffffffffffffffff163373ffffffffffffffffffffffffffffffffffffffff161461049d576040517f08c379a000000000000000000000000000000000000000000000000000000000815260040161049490611e42565b60405180910390fd5b60008054906101000a900473ffffffffffffffffffffffffffffffffffffffff1673ffffffffffffffffffffffffffffffffffffffff16ff5b3373ffffffffffffffffffffffffffffffffffffffff166002600083815260200190815260200160002060010160009054906101000a900473ffffffffffffffffffffffffffffffffffffffff1673ffffffffffffffffffffffffffffffffffffffff161461057a576040517f08c379a000000000000000000000000000000000000000000000000000000000815260040161057190611ed4565b60405180910390fd5b60006002600083815260200190815260200160002060010160146101000a81548160ff02191690831515021790555050565b6000600460009054906101000a900473ffffffffffffffffffffffffffffffffffffffff1673ffffffffffffffffffffffffffffffffffffffff166344276733336040518263ffffffff1660e01b81526004016106099190611875565b602060405180830381865afa158015610626573d6000803e3d6000fd5b505050506040513d601f19601f8201168201806040525081019061064a9190611f20565b90506004811461065d5761065c611f4d565b5b3373ffffffffffffffffffffffffffffffffffffffff166001600086815260200190815260200160002060030160009054906101000a900473ffffffffffffffffffffffffffffffffffffffff1673ffffffffffffffffffffffffffffffffffffffff1614610701576040517f08c379a00000000000000000000000000000000000000000000000000000000081526004016106f890612014565b60405180910390fd5b6000334260405160200161071692919061209d565b60405160208183030381529060405280519060200120905080600160008781526020019081526020016000206005018190555060405180608001604052803373ffffffffffffffffffffffffffffffffffffffff16815260200142815260200185600581111561078957610788611b48565b5b8152602001848152506003600083815260200190815260200160002060008201518160000160006101000a81548173ffffffffffffffffffffffffffffffffffffffff021916908373ffffffffffffffffffffffffffffffffffffffff1602179055506020820151816001015560408201518160020160006101000a81548160ff0219169083600581111561082157610820611b48565b5b021790555060608201518160030155905050600560009054906101000a900473ffffffffffffffffffffffffffffffffffffffff1673ffffffffffffffffffffffffffffffffffffffff1663fcd3533c6002336040518363ffffffff1660e01b8152600401610891929190612104565b600060405180830381600087803b1580156108ab57600080fd5b505af11580156108bf573d6000803e3d6000fd5b505050506005808111156108d6576108d5611b48565b5b8460058111156108e9576108e8611b48565b5b1415801561091c57506004600581111561090657610905611b48565b5b84600581111561091957610918611b48565b5b14155b156109b157600660009054906101000a900473ffffffffffffffffffffffffffffffffffffffff1673ffffffffffffffffffffffffffffffffffffffff1663a84a163a33876040518363ffffffff1660e01b815260040161097e92919061212d565b600060405180830381600087803b15801561099857600080fd5b505af11580156109ac573d6000803e3d6000fd5b505050505b5050505050565b60006001600083815260200190815260200160002060020160009054906101000a900473ffffffffffffffffffffffffffffffffffffffff169050919050565b600460009054906101000a900473ffffffffffffffffffffffffffffffffffffffff1681565b60026020528060005260406000206000915090508060000154908060010160009054906101000a900473ffffffffffffffffffffffffffffffffffffffff16908060010160149054906101000a900460ff16905083565b600560009054906101000a900473ffffffffffffffffffffffffffffffffffffffff1681565b3373ffffffffffffffffffffffffffffffffffffffff166001600084815260200190815260200160002060020160009054906101000a900473ffffffffffffffffffffffffffffffffffffffff1673ffffffffffffffffffffffffffffffffffffffff1614610b3f576040517f08c379a0000000000000000000000000000000000000000000000000000000008152600401610b36906121c8565b60405180910390fd5b806001600084815260200190815260200160002060020160006101000a81548173ffffffffffffffffffffffffffffffffffffffff021916908373ffffffffffffffffffffffffffffffffffffffff1602179055505050565b60036020528060005260406000206000915090508060000160009054906101000a900473ffffffffffffffffffffffffffffffffffffffff16908060010154908060020160009054906101000a900460ff16908060030154905084565b3373ffffffffffffffffffffffffffffffffffffffff166001600083815260200190815260200160002060030160009054906101000a900473ffffffffffffffffffffffffffffffffffffffff1673ffffffffffffffffffffffffffffffffffffffff1614610c99576040517f08c379a0000000000000000000000000000000000000000000000000000000008152600401610c909061225a565b60405180910390fd5b6000801b600160008381526020019081526020016000206004018190555050565b60008054906101000a900473ffffffffffffffffffffffffffffffffffffffff1673ffffffffffffffffffffffffffffffffffffffff163373ffffffffffffffffffffffffffffffffffffffff1614610d48576040517f08c379a0000000000000000000000000000000000000000000000000000000008152600401610d3f906122ec565b60405180910390fd5b82600560006101000a81548173ffffffffffffffffffffffffffffffffffffffff021916908373ffffffffffffffffffffffffffffffffffffffff16021790555081600460006101000a81548173ffffffffffffffffffffffffffffffffffffffff021916908373ffffffffffffffffffffffffffffffffffffffff16021790555080600660006101000a81548173ffffffffffffffffffffffffffffffffffffffff021916908373ffffffffffffffffffffffffffffffffffffffff160217905550505050565b3373ffffffffffffffffffffffffffffffffffffffff166001600084815260200190815260200160002060020160009054906101000a900473ffffffffffffffffffffffffffffffffffffffff1673ffffffffffffffffffffffffffffffffffffffff1614610eb4576040517f08c379a0000000000000000000000000000000000000000000000000000000008152600401610eab9061237e565b60405180910390fd5b6002600082815260200190815260200160002060010160149054906101000a900460ff16610f17576040517f08c379a0000000000000000000000000000000000000000000000000000000008152600401610f0e906123ea565b60405180910390fd5b3373ffffffffffffffffffffffffffffffffffffffff166002600083815260200190815260200160002060010160009054906101000a900473ffffffffffffffffffffffffffffffffffffffff1673ffffffffffffffffffffffffffffffffffffffff1614610fbb576040517f08c379a0000000000000000000000000000000000000000000000000000000008152600401610fb2906123ea565b60405180910390fd5b8060016000848152602001908152602001600020600401819055505050565b6000600460009054906101000a900473ffffffffffffffffffffffffffffffffffffffff1673ffffffffffffffffffffffffffffffffffffffff166344276733336040518263ffffffff1660e01b81526004016110379190611875565b602060405180830381865afa158015611054573d6000803e3d6000fd5b505050506040513d601f19601f820116820180604052508101906110789190611f20565b90506004811061108b5761108a611f4d565b5b600061109683611350565b9050600073ffffffffffffffffffffffffffffffffffffffff166001600083815260200190815260200160002060010160009054906101000a900473ffffffffffffffffffffffffffffffffffffffff1673ffffffffffffffffffffffffffffffffffffffff161461113d576040517f08c379a00000000000000000000000000000000000000000000000000000000081526004016111349061247c565b60405180910390fd5b600560009054906101000a900473ffffffffffffffffffffffffffffffffffffffff1673ffffffffffffffffffffffffffffffffffffffff1663fcd3533c6000336040518363ffffffff1660e01b815260040161119b9291906124d7565b600060405180830381600087803b1580156111b557600080fd5b505af11580156111c9573d6000803e3d6000fd5b505050506040518060c001604052808481526020013373ffffffffffffffffffffffffffffffffffffffff1681526020013373ffffffffffffffffffffffffffffffffffffffff1681526020013373ffffffffffffffffffffffffffffffffffffffff1681526020016000801b81526020016000801b815250600160008381526020019081526020016000206000820151816000015560208201518160010160006101000a81548173ffffffffffffffffffffffffffffffffffffffff021916908373ffffffffffffffffffffffffffffffffffffffff16021790555060408201518160020160006101000a81548173ffffffffffffffffffffffffffffffffffffffff021916908373ffffffffffffffffffffffffffffffffffffffff16021790555060608201518160030160006101000a81548173ffffffffffffffffffffffffffffffffffffffff021916908373ffffffffffffffffffffffffffffffffffffffff1602179055506080820151816004015560a08201518160050155905050505050565b60008133604051602001611365929190612521565b604051602081830303815290604052805190602001209050919050565b6000600460009054906101000a900473ffffffffffffffffffffffffffffffffffffffff1673ffffffffffffffffffffffffffffffffffffffff166344276733336040518263ffffffff1660e01b81526004016113df9190611875565b602060405180830381865afa1580156113fc573d6000803e3d6000fd5b505050506040513d601f19601f820116820180604052508101906114209190611f20565b90506002811061143357611432611f4d565b5b600061143e84611350565b9050600073ffffffffffffffffffffffffffffffffffffffff166001600083815260200190815260200160002060010160009054906101000a900473ffffffffffffffffffffffffffffffffffffffff1673ffffffffffffffffffffffffffffffffffffffff16146114b3576114b2611f4d565b5b600560009054906101000a900473ffffffffffffffffffffffffffffffffffffffff1673ffffffffffffffffffffffffffffffffffffffff1663fcd3533c6001336040518363ffffffff1660e01b8152600401611511929190612588565b600060405180830381600087803b15801561152b57600080fd5b505af115801561153f573d6000803e3d6000fd5b5050505060405180606001604052808581526020013373ffffffffffffffffffffffffffffffffffffffff168152602001841515815250600260008381526020019081526020016000206000820151816000015560208201518160010160006101000a81548173ffffffffffffffffffffffffffffffffffffffff021916908373ffffffffffffffffffffffffffffffffffffffff16021790555060408201518160010160146101000a81548160ff02191690831515021790555090505050505050565b3373ffffffffffffffffffffffffffffffffffffffff166001600083815260200190815260200160002060020160009054906101000a900473ffffffffffffffffffffffffffffffffffffffff1673ffffffffffffffffffffffffffffffffffffffff161461167557611674611f4d565b5b336001600083815260200190815260200160002060030160006101000a81548173ffffffffffffffffffffffffffffffffffffffff021916908373ffffffffffffffffffffffffffffffffffffffff16021790555050565b3373ffffffffffffffffffffffffffffffffffffffff166001600083815260200190815260200160002060020160009054906101000a900473ffffffffffffffffffffffffffffffffffffffff1673ffffffffffffffffffffffffffffffffffffffff161461173f5761173e611f4d565b5b816001600083815260200190815260200160002060030160006101000a81548173ffffffffffffffffffffffffffffffffffffffff021916908373ffffffffffffffffffffffffffffffffffffffff1602179055505050565b60016020528060005260406000206000915090508060000154908060010160009054906101000a900473ffffffffffffffffffffffffffffffffffffffff16908060020160009054906101000a900473ffffffffffffffffffffffffffffffffffffffff16908060030160009054906101000a900473ffffffffffffffffffffffffffffffffffffffff16908060040154908060050154905086565b600073ffffffffffffffffffffffffffffffffffffffff82169050919050565b600061185f82611834565b9050919050565b61186f81611854565b82525050565b600060208201905061188a6000830184611866565b92915050565b6000819050919050565b60006118b56118b06118ab84611834565b611890565b611834565b9050919050565b60006118c78261189a565b9050919050565b60006118d9826118bc565b9050919050565b6118e9816118ce565b82525050565b600060208201905061190460008301846118e0565b92915050565b600080fd5b6000819050919050565b6119228161190f565b811461192d57600080fd5b50565b60008135905061193f81611919565b92915050565b60006020828403121561195b5761195a61190a565b5b600061196984828501611930565b91505092915050565b6006811061197f57600080fd5b50565b60008135905061199181611972565b92915050565b6000806000606084860312156119b0576119af61190a565b5b60006119be86828701611930565b93505060206119cf86828701611982565b92505060406119e086828701611930565b9150509250925092565b60006119f5826118bc565b9050919050565b611a05816119ea565b82525050565b6000602082019050611a2060008301846119fc565b92915050565b611a2f8161190f565b82525050565b60008115159050919050565b611a4a81611a35565b82525050565b6000606082019050611a656000830186611a26565b611a726020830185611866565b611a7f6040830184611a41565b949350505050565b6000611a92826118bc565b9050919050565b611aa281611a87565b82525050565b6000602082019050611abd6000830184611a99565b92915050565b611acc81611854565b8114611ad757600080fd5b50565b600081359050611ae981611ac3565b92915050565b60008060408385031215611b0657611b0561190a565b5b6000611b1485828601611930565b9250506020611b2585828601611ada565b9150509250929050565b6000819050919050565b611b4281611b2f565b82525050565b7f4e487b7100000000000000000000000000000000000000000000000000000000600052602160045260246000fd5b60068110611b8857611b87611b48565b5b50565b6000819050611b9982611b77565b919050565b6000611ba982611b8b565b9050919050565b611bb981611b9e565b82525050565b6000608082019050611bd46000830187611866565b611be16020830186611b39565b611bee6040830185611bb0565b611bfb6060830184611a26565b95945050505050565b600080600060608486031215611c1d57611c1c61190a565b5b6000611c2b86828701611ada565b9350506020611c3c86828701611ada565b9250506040611c4d86828701611ada565b9150509250925092565b60008060408385031215611c6e57611c6d61190a565b5b6000611c7c85828601611930565b9250506020611c8d85828601611930565b9150509250929050565b6000602082019050611cac6000830184611a26565b92915050565b611cbb81611a35565b8114611cc657600080fd5b50565b600081359050611cd881611cb2565b92915050565b60008060408385031215611cf557611cf461190a565b5b6000611d0385828601611930565b9250506020611d1485828601611cc9565b9150509250929050565b60008060408385031215611d3557611d3461190a565b5b6000611d4385828601611ada565b9250506020611d5485828601611930565b9150509250929050565b600060c082019050611d736000830189611a26565b611d806020830188611866565b611d8d6040830187611866565b611d9a6060830186611866565b611da76080830185611a26565b611db460a0830184611a26565b979650505050505050565b600082825260208201905092915050565b7f596f752063616e6e6f74207465726d696e6174652074686520636f6e7472616360008201527f7421000000000000000000000000000000000000000000000000000000000000602082015250565b6000611e2c602283611dbf565b9150611e3782611dd0565b604082019050919050565b60006020820190508181036000830152611e5b81611e1f565b9050919050565b7f596f7520646f206e6f74206861766520746865206e656365737361727920706560008201527f726d697373696f6e7320746f20656e64207468697320657869626974696f6e00602082015250565b6000611ebe603f83611dbf565b9150611ec982611e62565b604082019050919050565b60006020820190508181036000830152611eed81611eb1565b9050919050565b611efd81611b2f565b8114611f0857600080fd5b50565b600081519050611f1a81611ef4565b92915050565b600060208284031215611f3657611f3561190a565b5b6000611f4484828501611f0b565b91505092915050565b7f4e487b7100000000000000000000000000000000000000000000000000000000600052600160045260246000fd5b7f596f7520646f206e6f74206861766520746865206e656365737361727920706560008201527f726d697373696f6e7320746f2063726561746520616e2041637469766974792060208201527f61626f7574207468697320617274776f726b0000000000000000000000000000604082015250565b6000611ffe605283611dbf565b915061200982611f7c565b606082019050919050565b6000602082019050818103600083015261202d81611ff1565b9050919050565b60008160601b9050919050565b600061204c82612034565b9050919050565b600061205e82612041565b9050919050565b61207661207182611854565b612053565b82525050565b6000819050919050565b61209761209282611b2f565b61207c565b82525050565b60006120a98285612065565b6014820191506120b98284612086565b6020820191508190509392505050565b6000819050919050565b60006120ee6120e96120e4846120c9565b611890565b611b2f565b9050919050565b6120fe816120d3565b82525050565b600060408201905061211960008301856120f5565b6121266020830184611866565b9392505050565b60006040820190506121426000830185611866565b61214f6020830184611a26565b9392505050565b7f596f7520617265206e6f7420746865206f776e6572206f66207468652073656c60008201527f6563746564206172746f776f726b000000000000000000000000000000000000602082015250565b60006121b2602e83611dbf565b91506121bd82612156565b604082019050919050565b600060208201905081810360008301526121e1816121a5565b9050919050565b7f596f7520646f206e6f74206861766520746865206e656365737361727920706560008201527f726d697373696f6e7320746f2072656d6f7665207468697320617274776f726b602082015250565b6000612244604083611dbf565b915061224f826121e8565b604082019050919050565b6000602082019050818103600083015261227381612237565b9050919050565b7f4f6e6c79207468652063726561746f722063616e207365742074686520636f6e60008201527f7472616374730000000000000000000000000000000000000000000000000000602082015250565b60006122d6602683611dbf565b91506122e18261227a565b604082019050919050565b60006020820190508181036000830152612305816122c9565b9050919050565b7f596f7520646f206e6f74206861766520746865206e656365737361727920706560008201527f726d697373696f6e7320746f206578706f7365207468697320617274776f726b602082015250565b6000612368604083611dbf565b91506123738261230c565b604082019050919050565b600060208201905081810360008301526123978161235b565b9050919050565b7f54686520657869626974696f6e206973206e6f74206f6e000000000000000000600082015250565b60006123d4601783611dbf565b91506123df8261239e565b602082019050919050565b60006020820190508181036000830152612403816123c7565b9050919050565b7f4120636f6c6c6973696f6e20647572696e672068617368696e67206f6363757260008201527f7265640000000000000000000000000000000000000000000000000000000000602082015250565b6000612466602383611dbf565b91506124718261240a565b604082019050919050565b6000602082019050818103600083015261249581612459565b9050919050565b6000819050919050565b60006124c16124bc6124b78461249c565b611890565b611b2f565b9050919050565b6124d1816124a6565b82525050565b60006040820190506124ec60008301856124c8565b6124f96020830184611866565b9392505050565b6000819050919050565b61251b6125168261190f565b612500565b82525050565b600061252d828561250a565b60208201915061253d8284612065565b6014820191508190509392505050565b6000819050919050565b600061257261256d6125688461254d565b611890565b611b2f565b9050919050565b61258281612557565b82525050565b600060408201905061259d6000830185612579565b6125aa6020830184611866565b939250505056fea26469706673582212201192bf2baf3dc73efe373731d2e9f17257e6c81116f57072045fabbff6fe73fb64736f6c63430008110033",
  "immutableReferences": {},
  "source": "//for compability reasons, we work only with these versions\npragma solidity >=0.7.0 < 0.9.0;\n\n\nimport \"./Verification.sol\";\nimport \"./Patron.sol\";\nimport \"./DCoin.sol\";\n\n//we have objects to work with\ncontract DArt {\n\n    //event ProtectionActivityStarted(Artwork indexed artwork);\n\n    //we have a struct to store the data about artworks\n    struct Artwork {\n        bytes32 hashedName;\n        address minter; //the address of the museum that minted the artwork\n        address property;\n        address possession;\n        bytes32 exposedAt; // Da vedere come gestire lo storico delle esposizioni\n        bytes32 status; // Da vedere come gestire lo storico delle operazioni\n    }\n\n    // A struct to collect information about exibitions\n    struct Exibition {\n        bytes32 hashedName;\n        address organizer;\n        bool isOn; \n    }\n\n    struct Activity{\n        // bytes32 artworkId;\n        address author;\n        uint timestamp;\n        ProtectionActivities typology;\n        bytes32 extraInfo;\n    }\n    \n    // This enum indicates the type of operation applied to and update of an artwork\n    enum ProtectionActivities {\n        PREVENTION,\n        PROTECTIOIN,\n        MAINTAINANCE,\n        RESTAURATION,\n        DAMAGE,\n        UPDATE\n    }\n\n    //this is the address of the creator MAYBE PRIVATE, namely the owner\n    //of the smart contract that it can do some special actions\n    address public creator;\n\n    mapping (bytes32 => Artwork) public registeredArtworks;\n    mapping (bytes32 => Exibition) public registerdExibitions;\n    mapping (bytes32 => Activity) public registerdActivities;\n\n    /*\n    address public constant dcoinSmartcontract;\n    address public constant verificatioSmartcontract; \n    address public constant patronSmartcontract;\n    */\n\n    //         mainSmartcontract.call(abi.encodeWithSignature(\"setCostOfServices(uint[3])\", [1,2,3]));\n\n    Verification public verification;\n    DCoin public dcoin;\n    Patron public patron;   \n  \n\n\n    //the first time that we call che smart contract we need to save which is the\n    //creator, because it can do after some important actions\n    constructor(){\n        //so we save the address of the creator, one time and forever\n        /*\n        dcoin = dcoinSmartcontract;\n        verification = verificatioSmartcontract;\n        patron = patronSmartcontract;\n        */\n        creator = msg.sender;\n        //dcoin.setContrats(address(Patron(address(patron))));\n    }\n\n    function setContracts(address dcoinad, address verificationad, address patronad) external{\n        require(msg.sender == creator, \"Only the creator can set the contracts\");\n        dcoin = DCoin(dcoinad);\n        verification = Verification(verificationad);\n        patron = Patron(patronad);\n    }\n\n    /**\n        @notice a pure faction to hash a string and the address of the caller, used to create univoque ids\n        @param hashedName the hashed string that have to be hashed with the msg.sender\n     */\n     // Dovrebbe essere pure ma da errore\n    function hashTextAndAddress(bytes32 hashedName) public view returns(bytes32) {\n        return keccak256(abi.encodePacked(hashedName, msg.sender));\n    }\n\n    function checkWallet() internal view {\n        //(bool success, bytes memory data) = verification.call(abi.encodeWithSignature(\"isVerified(address)\",msg.sender));\n        require(verification.isVerified(msg.sender), \"Sender's wallet is not verifed\");\n        //assert(verification.isVerified(msg.sender));\n        /*assert(\n            verificationSmartcontract.call(aby.encodingWithSignature(\"isVerified(address)\",msg.sender)),\n            \"Sender's wallet is not verifed\");*/\n    }\n\n    //called by a museum, to add an artwork in blockchain (MAYBE TO DO\n    /**\n        @notice mint an Artwork NFT. The id of the NFT is the hash of its name and the minter address.\n        @param hashedName name of the artwork hashed using keccak256\n     */    \n    function mintArtworkNFT(bytes32 hashedName) external {\n        uint role = verification.getRole(msg.sender);\n        assert(role < 4);\n        bytes32 kek = hashTextAndAddress(hashedName);\n        require(registeredArtworks[kek].minter == address(0x0), \"A collision during hashing occurred\");\n        dcoin.burn(0, msg.sender);   \n        registeredArtworks[kek] = Artwork(hashedName, msg.sender, msg.sender, msg.sender, 0, 0);\n    }\n\n    /**\n        @notice mint an Exibition NFT. The id of the NFT is the hash of its name and the minter address.\n        @param hashedName the Exibition's name hashed using keccak256\n        @param status indicates the status of the creare exibition, if it's on or not\n     */\n    function mintExibitionNFT(bytes32 hashedName, bool status) external {\n        uint role = verification.getRole(msg.sender);\n        assert(role < 2);\n        bytes32 kek = hashTextAndAddress(hashedName);\n        assert(registeredArtworks[kek].minter == address(0x0));\n        dcoin.burn(1, msg.sender);\n        registerdExibitions[kek] = Exibition(hashedName, msg.sender, status);\n    }\n\n    function endExibition(bytes32 exibitionID) external {\n        require(registerdExibitions[exibitionID].organizer == msg.sender, \"You do not have the necessary permissions to end this exibition\");\n        registerdExibitions[exibitionID].isOn = false;\n    }\n\n    function exposeArtwork(bytes32 artworkID, bytes32 exibitionID) external {\n        require(registeredArtworks[artworkID].property == msg.sender, \"You do not have the necessary permissions to expose this artwork\");\n        require(registerdExibitions[exibitionID].isOn, \"The exibition is not on\");\n        require(registerdExibitions[exibitionID].organizer == msg.sender, \"The exibition is not on\");\n        registeredArtworks[artworkID].exposedAt = exibitionID;\n    }\n\n    function removeArtworkFromExibition(bytes32 artworkID) external {\n        require(registeredArtworks[artworkID].possession == msg.sender, \"You do not have the necessary permissions to remove this artwork\");\n        registeredArtworks[artworkID].exposedAt = bytes32(0x0);\n    }\n\n    function mintActivity(bytes32 artworkID, ProtectionActivities oftype, bytes32 extrainfo) external{\n        uint role = verification.getRole(msg.sender);\n        assert(role == 4);\n        require(registeredArtworks[artworkID].possession == msg.sender,  \"You do not have the necessary permissions to create an Activity about this artwork\");\n        bytes32 kek = keccak256(abi.encodePacked(msg.sender, block.timestamp));\n        registeredArtworks[artworkID].status =   kek;\n        registerdActivities[kek] = Activity(msg.sender, block.timestamp, oftype, extrainfo);  \n        dcoin.burn(2,msg.sender);\n        if (oftype != ProtectionActivities.UPDATE && oftype != ProtectionActivities.DAMAGE){\n            patron.moveFunds(msg.sender, artworkID);\n        }\n    }\n\n    function allowAccessToArtwork(address target, bytes32 artwork) external {\n        //assert(museums[target].verified);\n        assert(registeredArtworks[artwork].property == msg.sender);\n        registeredArtworks[artwork].possession = target;\n    }\n\n    function revokeAccessToArtwork(bytes32 artwork) external {\n        assert(registeredArtworks[artwork].property == msg.sender);\n        registeredArtworks[artwork].possession = msg.sender;\n    }\n\n    function donateWorkOfArt(bytes32 artwork, address _to) external{\n        require(registeredArtworks[artwork].property == msg.sender, \"You are not the owner of the selected artowork\");\n        //require is verified\n        registeredArtworks[artwork].property = _to;\n    }\n\n    function getProperty(bytes32 artwork) external view returns(address){\n        return registeredArtworks[artwork].property;\n    }\n\n    function terminate() public {\n        require(msg.sender == creator, \"You cannot terminate the contract!\");\n        selfdestruct(payable(creator));\n    }\n}\n",
  "sourcePath": "/Users/MichaelPlug/Documents/DArt/Truffle/contracts/DArt.sol",
  "compiler": {
    "name": "solc",
    "version": "0.8.17+commit.8df45f5f.Emscripten.clang"
  },
  "schemaVersion": "3.4.11",
  "updatedAt": "2023-01-12T17:36:57.187Z",
  "networkType": "ethereum",
  "devdoc": {
    "kind": "dev",
    "methods": {
      "hashTextAndAddress(bytes32)": {
        "params": {
          "hashedName": "the hashed string that have to be hashed with the msg.sender"
        }
      },
      "mintArtworkNFT(bytes32)": {
        "params": {
          "hashedName": "name of the artwork hashed using keccak256"
        }
      },
      "mintExibitionNFT(bytes32,bool)": {
        "params": {
          "hashedName": "the Exibition's name hashed using keccak256",
          "status": "indicates the status of the creare exibition, if it's on or not"
        }
      }
    },
    "version": 1
  },
  "userdoc": {
    "kind": "user",
    "methods": {
      "hashTextAndAddress(bytes32)": {
        "notice": "a pure faction to hash a string and the address of the caller, used to create univoque ids"
      },
      "mintArtworkNFT(bytes32)": {
        "notice": "mint an Artwork NFT. The id of the NFT is the hash of its name and the minter address."
      },
      "mintExibitionNFT(bytes32,bool)": {
        "notice": "mint an Exibition NFT. The id of the NFT is the hash of its name and the minter address."
      }
    },
    "version": 1
  }
}