{
  "contractName": "DArt",
  "abi": [
    {
      "inputs": [],
      "stateMutability": "nonpayable",
      "type": "constructor"
    },
    {
      "anonymous": false,
      "inputs": [
        {
          "components": [
            {
              "internalType": "bytes32",
              "name": "hashedName",
              "type": "bytes32"
            },
            {
              "internalType": "address",
              "name": "minter",
              "type": "address"
            },
            {
              "internalType": "address",
              "name": "property",
              "type": "address"
            },
            {
              "internalType": "address",
              "name": "possession",
              "type": "address"
            },
            {
              "internalType": "bytes32",
              "name": "exposedAt",
              "type": "bytes32"
            },
            {
              "internalType": "bytes32",
              "name": "status",
              "type": "bytes32"
            }
          ],
          "indexed": true,
          "internalType": "struct DArt.Artwork",
          "name": "artwork",
          "type": "tuple"
        }
      ],
      "name": "ProtectionActivityStarted",
      "type": "event"
    },
    {
      "inputs": [],
      "name": "creator",
      "outputs": [
        {
          "internalType": "address",
          "name": "",
          "type": "address"
        }
      ],
      "stateMutability": "view",
      "type": "function",
      "constant": true
    },
    {
      "inputs": [],
      "name": "dcoin",
      "outputs": [
        {
          "internalType": "address",
          "name": "",
          "type": "address"
        }
      ],
      "stateMutability": "view",
      "type": "function",
      "constant": true
    },
    {
      "inputs": [],
      "name": "patron",
      "outputs": [
        {
          "internalType": "address",
          "name": "",
          "type": "address"
        }
      ],
      "stateMutability": "view",
      "type": "function",
      "constant": true
    },
    {
      "inputs": [
        {
          "internalType": "bytes32",
          "name": "",
          "type": "bytes32"
        }
      ],
      "name": "registerdActivities",
      "outputs": [
        {
          "internalType": "address",
          "name": "author",
          "type": "address"
        },
        {
          "internalType": "uint256",
          "name": "timestamp",
          "type": "uint256"
        },
        {
          "internalType": "enum DArt.ProtectionActivities",
          "name": "typology",
          "type": "uint8"
        },
        {
          "internalType": "bytes32",
          "name": "extraInfo",
          "type": "bytes32"
        }
      ],
      "stateMutability": "view",
      "type": "function",
      "constant": true
    },
    {
      "inputs": [
        {
          "internalType": "bytes32",
          "name": "",
          "type": "bytes32"
        }
      ],
      "name": "registerdExibitions",
      "outputs": [
        {
          "internalType": "bytes32",
          "name": "hashedName",
          "type": "bytes32"
        },
        {
          "internalType": "address",
          "name": "organizer",
          "type": "address"
        },
        {
          "internalType": "bool",
          "name": "isOn",
          "type": "bool"
        }
      ],
      "stateMutability": "view",
      "type": "function",
      "constant": true
    },
    {
      "inputs": [
        {
          "internalType": "bytes32",
          "name": "",
          "type": "bytes32"
        }
      ],
      "name": "registeredArtworks",
      "outputs": [
        {
          "internalType": "bytes32",
          "name": "hashedName",
          "type": "bytes32"
        },
        {
          "internalType": "address",
          "name": "minter",
          "type": "address"
        },
        {
          "internalType": "address",
          "name": "property",
          "type": "address"
        },
        {
          "internalType": "address",
          "name": "possession",
          "type": "address"
        },
        {
          "internalType": "bytes32",
          "name": "exposedAt",
          "type": "bytes32"
        },
        {
          "internalType": "bytes32",
          "name": "status",
          "type": "bytes32"
        }
      ],
      "stateMutability": "view",
      "type": "function",
      "constant": true
    },
    {
      "inputs": [],
      "name": "verification",
      "outputs": [
        {
          "internalType": "address",
          "name": "",
          "type": "address"
        }
      ],
      "stateMutability": "view",
      "type": "function",
      "constant": true
    },
    {
      "inputs": [
        {
          "internalType": "address",
          "name": "dcoinad",
          "type": "address"
        },
        {
          "internalType": "address",
          "name": "verificationad",
          "type": "address"
        },
        {
          "internalType": "address",
          "name": "patronad",
          "type": "address"
        }
      ],
      "name": "setContracts",
      "outputs": [],
      "stateMutability": "nonpayable",
      "type": "function"
    },
    {
      "inputs": [
        {
          "internalType": "bytes32",
          "name": "hashedName",
          "type": "bytes32"
        }
      ],
      "name": "mintArtworkNFT",
      "outputs": [],
      "stateMutability": "nonpayable",
      "type": "function"
    },
    {
      "inputs": [
        {
          "internalType": "bytes32",
          "name": "hashedName",
          "type": "bytes32"
        },
        {
          "internalType": "bool",
          "name": "status",
          "type": "bool"
        }
      ],
      "name": "mintExibitionNFT",
      "outputs": [],
      "stateMutability": "nonpayable",
      "type": "function"
    },
    {
      "inputs": [
        {
          "internalType": "bytes32",
          "name": "exibitionID",
          "type": "bytes32"
        }
      ],
      "name": "endExibition",
      "outputs": [],
      "stateMutability": "nonpayable",
      "type": "function"
    },
    {
      "inputs": [
        {
          "internalType": "bytes32",
          "name": "artworkID",
          "type": "bytes32"
        },
        {
          "internalType": "bytes32",
          "name": "exibitionID",
          "type": "bytes32"
        }
      ],
      "name": "exposeArtwork",
      "outputs": [],
      "stateMutability": "nonpayable",
      "type": "function"
    },
    {
      "inputs": [
        {
          "internalType": "bytes32",
          "name": "artworkID",
          "type": "bytes32"
        }
      ],
      "name": "removeArtworkFromExibition",
      "outputs": [],
      "stateMutability": "nonpayable",
      "type": "function"
    },
    {
      "inputs": [
        {
          "internalType": "bytes32",
          "name": "artworkID",
          "type": "bytes32"
        },
        {
          "internalType": "enum DArt.ProtectionActivities",
          "name": "oftype",
          "type": "uint8"
        },
        {
          "internalType": "bytes32",
          "name": "extrainfo",
          "type": "bytes32"
        }
      ],
      "name": "mintActivity",
      "outputs": [],
      "stateMutability": "nonpayable",
      "type": "function"
    },
    {
      "inputs": [
        {
          "internalType": "address",
          "name": "target",
          "type": "address"
        },
        {
          "internalType": "bytes32",
          "name": "artwork",
          "type": "bytes32"
        }
      ],
      "name": "allowAccessToArtwork",
      "outputs": [],
      "stateMutability": "nonpayable",
      "type": "function"
    },
    {
      "inputs": [
        {
          "internalType": "bytes32",
          "name": "artwork",
          "type": "bytes32"
        }
      ],
      "name": "revokeAccessToArtwork",
      "outputs": [],
      "stateMutability": "nonpayable",
      "type": "function"
    },
    {
      "inputs": [
        {
          "internalType": "bytes32",
          "name": "artwork",
          "type": "bytes32"
        },
        {
          "internalType": "address",
          "name": "_to",
          "type": "address"
        }
      ],
      "name": "donateWorkOfArt",
      "outputs": [],
      "stateMutability": "nonpayable",
      "type": "function"
    },
    {
      "inputs": [
        {
          "internalType": "bytes32",
          "name": "artwork",
          "type": "bytes32"
        }
      ],
      "name": "getProperty",
      "outputs": [
        {
          "internalType": "address",
          "name": "",
          "type": "address"
        }
      ],
      "stateMutability": "view",
      "type": "function",
      "constant": true
    },
    {
      "inputs": [],
      "name": "terminate",
      "outputs": [],
      "stateMutability": "nonpayable",
      "type": "function"
    }
  ],
  "bytecode": "0x608060405234801561001057600080fd5b50336000806101000a81548173ffffffffffffffffffffffffffffffffffffffff021916908373ffffffffffffffffffffffffffffffffffffffff160217905550612c4c806100606000396000f3fe608060405234801561001057600080fd5b50600436106101215760003560e01c80637278b2f2116100ad578063d0565e3e11610071578063d0565e3e146102e5578063f4edcb4a14610301578063f9b821181461031d578063fc13ae2914610339578063ff9ebc511461035557610121565b80637278b2f21461024257806373150fa31461025e5780637f9574cb14610291578063b3066d49146102ad578063b7836c06146102c957610121565b806345d8d1ce116100f457806345d8d1ce14610188578063463f7a89146101a45780634ffe2a8b146101d457806362df36e9146101f257806370ef131e1461022457610121565b806302d05d3f146101265780630ba32b27146101445780630c08bf8814610162578063120570eb1461016c575b600080fd5b61012e61038a565b60405161013b9190611e04565b60405180910390f35b61014c6103ae565b6040516101599190611e04565b60405180910390f35b61016a6103d4565b005b61018660048036038101906101819190611e5a565b61049b565b005b6101a2600480360381019061019d9190611eac565b610571565b005b6101be60048036038101906101b99190611e5a565b610bf5565b6040516101cb9190611e04565b60405180910390f35b6101dc610c35565b6040516101e99190611e04565b60405180910390f35b61020c60048036038101906102079190611e5a565b610c5b565b60405161021b93929190611f29565b60405180910390f35b61022c610cb2565b6040516102399190611e04565b60405180910390f35b61025c60048036038101906102579190611f8c565b610cd8565b005b61027860048036038101906102739190611e5a565b610dd5565b604051610288949392919061205c565b60405180910390f35b6102ab60048036038101906102a69190611e5a565b610e32565b005b6102c760048036038101906102c291906120a1565b610ef7565b005b6102e360048036038101906102de91906120f4565b61104d565b005b6102ff60048036038101906102fa9190611e5a565b611217565b005b61031b60048036038101906103169190612160565b611736565b005b61033760048036038101906103329190611e5a565b611b5f565b005b610353600480360381019061034e91906121a0565b611c2a565b005b61036f600480360381019061036a9190611e5a565b611cf5565b604051610381969594939291906121e0565b60405180910390f35b60008054906101000a900473ffffffffffffffffffffffffffffffffffffffff1681565b600660009054906101000a900473ffffffffffffffffffffffffffffffffffffffff1681565b60008054906101000a900473ffffffffffffffffffffffffffffffffffffffff1673ffffffffffffffffffffffffffffffffffffffff163373ffffffffffffffffffffffffffffffffffffffff1614610462576040517f08c379a0000000000000000000000000000000000000000000000000000000008152600401610459906122c4565b60405180910390fd5b60008054906101000a900473ffffffffffffffffffffffffffffffffffffffff1673ffffffffffffffffffffffffffffffffffffffff16ff5b3373ffffffffffffffffffffffffffffffffffffffff166002600083815260200190815260200160002060010160009054906101000a900473ffffffffffffffffffffffffffffffffffffffff1673ffffffffffffffffffffffffffffffffffffffff161461053f576040517f08c379a000000000000000000000000000000000000000000000000000000000815260040161053690612356565b60405180910390fd5b60006002600083815260200190815260200160002060010160146101000a81548160ff02191690831515021790555050565b600080600460009054906101000a900473ffffffffffffffffffffffffffffffffffffffff1673ffffffffffffffffffffffffffffffffffffffff16336040516024016105be9190611e04565b6040516020818303038152906040527f44276733000000000000000000000000000000000000000000000000000000007bffffffffffffffffffffffffffffffffffffffffffffffffffffffff19166020820180517bffffffffffffffffffffffffffffffffffffffffffffffffffffffff838183161783525050505060405161064891906123e7565b6000604051808303816000865af19150503d8060008114610685576040519150601f19603f3d011682016040523d82523d6000602084013e61068a565b606091505b5091509150816106cf576040517f08c379a00000000000000000000000000000000000000000000000000000000081526004016106c69061244a565b60405180910390fd5b6000818060200190518101906106e59190612496565b9050600481146106f8576106f76124c3565b5b3373ffffffffffffffffffffffffffffffffffffffff166001600088815260200190815260200160002060030160009054906101000a900473ffffffffffffffffffffffffffffffffffffffff1673ffffffffffffffffffffffffffffffffffffffff161461079c576040517f08c379a00000000000000000000000000000000000000000000000000000000081526004016107939061258a565b60405180910390fd5b600033426040516020016107b1929190612613565b60405160208183030381529060405280519060200120905080600160008981526020019081526020016000206005018190555060405180608001604052803373ffffffffffffffffffffffffffffffffffffffff16815260200142815260200187600581111561082457610823611fe5565b5b8152602001868152506003600083815260200190815260200160002060008201518160000160006101000a81548173ffffffffffffffffffffffffffffffffffffffff021916908373ffffffffffffffffffffffffffffffffffffffff1602179055506020820151816001015560408201518160020160006101000a81548160ff021916908360058111156108bc576108bb611fe5565b5b0217905550606082015181600301559050506000600560009054906101000a900473ffffffffffffffffffffffffffffffffffffffff1673ffffffffffffffffffffffffffffffffffffffff1660023360405160240161091d929190612691565b6040516020818303038152906040527f6657b7bd000000000000000000000000000000000000000000000000000000007bffffffffffffffffffffffffffffffffffffffffffffffffffffffff19166020820180517bffffffffffffffffffffffffffffffffffffffffffffffffffffffff83818316178352505050506040516109a791906123e7565b6000604051808303816000865af19150503d80600081146109e4576040519150601f19603f3d011682016040523d82523d6000602084013e6109e9565b606091505b5050905080610a2d576040517f08c379a0000000000000000000000000000000000000000000000000000000008152600401610a2490612706565b60405180910390fd5b600580811115610a4057610a3f611fe5565b5b876005811115610a5357610a52611fe5565b5b14158015610a86575060046005811115610a7057610a6f611fe5565b5b876005811115610a8357610a82611fe5565b5b14155b15610beb576000600660009054906101000a900473ffffffffffffffffffffffffffffffffffffffff1673ffffffffffffffffffffffffffffffffffffffff16338a604051602401610ad9929190612726565b6040516020818303038152906040527f77a7b646000000000000000000000000000000000000000000000000000000007bffffffffffffffffffffffffffffffffffffffffffffffffffffffff19166020820180517bffffffffffffffffffffffffffffffffffffffffffffffffffffffff8381831617835250505050604051610b6391906123e7565b6000604051808303816000865af19150503d8060008114610ba0576040519150601f19603f3d011682016040523d82523d6000602084013e610ba5565b606091505b5050905080610be9576040517f08c379a0000000000000000000000000000000000000000000000000000000008152600401610be09061279b565b60405180910390fd5b505b5050505050505050565b60006001600083815260200190815260200160002060020160009054906101000a900473ffffffffffffffffffffffffffffffffffffffff169050919050565b600460009054906101000a900473ffffffffffffffffffffffffffffffffffffffff1681565b60026020528060005260406000206000915090508060000154908060010160009054906101000a900473ffffffffffffffffffffffffffffffffffffffff16908060010160149054906101000a900460ff16905083565b600560009054906101000a900473ffffffffffffffffffffffffffffffffffffffff1681565b3373ffffffffffffffffffffffffffffffffffffffff166001600084815260200190815260200160002060020160009054906101000a900473ffffffffffffffffffffffffffffffffffffffff1673ffffffffffffffffffffffffffffffffffffffff1614610d7c576040517f08c379a0000000000000000000000000000000000000000000000000000000008152600401610d739061282d565b60405180910390fd5b806001600084815260200190815260200160002060020160006101000a81548173ffffffffffffffffffffffffffffffffffffffff021916908373ffffffffffffffffffffffffffffffffffffffff1602179055505050565b60036020528060005260406000206000915090508060000160009054906101000a900473ffffffffffffffffffffffffffffffffffffffff16908060010154908060020160009054906101000a900460ff16908060030154905084565b3373ffffffffffffffffffffffffffffffffffffffff166001600083815260200190815260200160002060030160009054906101000a900473ffffffffffffffffffffffffffffffffffffffff1673ffffffffffffffffffffffffffffffffffffffff1614610ed6576040517f08c379a0000000000000000000000000000000000000000000000000000000008152600401610ecd906128bf565b60405180910390fd5b6000801b600160008381526020019081526020016000206004018190555050565b60008054906101000a900473ffffffffffffffffffffffffffffffffffffffff1673ffffffffffffffffffffffffffffffffffffffff163373ffffffffffffffffffffffffffffffffffffffff1614610f85576040517f08c379a0000000000000000000000000000000000000000000000000000000008152600401610f7c90612951565b60405180910390fd5b82600560006101000a81548173ffffffffffffffffffffffffffffffffffffffff021916908373ffffffffffffffffffffffffffffffffffffffff16021790555081600460006101000a81548173ffffffffffffffffffffffffffffffffffffffff021916908373ffffffffffffffffffffffffffffffffffffffff16021790555080600660006101000a81548173ffffffffffffffffffffffffffffffffffffffff021916908373ffffffffffffffffffffffffffffffffffffffff160217905550505050565b3373ffffffffffffffffffffffffffffffffffffffff166001600084815260200190815260200160002060010160009054906101000a900473ffffffffffffffffffffffffffffffffffffffff1673ffffffffffffffffffffffffffffffffffffffff16146110f1576040517f08c379a00000000000000000000000000000000000000000000000000000000081526004016110e8906129e3565b60405180910390fd5b6002600082815260200190815260200160002060010160149054906101000a900460ff16611154576040517f08c379a000000000000000000000000000000000000000000000000000000000815260040161114b90612a4f565b60405180910390fd5b3373ffffffffffffffffffffffffffffffffffffffff166002600083815260200190815260200160002060010160009054906101000a900473ffffffffffffffffffffffffffffffffffffffff1673ffffffffffffffffffffffffffffffffffffffff16146111f8576040517f08c379a00000000000000000000000000000000000000000000000000000000081526004016111ef90612a4f565b60405180910390fd5b8060016000848152602001908152602001600020600401819055505050565b600080600460009054906101000a900473ffffffffffffffffffffffffffffffffffffffff1673ffffffffffffffffffffffffffffffffffffffff16336040516024016112649190611e04565b6040516020818303038152906040527f44276733000000000000000000000000000000000000000000000000000000007bffffffffffffffffffffffffffffffffffffffffffffffffffffffff19166020820180517bffffffffffffffffffffffffffffffffffffffffffffffffffffffff83818316178352505050506040516112ee91906123e7565b6000604051808303816000865af19150503d806000811461132b576040519150601f19603f3d011682016040523d82523d6000602084013e611330565b606091505b509150915081611375576040517f08c379a000000000000000000000000000000000000000000000000000000000815260040161136c9061244a565b60405180910390fd5b60008180602001905181019061138b9190612496565b90506004811061139e5761139d6124c3565b5b60006113a985611d91565b9050600073ffffffffffffffffffffffffffffffffffffffff166001600083815260200190815260200160002060010160009054906101000a900473ffffffffffffffffffffffffffffffffffffffff1673ffffffffffffffffffffffffffffffffffffffff1614611450576040517f08c379a000000000000000000000000000000000000000000000000000000000815260040161144790612ae1565b60405180910390fd5b6000600560009054906101000a900473ffffffffffffffffffffffffffffffffffffffff1673ffffffffffffffffffffffffffffffffffffffff1660003360405160240161149f929190612b3c565b6040516020818303038152906040527f6657b7bd000000000000000000000000000000000000000000000000000000007bffffffffffffffffffffffffffffffffffffffffffffffffffffffff19166020820180517bffffffffffffffffffffffffffffffffffffffffffffffffffffffff838183161783525050505060405161152991906123e7565b6000604051808303816000865af19150503d8060008114611566576040519150601f19603f3d011682016040523d82523d6000602084013e61156b565b606091505b50509050806115af576040517f08c379a00000000000000000000000000000000000000000000000000000000081526004016115a690612706565b60405180910390fd5b6040518060c001604052808781526020013373ffffffffffffffffffffffffffffffffffffffff1681526020013373ffffffffffffffffffffffffffffffffffffffff168152602001600073ffffffffffffffffffffffffffffffffffffffff1681526020016000801b81526020016000801b815250600160008481526020019081526020016000206000820151816000015560208201518160010160006101000a81548173ffffffffffffffffffffffffffffffffffffffff021916908373ffffffffffffffffffffffffffffffffffffffff16021790555060408201518160020160006101000a81548173ffffffffffffffffffffffffffffffffffffffff021916908373ffffffffffffffffffffffffffffffffffffffff16021790555060608201518160030160006101000a81548173ffffffffffffffffffffffffffffffffffffffff021916908373ffffffffffffffffffffffffffffffffffffffff1602179055506080820151816004015560a08201518160050155905050505050505050565b600080600460009054906101000a900473ffffffffffffffffffffffffffffffffffffffff1673ffffffffffffffffffffffffffffffffffffffff16336040516024016117839190611e04565b6040516020818303038152906040527f44276733000000000000000000000000000000000000000000000000000000007bffffffffffffffffffffffffffffffffffffffffffffffffffffffff19166020820180517bffffffffffffffffffffffffffffffffffffffffffffffffffffffff838183161783525050505060405161180d91906123e7565b6000604051808303816000865af19150503d806000811461184a576040519150601f19603f3d011682016040523d82523d6000602084013e61184f565b606091505b509150915081611894576040517f08c379a000000000000000000000000000000000000000000000000000000000815260040161188b9061244a565b60405180910390fd5b6000818060200190518101906118aa9190612496565b9050600281106118bd576118bc6124c3565b5b60006118c886611d91565b9050600073ffffffffffffffffffffffffffffffffffffffff166001600083815260200190815260200160002060010160009054906101000a900473ffffffffffffffffffffffffffffffffffffffff1673ffffffffffffffffffffffffffffffffffffffff161461193d5761193c6124c3565b5b6000600560009054906101000a900473ffffffffffffffffffffffffffffffffffffffff1673ffffffffffffffffffffffffffffffffffffffff1660013360405160240161198c929190612ba0565b6040516020818303038152906040527f6657b7bd000000000000000000000000000000000000000000000000000000007bffffffffffffffffffffffffffffffffffffffffffffffffffffffff19166020820180517bffffffffffffffffffffffffffffffffffffffffffffffffffffffff8381831617835250505050604051611a1691906123e7565b6000604051808303816000865af19150503d8060008114611a53576040519150601f19603f3d011682016040523d82523d6000602084013e611a58565b606091505b5050905080611a9c576040517f08c379a0000000000000000000000000000000000000000000000000000000008152600401611a9390612706565b60405180910390fd5b60405180606001604052808881526020013373ffffffffffffffffffffffffffffffffffffffff168152602001871515815250600260008481526020019081526020016000206000820151816000015560208201518160010160006101000a81548173ffffffffffffffffffffffffffffffffffffffff021916908373ffffffffffffffffffffffffffffffffffffffff16021790555060408201518160010160146101000a81548160ff02191690831515021790555090505050505050505050565b3373ffffffffffffffffffffffffffffffffffffffff166001600083815260200190815260200160002060020160009054906101000a900473ffffffffffffffffffffffffffffffffffffffff1673ffffffffffffffffffffffffffffffffffffffff1614611bd157611bd06124c3565b5b60006001600083815260200190815260200160002060030160006101000a81548173ffffffffffffffffffffffffffffffffffffffff021916908373ffffffffffffffffffffffffffffffffffffffff16021790555050565b3373ffffffffffffffffffffffffffffffffffffffff166001600083815260200190815260200160002060020160009054906101000a900473ffffffffffffffffffffffffffffffffffffffff1673ffffffffffffffffffffffffffffffffffffffff1614611c9c57611c9b6124c3565b5b816001600083815260200190815260200160002060030160006101000a81548173ffffffffffffffffffffffffffffffffffffffff021916908373ffffffffffffffffffffffffffffffffffffffff1602179055505050565b60016020528060005260406000206000915090508060000154908060010160009054906101000a900473ffffffffffffffffffffffffffffffffffffffff16908060020160009054906101000a900473ffffffffffffffffffffffffffffffffffffffff16908060030160009054906101000a900473ffffffffffffffffffffffffffffffffffffffff16908060040154908060050154905086565b60008133604051602001611da6929190612bea565b604051602081830303815290604052805190602001209050919050565b600073ffffffffffffffffffffffffffffffffffffffff82169050919050565b6000611dee82611dc3565b9050919050565b611dfe81611de3565b82525050565b6000602082019050611e196000830184611df5565b92915050565b600080fd5b6000819050919050565b611e3781611e24565b8114611e4257600080fd5b50565b600081359050611e5481611e2e565b92915050565b600060208284031215611e7057611e6f611e1f565b5b6000611e7e84828501611e45565b91505092915050565b60068110611e9457600080fd5b50565b600081359050611ea681611e87565b92915050565b600080600060608486031215611ec557611ec4611e1f565b5b6000611ed386828701611e45565b9350506020611ee486828701611e97565b9250506040611ef586828701611e45565b9150509250925092565b611f0881611e24565b82525050565b60008115159050919050565b611f2381611f0e565b82525050565b6000606082019050611f3e6000830186611eff565b611f4b6020830185611df5565b611f586040830184611f1a565b949350505050565b611f6981611de3565b8114611f7457600080fd5b50565b600081359050611f8681611f60565b92915050565b60008060408385031215611fa357611fa2611e1f565b5b6000611fb185828601611e45565b9250506020611fc285828601611f77565b9150509250929050565b6000819050919050565b611fdf81611fcc565b82525050565b7f4e487b7100000000000000000000000000000000000000000000000000000000600052602160045260246000fd5b6006811061202557612024611fe5565b5b50565b600081905061203682612014565b919050565b600061204682612028565b9050919050565b6120568161203b565b82525050565b60006080820190506120716000830187611df5565b61207e6020830186611fd6565b61208b604083018561204d565b6120986060830184611eff565b95945050505050565b6000806000606084860312156120ba576120b9611e1f565b5b60006120c886828701611f77565b93505060206120d986828701611f77565b92505060406120ea86828701611f77565b9150509250925092565b6000806040838503121561210b5761210a611e1f565b5b600061211985828601611e45565b925050602061212a85828601611e45565b9150509250929050565b61213d81611f0e565b811461214857600080fd5b50565b60008135905061215a81612134565b92915050565b6000806040838503121561217757612176611e1f565b5b600061218585828601611e45565b92505060206121968582860161214b565b9150509250929050565b600080604083850312156121b7576121b6611e1f565b5b60006121c585828601611f77565b92505060206121d685828601611e45565b9150509250929050565b600060c0820190506121f56000830189611eff565b6122026020830188611df5565b61220f6040830187611df5565b61221c6060830186611df5565b6122296080830185611eff565b61223660a0830184611eff565b979650505050505050565b600082825260208201905092915050565b7f596f752063616e6e6f74207465726d696e6174652074686520636f6e7472616360008201527f7421000000000000000000000000000000000000000000000000000000000000602082015250565b60006122ae602283612241565b91506122b982612252565b604082019050919050565b600060208201905081810360008301526122dd816122a1565b9050919050565b7f596f7520646f206e6f74206861766520746865206e656365737361727920706560008201527f726d697373696f6e7320746f20656e64207468697320657869626974696f6e00602082015250565b6000612340603f83612241565b915061234b826122e4565b604082019050919050565b6000602082019050818103600083015261236f81612333565b9050919050565b600081519050919050565b600081905092915050565b60005b838110156123aa57808201518184015260208101905061238f565b60008484015250505050565b60006123c182612376565b6123cb8185612381565b93506123db81856020860161238c565b80840191505092915050565b60006123f382846123b6565b915081905092915050565b7f566572696669636174696f6e206661696c656400000000000000000000000000600082015250565b6000612434601383612241565b915061243f826123fe565b602082019050919050565b6000602082019050818103600083015261246381612427565b9050919050565b61247381611fcc565b811461247e57600080fd5b50565b6000815190506124908161246a565b92915050565b6000602082840312156124ac576124ab611e1f565b5b60006124ba84828501612481565b91505092915050565b7f4e487b7100000000000000000000000000000000000000000000000000000000600052600160045260246000fd5b7f596f7520646f206e6f74206861766520746865206e656365737361727920706560008201527f726d697373696f6e7320746f2063726561746520616e2041637469766974792060208201527f61626f7574207468697320617274776f726b0000000000000000000000000000604082015250565b6000612574605283612241565b915061257f826124f2565b606082019050919050565b600060208201905081810360008301526125a381612567565b9050919050565b60008160601b9050919050565b60006125c2826125aa565b9050919050565b60006125d4826125b7565b9050919050565b6125ec6125e782611de3565b6125c9565b82525050565b6000819050919050565b61260d61260882611fcc565b6125f2565b82525050565b600061261f82856125db565b60148201915061262f82846125fc565b6020820191508190509392505050565b6000819050919050565b600060ff82169050919050565b6000819050919050565b600061267b6126766126718461263f565b612656565b612649565b9050919050565b61268b81612660565b82525050565b60006040820190506126a66000830185612682565b6126b36020830184611df5565b9392505050565b7f44636f696e206661696c65640000000000000000000000000000000000000000600082015250565b60006126f0600c83612241565b91506126fb826126ba565b602082019050919050565b6000602082019050818103600083015261271f816126e3565b9050919050565b600060408201905061273b6000830185611df5565b6127486020830184611eff565b9392505050565b7f506174726f6e206661696c656400000000000000000000000000000000000000600082015250565b6000612785600d83612241565b91506127908261274f565b602082019050919050565b600060208201905081810360008301526127b481612778565b9050919050565b7f596f7520617265206e6f7420746865206f776e6572206f66207468652073656c60008201527f6563746564206172746f776f726b000000000000000000000000000000000000602082015250565b6000612817602e83612241565b9150612822826127bb565b604082019050919050565b600060208201905081810360008301526128468161280a565b9050919050565b7f596f7520646f206e6f74206861766520746865206e656365737361727920706560008201527f726d697373696f6e7320746f2072656d6f7665207468697320617274776f726b602082015250565b60006128a9604083612241565b91506128b48261284d565b604082019050919050565b600060208201905081810360008301526128d88161289c565b9050919050565b7f4f6e6c79207468652063726561746f722063616e207365742074686520636f6e60008201527f7472616374730000000000000000000000000000000000000000000000000000602082015250565b600061293b602683612241565b9150612946826128df565b604082019050919050565b6000602082019050818103600083015261296a8161292e565b9050919050565b7f596f7520646f206e6f74206861766520746865206e656365737361727920706560008201527f726d697373696f6e7320746f206578706f7365207468697320617274776f726b602082015250565b60006129cd604083612241565b91506129d882612971565b604082019050919050565b600060208201905081810360008301526129fc816129c0565b9050919050565b7f54686520657869626974696f6e206973206e6f74206f6e000000000000000000600082015250565b6000612a39601783612241565b9150612a4482612a03565b602082019050919050565b60006020820190508181036000830152612a6881612a2c565b9050919050565b7f4120636f6c6c6973696f6e20647572696e672068617368696e67206f6363757260008201527f7265640000000000000000000000000000000000000000000000000000000000602082015250565b6000612acb602383612241565b9150612ad682612a6f565b604082019050919050565b60006020820190508181036000830152612afa81612abe565b9050919050565b6000819050919050565b6000612b26612b21612b1c84612b01565b612656565b612649565b9050919050565b612b3681612b0b565b82525050565b6000604082019050612b516000830185612b2d565b612b5e6020830184611df5565b9392505050565b6000819050919050565b6000612b8a612b85612b8084612b65565b612656565b612649565b9050919050565b612b9a81612b6f565b82525050565b6000604082019050612bb56000830185612b91565b612bc26020830184611df5565b9392505050565b6000819050919050565b612be4612bdf82611e24565b612bc9565b82525050565b6000612bf68285612bd3565b602082019150612c0682846125db565b601482019150819050939250505056fea2646970667358221220876d53240774e3d7c27a00f0f49da496ecf7706f9240960a0bd6cfd16b24096b64736f6c63430008110033",
  "immutableReferences": {},
  "source": "//for compability reasons, we work only with these versions\npragma solidity >=0.7.0 < 0.9.0;\n\n//we have objects to work with\ncontract DArt {\n\n   /*\n        Fai event\n    */\n \n    event ProtectionActivityStarted(Artwork indexed artwork);\n\n    //we have a struct to store the data about artworks\n    struct Artwork {\n        bytes32 hashedName;\n        address minter; //the address of the museum that minted the artwork\n        address property;\n        address possession;\n        bytes32 exposedAt; // Da vedere come gestire lo storico delle esposizioni\n        bytes32 status; // Da vedere come gestire lo storico delle operazioni\n    }\n\n    // A struct to collect information about exibitions\n    struct Exibition {\n        bytes32 hashedName;\n        address organizer;\n        bool isOn; \n    }\n\n    struct Activity{\n        // bytes32 artworkId;\n        address author;\n        uint timestamp;\n        ProtectionActivities typology;\n        bytes32 extraInfo;\n    }\n    \n    // This enum indicates the type of operation applied to and update of an artwork\n    enum ProtectionActivities {\n        PREVENTION,\n        PROTECTIOIN,\n        MAINTAINANCE,\n        RESTAURATION,\n        DAMAGE,\n        UPDATE\n    }\n\n    //this is the address of the creator MAYBE PRIVATE, namely the owner\n    //of the smart contract that it can do some special actions\n    address public creator;\n\n    mapping (bytes32 => Artwork) public registeredArtworks;\n    mapping (bytes32 => Exibition) public registerdExibitions;\n    mapping (bytes32 => Activity) public registerdActivities;\n\n    /*\n    address public constant dcoinSmartcontract;\n    address public constant verificatioSmartcontract; \n    address public constant patronSmartcontract;\n    */\n\n    //         mainSmartcontract.call(abi.encodeWithSignature(\"setCostOfServices(uint[3])\", [1,2,3]));\n\n    address public verification;\n    address public dcoin;\n    address public patron;   \n  \n\n\n    //the first time that we call che smart contract we need to save which is the\n    //creator, because it can do after some important actions\n    constructor(){\n        //so we save the address of the creator, one time and forever\n        /*\n        dcoin = dcoinSmartcontract;\n        verification = verificatioSmartcontract;\n        patron = patronSmartcontract;\n        */\n        creator = msg.sender;\n        //dcoin.setContrats(address(Patron(address(patron))));\n    }\n\n    function setContracts(address dcoinad, address verificationad, address patronad) external{\n        require(msg.sender == creator, \"Only the creator can set the contracts\");\n        dcoin = dcoinad;\n        verification = verificationad;\n        patron = patronad;\n    }\n\n    /**\n        @notice a pure faction to hash a string and the address of the caller, used to create univoque ids\n        @param hashedName the hashed string that have to be hashed with the msg.sender\n     */\n     // Dovrebbe essere pure ma da errore\n    function hashTextAndAddress(bytes32 hashedName) internal view returns(bytes32) {\n        return keccak256(abi.encodePacked(hashedName, msg.sender));\n    }\n\n    function checkWallet() internal {\n        //(bool success, bytes memory data) = verification.call(abi.encodeWithSignature(\"isVerified(address)\",msg.sender));\n        (bool success, bytes memory result) = verification.call(\n            abi.encodeWithSignature(\"isVerified(address)\", msg.sender)\n        );\n        require(success, \"Verification failed\");\n        (bool isVerifed) = abi.decode(result, (bool));\n        require(isVerifed, \"Sender's wallet is not verifed\");\n        \n        //assert(verification.isVerified(msg.sender));\n        /*assert(\n            verificationSmartcontract.call(aby.encodingWithSignature(\"isVerified(address)\",msg.sender)),\n            \"Sender's wallet is not verifed\");*/\n    }\n\n    //called by a museum, to add an artwork in blockchain (MAYBE TO DO\n    /**\n        @notice mint an Artwork NFT. The id of the NFT is the hash of its name and the minter address.\n        @param hashedName name of the artwork hashed using keccak256\n     */    \n    function mintArtworkNFT(bytes32 hashedName) external {\n        (bool success, bytes memory result) = verification.call(\n            abi.encodeWithSignature(\"getRole(address)\", msg.sender)\n        );\n        require(success, \"Verification failed\");\n        (uint role) = abi.decode(result, (uint));\n        //uint role = verification.getRole(msg.sender);\n        //role = verificationSmartcontract.call(abi.encodingWithSignature(\"getRole(address)\",msg.sender));\n        assert(role < 4);\n        //assert(registeredWallets[msg.sender].verified, \"Sender's wallet is not verifed\");\n        bytes32 kek = hashTextAndAddress(hashedName);\n        require(registeredArtworks[kek].minter == address(0x0), \"A collision during hashing occurred\");\n        (bool success_b, ) = dcoin.call(\n            abi.encodeWithSignature(\"burn(uint, address)\", 0, msg.sender)\n        );\n        require(success_b, \"Dcoin failed\");\n        //dcoin.burn(0, msg.sender, false);   \n        //we add the artwork to the mapping\n        /*\n        TODO: all this stuff have to be recoded and we have to decide if use one mapping from address to \n        a list of artworks or a mapping from any artwork to walletts, or both of them\n        */\n        registeredArtworks[kek] = Artwork(hashedName, msg.sender, msg.sender, address(0x0), 0, 0);\n    }\n\n    /**\n        @notice mint an Exibition NFT. The id of the NFT is the hash of its name and the minter address.\n        @param hashedName the Exibition's name hashed using keccak256\n        @param status indicates the status of the creare exibition, if it's on or not\n     */\n    function mintExibitionNFT(bytes32 hashedName, bool status) external {\n        //role = verificationSmartcontract.call(abi.encodingWithSignature(\"getRole(address)\",msg.sender));\n        (bool success, bytes memory result) = verification.call(\n            abi.encodeWithSignature(\"getRole(address)\", msg.sender)\n        );\n        require(success, \"Verification failed\");\n        (uint role) = abi.decode(result, (uint));\n        assert(role < 2);\n        bytes32 kek = hashTextAndAddress(hashedName);\n        assert(registeredArtworks[kek].minter == address(0x0));\n        (bool success_b, ) = dcoin.call(\n            abi.encodeWithSignature(\"burn(uint, address)\", 1, msg.sender)\n        );\n        require(success_b, \"Dcoin failed\");        registerdExibitions[kek] = Exibition(hashedName, msg.sender, status);\n    }\n\n    function endExibition(bytes32 exibitionID) external {\n        require(registerdExibitions[exibitionID].organizer == msg.sender, \"You do not have the necessary permissions to end this exibition\");\n        registerdExibitions[exibitionID].isOn = false;\n    }\n\n    function exposeArtwork(bytes32 artworkID, bytes32 exibitionID) external {\n        require(registeredArtworks[artworkID].minter == msg.sender, \"You do not have the necessary permissions to expose this artwork\");\n        require(registerdExibitions[exibitionID].isOn, \"The exibition is not on\");\n        require(registerdExibitions[exibitionID].organizer == msg.sender, \"The exibition is not on\");\n        registeredArtworks[artworkID].exposedAt = exibitionID;\n    }\n\n    function removeArtworkFromExibition(bytes32 artworkID) external {\n        require(registeredArtworks[artworkID].possession == msg.sender, \"You do not have the necessary permissions to remove this artwork\");\n        registeredArtworks[artworkID].exposedAt = bytes32(0x0);\n    }\n\n    function mintActivity(bytes32 artworkID, ProtectionActivities oftype, bytes32 extrainfo) external{\n        (bool success, bytes memory result) = verification.call(\n            abi.encodeWithSignature(\"getRole(address)\", msg.sender)\n        );\n        require(success, \"Verification failed\");\n        (uint role) = abi.decode(result, (uint));\n        //role = verificationSmartcontract.call(abi.encodingWithSignature(\"getRole(address)\",msg.sender));\n        assert(role == 4);\n        require(registeredArtworks[artworkID].possession == msg.sender,  \"You do not have the necessary permissions to create an Activity about this artwork\");\n        bytes32 kek = keccak256(abi.encodePacked(msg.sender, block.timestamp));\n        registeredArtworks[artworkID].status =   kek;\n        registerdActivities[kek] = Activity(msg.sender, block.timestamp, oftype, extrainfo);  \n        (bool success_b, ) = dcoin.call(\n            abi.encodeWithSignature(\"burn(uint, address)\", 2, msg.sender)\n        );\n        require(success_b, \"Dcoin failed\");\n        if (oftype != ProtectionActivities.UPDATE && oftype != ProtectionActivities.DAMAGE){\n            (bool success_c, ) = patron.call(\n                abi.encodeWithSignature(\"moveFunds(address, bytes32)\", msg.sender, artworkID)\n            );\n            require(success_c, \"Patron failed\");\n        }\n    }\n\n    function allowAccessToArtwork(address target, bytes32 artwork) external {\n        //assert(museums[target].verified);\n        assert(registeredArtworks[artwork].property == msg.sender);\n        registeredArtworks[artwork].possession = target;\n    }\n\n    function revokeAccessToArtwork(bytes32 artwork) external {\n        assert(registeredArtworks[artwork].property == msg.sender);\n        registeredArtworks[artwork].possession = address(0x0);\n    }\n\n    function donateWorkOfArt(bytes32 artwork, address _to) external{\n        require(registeredArtworks[artwork].property == msg.sender, \"You are not the owner of the selected artowork\");\n        registeredArtworks[artwork].property = _to;\n    }\n\n    function getProperty(bytes32 artwork) external view returns(address){\n        return registeredArtworks[artwork].property;\n    }\n\n    function terminate() public {\n        require(msg.sender == creator, \"You cannot terminate the contract!\");\n        selfdestruct(payable(creator));\n    }\n}\n",
  "sourcePath": "/Users/MichaelPlug/Documents/DArt/truffle/contracts/DArt.sol",
  "compiler": {
    "name": "solc",
    "version": "0.8.17+commit.8df45f5f.Emscripten.clang"
  },
  "schemaVersion": "3.4.11",
  "updatedAt": "2023-01-06T10:35:52.566Z",
  "networkType": "ethereum",
  "devdoc": {
    "kind": "dev",
    "methods": {
      "mintArtworkNFT(bytes32)": {
        "params": {
          "hashedName": "name of the artwork hashed using keccak256"
        }
      },
      "mintExibitionNFT(bytes32,bool)": {
        "params": {
          "hashedName": "the Exibition's name hashed using keccak256",
          "status": "indicates the status of the creare exibition, if it's on or not"
        }
      }
    },
    "version": 1
  },
  "userdoc": {
    "kind": "user",
    "methods": {
      "mintArtworkNFT(bytes32)": {
        "notice": "mint an Artwork NFT. The id of the NFT is the hash of its name and the minter address."
      },
      "mintExibitionNFT(bytes32,bool)": {
        "notice": "mint an Exibition NFT. The id of the NFT is the hash of its name and the minter address."
      }
    },
    "version": 1
  }
}