{
  "contractName": "DCoin",
  "abi": [
    {
      "inputs": [],
      "stateMutability": "nonpayable",
      "type": "constructor"
    },
    {
      "anonymous": false,
      "inputs": [
        {
          "indexed": true,
          "internalType": "address",
          "name": "from",
          "type": "address"
        },
        {
          "indexed": true,
          "internalType": "address",
          "name": "to",
          "type": "address"
        },
        {
          "indexed": false,
          "internalType": "uint256",
          "name": "amount",
          "type": "uint256"
        }
      ],
      "name": "Transfer",
      "type": "event"
    },
    {
      "inputs": [],
      "name": "PRICE",
      "outputs": [
        {
          "internalType": "uint256",
          "name": "",
          "type": "uint256"
        }
      ],
      "stateMutability": "view",
      "type": "function",
      "constant": true
    },
    {
      "inputs": [
        {
          "internalType": "address",
          "name": "",
          "type": "address"
        }
      ],
      "name": "balance",
      "outputs": [
        {
          "internalType": "uint256",
          "name": "",
          "type": "uint256"
        }
      ],
      "stateMutability": "view",
      "type": "function",
      "constant": true
    },
    {
      "inputs": [],
      "name": "burned",
      "outputs": [
        {
          "internalType": "uint256",
          "name": "",
          "type": "uint256"
        }
      ],
      "stateMutability": "view",
      "type": "function",
      "constant": true
    },
    {
      "inputs": [
        {
          "internalType": "uint256",
          "name": "",
          "type": "uint256"
        }
      ],
      "name": "costOfServices",
      "outputs": [
        {
          "internalType": "uint256",
          "name": "",
          "type": "uint256"
        }
      ],
      "stateMutability": "view",
      "type": "function",
      "constant": true
    },
    {
      "inputs": [],
      "name": "mainSmartcontract",
      "outputs": [
        {
          "internalType": "address",
          "name": "",
          "type": "address"
        }
      ],
      "stateMutability": "view",
      "type": "function",
      "constant": true
    },
    {
      "inputs": [],
      "name": "minter",
      "outputs": [
        {
          "internalType": "address",
          "name": "",
          "type": "address"
        }
      ],
      "stateMutability": "view",
      "type": "function",
      "constant": true
    },
    {
      "inputs": [],
      "name": "patronSmartcontract",
      "outputs": [
        {
          "internalType": "address",
          "name": "",
          "type": "address"
        }
      ],
      "stateMutability": "view",
      "type": "function",
      "constant": true
    },
    {
      "inputs": [],
      "name": "verificationSmartcontract",
      "outputs": [
        {
          "internalType": "address",
          "name": "",
          "type": "address"
        }
      ],
      "stateMutability": "view",
      "type": "function",
      "constant": true
    },
    {
      "inputs": [
        {
          "internalType": "address",
          "name": "main",
          "type": "address"
        },
        {
          "internalType": "address",
          "name": "verification",
          "type": "address"
        },
        {
          "internalType": "address",
          "name": "patron",
          "type": "address"
        }
      ],
      "name": "setContrats",
      "outputs": [],
      "stateMutability": "nonpayable",
      "type": "function"
    },
    {
      "inputs": [
        {
          "internalType": "uint256[4]",
          "name": "cost",
          "type": "uint256[4]"
        }
      ],
      "name": "setCostOfServices",
      "outputs": [],
      "stateMutability": "nonpayable",
      "type": "function"
    },
    {
      "inputs": [],
      "name": "mint",
      "outputs": [],
      "stateMutability": "payable",
      "type": "function",
      "payable": true
    },
    {
      "inputs": [
        {
          "internalType": "uint256",
          "name": "costType",
          "type": "uint256"
        },
        {
          "internalType": "address",
          "name": "wallet",
          "type": "address"
        }
      ],
      "name": "burn",
      "outputs": [],
      "stateMutability": "nonpayable",
      "type": "function"
    },
    {
      "inputs": [
        {
          "internalType": "uint256",
          "name": "amount",
          "type": "uint256"
        },
        {
          "internalType": "address",
          "name": "wallet",
          "type": "address"
        }
      ],
      "name": "lock",
      "outputs": [],
      "stateMutability": "nonpayable",
      "type": "function"
    },
    {
      "inputs": [
        {
          "internalType": "uint256",
          "name": "amount",
          "type": "uint256"
        },
        {
          "internalType": "address",
          "name": "to",
          "type": "address"
        }
      ],
      "name": "transfer",
      "outputs": [],
      "stateMutability": "nonpayable",
      "type": "function"
    },
    {
      "inputs": [
        {
          "internalType": "address",
          "name": "_to",
          "type": "address"
        },
        {
          "internalType": "uint256",
          "name": "amount",
          "type": "uint256"
        }
      ],
      "name": "magicMint",
      "outputs": [],
      "stateMutability": "nonpayable",
      "type": "function"
    },
    {
      "inputs": [
        {
          "internalType": "uint256",
          "name": "amount",
          "type": "uint256"
        }
      ],
      "name": "withdraw",
      "outputs": [],
      "stateMutability": "nonpayable",
      "type": "function"
    },
    {
      "inputs": [],
      "name": "terminate",
      "outputs": [],
      "stateMutability": "nonpayable",
      "type": "function"
    },
    {
      "inputs": [],
      "name": "withdrawETH",
      "outputs": [],
      "stateMutability": "nonpayable",
      "type": "function"
    }
  ],
  "bytecode": "0x608060405260006002556040518060800160405280600160ff168152602001600160ff168152602001600160ff168152602001600160ff1681525060039060046200004c929190620000a1565b503480156200005a57600080fd5b50336000806101000a81548173ffffffffffffffffffffffffffffffffffffffff021916908373ffffffffffffffffffffffffffffffffffffffff1602179055506200010a565b8260048101928215620000d8579160200282015b82811115620000d7578251829060ff16905591602001919060010190620000b5565b5b509050620000e79190620000eb565b5090565b5b8082111562000106576000816000905550600101620000ec565b5090565b6118e7806200011a6000396000f3fe6080604052600436106101095760003560e01c806366dfbfb411610095578063954abe3411610064578063954abe3414610310578063b7760c8f1461033b578063e086e5ec14610364578063e3d670d71461037b578063fcd3533c146103b857610109565b806366dfbfb41461025457806373f425611461027d578063747c7338146102a85780638d859f3e146102e557610109565b80632e1a7d4d116100dc5780632e1a7d4d146101835780632ef52674146101ac5780634b60690d146101d55780635a9ebcf014610200578063603e5f251461022957610109565b8063075461721461010e5780630c08bf88146101395780630f177a6f146101505780631249c58b14610179575b600080fd5b34801561011a57600080fd5b506101236103e1565b6040516101309190611092565b60405180910390f35b34801561014557600080fd5b5061014e610405565b005b34801561015c57600080fd5b506101776004803603810190610172919061111e565b6104cc565b005b610181610580565b005b34801561018f57600080fd5b506101aa60048036038101906101a5919061115e565b610634565b005b3480156101b857600080fd5b506101d360048036038101906101ce91906112d2565b6107ab565b005b3480156101e157600080fd5b506101ea61081c565b6040516101f79190611092565b60405180910390f35b34801561020c57600080fd5b50610227600480360381019061022291906112ff565b610842565b005b34801561023557600080fd5b5061023e610966565b60405161024b9190611092565b60405180910390f35b34801561026057600080fd5b5061027b60048036038101906102769190611352565b61098c565b005b34801561028957600080fd5b50610292610ad7565b60405161029f91906113a1565b60405180910390f35b3480156102b457600080fd5b506102cf60048036038101906102ca919061115e565b610add565b6040516102dc91906113a1565b60405180910390f35b3480156102f157600080fd5b506102fa610af8565b60405161030791906113a1565b60405180910390f35b34801561031c57600080fd5b50610325610b03565b6040516103329190611092565b60405180910390f35b34801561034757600080fd5b50610362600480360381019061035d9190611352565b610b29565b005b34801561037057600080fd5b50610379610d03565b005b34801561038757600080fd5b506103a2600480360381019061039d91906113bc565b610e16565b6040516103af91906113a1565b60405180910390f35b3480156103c457600080fd5b506103df60048036038101906103da9190611352565b610e2e565b005b60008054906101000a900473ffffffffffffffffffffffffffffffffffffffff1681565b60008054906101000a900473ffffffffffffffffffffffffffffffffffffffff1673ffffffffffffffffffffffffffffffffffffffff163373ffffffffffffffffffffffffffffffffffffffff1614610493576040517f08c379a000000000000000000000000000000000000000000000000000000000815260040161048a9061146c565b60405180910390fd5b60008054906101000a900473ffffffffffffffffffffffffffffffffffffffff1673ffffffffffffffffffffffffffffffffffffffff16ff5b600760009054906101000a900473ffffffffffffffffffffffffffffffffffffffff1673ffffffffffffffffffffffffffffffffffffffff163373ffffffffffffffffffffffffffffffffffffffff161461052657600080fd5b80600160008473ffffffffffffffffffffffffffffffffffffffff1673ffffffffffffffffffffffffffffffffffffffff168152602001908152602001600020600082825461057591906114bb565b925050819055505050565b66071afd498d00003410156105ca576040517f08c379a00000000000000000000000000000000000000000000000000000000081526004016105c19061153b565b60405180910390fd5b66071afd498d0000346105dd919061158a565b600160003373ffffffffffffffffffffffffffffffffffffffff1673ffffffffffffffffffffffffffffffffffffffff168152602001908152602001600020600082825461062b91906114bb565b92505081905550565b80600160003373ffffffffffffffffffffffffffffffffffffffff1673ffffffffffffffffffffffffffffffffffffffff1681526020019081526020016000205410156106b6576040517f08c379a00000000000000000000000000000000000000000000000000000000081526004016106ad90611607565b60405180910390fd5b600081116106f9576040517f08c379a00000000000000000000000000000000000000000000000000000000081526004016106f090611699565b60405180910390fd5b80600160003373ffffffffffffffffffffffffffffffffffffffff1673ffffffffffffffffffffffffffffffffffffffff168152602001908152602001600020600082825461074891906116b9565b925050819055503373ffffffffffffffffffffffffffffffffffffffff166108fc66071afd498d00008361077c91906116ed565b9081150290604051600060405180830381858888f193505050501580156107a7573d6000803e3d6000fd5b5050565b3373ffffffffffffffffffffffffffffffffffffffff1660008054906101000a900473ffffffffffffffffffffffffffffffffffffffff1673ffffffffffffffffffffffffffffffffffffffff16146108075761080661172f565b5b806003906004610818929190610ff4565b5050565b600860009054906101000a900473ffffffffffffffffffffffffffffffffffffffff1681565b3373ffffffffffffffffffffffffffffffffffffffff1660008054906101000a900473ffffffffffffffffffffffffffffffffffffffff1673ffffffffffffffffffffffffffffffffffffffff161461089e5761089d61172f565b5b80600760006101000a81548173ffffffffffffffffffffffffffffffffffffffff021916908373ffffffffffffffffffffffffffffffffffffffff16021790555082600860006101000a81548173ffffffffffffffffffffffffffffffffffffffff021916908373ffffffffffffffffffffffffffffffffffffffff16021790555081600960006101000a81548173ffffffffffffffffffffffffffffffffffffffff021916908373ffffffffffffffffffffffffffffffffffffffff160217905550505050565b600760009054906101000a900473ffffffffffffffffffffffffffffffffffffffff1681565b600760009054906101000a900473ffffffffffffffffffffffffffffffffffffffff1673ffffffffffffffffffffffffffffffffffffffff163373ffffffffffffffffffffffffffffffffffffffff16146109ea576109e961172f565b5b600082116109fb576109fa61172f565b5b81600160008373ffffffffffffffffffffffffffffffffffffffff1673ffffffffffffffffffffffffffffffffffffffff168152602001908152602001600020541015610a7d576040517f08c379a0000000000000000000000000000000000000000000000000000000008152600401610a7490611607565b60405180910390fd5b81600160008373ffffffffffffffffffffffffffffffffffffffff1673ffffffffffffffffffffffffffffffffffffffff1681526020019081526020016000206000828254610acc91906116b9565b925050819055505050565b60025481565b60038160048110610aed57600080fd5b016000915090505481565b66071afd498d000081565b600960009054906101000a900473ffffffffffffffffffffffffffffffffffffffff1681565b81600160003373ffffffffffffffffffffffffffffffffffffffff1673ffffffffffffffffffffffffffffffffffffffff168152602001908152602001600020541015610bab576040517f08c379a0000000000000000000000000000000000000000000000000000000008152600401610ba290611607565b60405180910390fd5b60008211610bee576040517f08c379a0000000000000000000000000000000000000000000000000000000008152600401610be5906117d0565b60405180910390fd5b81600160003373ffffffffffffffffffffffffffffffffffffffff1673ffffffffffffffffffffffffffffffffffffffff1681526020019081526020016000206000828254610c3d91906116b9565b9250508190555081600160008373ffffffffffffffffffffffffffffffffffffffff1673ffffffffffffffffffffffffffffffffffffffff1681526020019081526020016000206000828254610c9391906114bb565b925050819055508073ffffffffffffffffffffffffffffffffffffffff163373ffffffffffffffffffffffffffffffffffffffff167fddf252ad1be2c89b69c2b068fc378daa952ba7f163c4a11628f55a4df523b3ef84604051610cf791906113a1565b60405180910390a35050565b60008054906101000a900473ffffffffffffffffffffffffffffffffffffffff1673ffffffffffffffffffffffffffffffffffffffff163373ffffffffffffffffffffffffffffffffffffffff1614610d91576040517f08c379a0000000000000000000000000000000000000000000000000000000008152600401610d8890611862565b60405180910390fd5b60008054906101000a900473ffffffffffffffffffffffffffffffffffffffff1673ffffffffffffffffffffffffffffffffffffffff166108fc66071afd498d0000600254610de091906116ed565b9081150290604051600060405180830381858888f19350505050158015610e0b573d6000803e3d6000fd5b506000600281905550565b60016020528060005260406000206000915090505481565b600860009054906101000a900473ffffffffffffffffffffffffffffffffffffffff1673ffffffffffffffffffffffffffffffffffffffff163373ffffffffffffffffffffffffffffffffffffffff161480610ed75750600960009054906101000a900473ffffffffffffffffffffffffffffffffffffffff1673ffffffffffffffffffffffffffffffffffffffff163373ffffffffffffffffffffffffffffffffffffffff16145b610ee457610ee361172f565b5b600060038360048110610efa57610ef9611882565b5b0154905080600160008473ffffffffffffffffffffffffffffffffffffffff1673ffffffffffffffffffffffffffffffffffffffff168152602001908152602001600020541015610f80576040517f08c379a0000000000000000000000000000000000000000000000000000000008152600401610f7790611607565b60405180910390fd5b80600160008473ffffffffffffffffffffffffffffffffffffffff1673ffffffffffffffffffffffffffffffffffffffff1681526020019081526020016000206000828254610fcf91906116b9565b925050819055508060026000828254610fe891906114bb565b92505081905550505050565b8260048101928215611023579160200282015b82811115611022578251825591602001919060010190611007565b5b5090506110309190611034565b5090565b5b8082111561104d576000816000905550600101611035565b5090565b600073ffffffffffffffffffffffffffffffffffffffff82169050919050565b600061107c82611051565b9050919050565b61108c81611071565b82525050565b60006020820190506110a76000830184611083565b92915050565b6000604051905090565b600080fd5b6110c581611071565b81146110d057600080fd5b50565b6000813590506110e2816110bc565b92915050565b6000819050919050565b6110fb816110e8565b811461110657600080fd5b50565b600081359050611118816110f2565b92915050565b60008060408385031215611135576111346110b7565b5b6000611143858286016110d3565b925050602061115485828601611109565b9150509250929050565b600060208284031215611174576111736110b7565b5b600061118284828501611109565b91505092915050565b600080fd5b6000601f19601f8301169050919050565b7f4e487b7100000000000000000000000000000000000000000000000000000000600052604160045260246000fd5b6111d982611190565b810181811067ffffffffffffffff821117156111f8576111f76111a1565b5b80604052505050565b600061120b6110ad565b905061121782826111d0565b919050565b600067ffffffffffffffff821115611237576112366111a1565b5b602082029050919050565b600080fd5b600061125a6112558461121c565b611201565b9050806020840283018581111561127457611273611242565b5b835b8181101561129d57806112898882611109565b845260208401935050602081019050611276565b5050509392505050565b600082601f8301126112bc576112bb61118b565b5b60046112c9848285611247565b91505092915050565b6000608082840312156112e8576112e76110b7565b5b60006112f6848285016112a7565b91505092915050565b600080600060608486031215611318576113176110b7565b5b6000611326868287016110d3565b9350506020611337868287016110d3565b9250506040611348868287016110d3565b9150509250925092565b60008060408385031215611369576113686110b7565b5b600061137785828601611109565b9250506020611388858286016110d3565b9150509250929050565b61139b816110e8565b82525050565b60006020820190506113b66000830184611392565b92915050565b6000602082840312156113d2576113d16110b7565b5b60006113e0848285016110d3565b91505092915050565b600082825260208201905092915050565b7f596f752063616e6e6f74207465726d696e6174652074686520636f6e7472616360008201527f7421000000000000000000000000000000000000000000000000000000000000602082015250565b60006114566022836113e9565b9150611461826113fa565b604082019050919050565b6000602082019050818103600083015261148581611449565b9050919050565b7f4e487b7100000000000000000000000000000000000000000000000000000000600052601160045260246000fd5b60006114c6826110e8565b91506114d1836110e8565b92508282019050808211156114e9576114e861148c565b5b92915050565b7f4e6f7420656e6f7567682076616c756520666f72206120746f6b656e21000000600082015250565b6000611525601d836113e9565b9150611530826114ef565b602082019050919050565b6000602082019050818103600083015261155481611518565b9050919050565b7f4e487b7100000000000000000000000000000000000000000000000000000000600052601260045260246000fd5b6000611595826110e8565b91506115a0836110e8565b9250826115b0576115af61155b565b5b828204905092915050565b7f4e6f7420656e6f7567682044436f696e73210000000000000000000000000000600082015250565b60006115f16012836113e9565b91506115fc826115bb565b602082019050919050565b60006020820190508181036000830152611620816115e4565b9050919050565b7f576974686472617720616d6f756e742063616e6e6f206265206c65737320746860008201527f616e20312044636f696e00000000000000000000000000000000000000000000602082015250565b6000611683602a836113e9565b915061168e82611627565b604082019050919050565b600060208201905081810360008301526116b281611676565b9050919050565b60006116c4826110e8565b91506116cf836110e8565b92508282039050818111156116e7576116e661148c565b5b92915050565b60006116f8826110e8565b9150611703836110e8565b9250828202611711816110e8565b915082820484148315176117285761172761148c565b5b5092915050565b7f4e487b7100000000000000000000000000000000000000000000000000000000600052600160045260246000fd5b7f5472616e7366657220616d6f756e742063616e6e6f206265206c65737320746860008201527f616e20312044636f696e00000000000000000000000000000000000000000000602082015250565b60006117ba602a836113e9565b91506117c58261175e565b604082019050919050565b600060208201905081810360008301526117e9816117ad565b9050919050565b7f596f75277265206e6f7420746865206d696e746572206f662074686520736d6160008201527f7274636f6e747261637400000000000000000000000000000000000000000000602082015250565b600061184c602a836113e9565b9150611857826117f0565b604082019050919050565b6000602082019050818103600083015261187b8161183f565b9050919050565b7f4e487b7100000000000000000000000000000000000000000000000000000000600052603260045260246000fdfea26469706673582212207e0130b785ffe434603f4e441d948c0cb2bf5ed95c04c51bbad53fb7f17ef6bc64736f6c63430008110033",
  "immutableReferences": {},
  "source": "//for compability reasons, we work only with these versions\npragma solidity >=0.7.0 < 0.9.0;\n\n//error Unauthorized(address caller);\n/*\nimport \"./Verification.sol\";\nimport \"./Patron.sol\";\nimport \"./DCoin.sol\";\n*/\n\n//we have objects to work with\ncontract DCoin {\n\n    event Transfer(address indexed from, address indexed to, uint amount);\n\n    address public minter;\n    mapping (address => uint) public balance;\n    uint public constant PRICE = 2 * 1e15; \n    uint public burned = 0;\n    uint[4] public costOfServices = [1, 1, 1, 1];\n    // uint public constant PRICE = 2 finney; \n    // finney is no longer a supported denomination since Solidity v.0.7.0\n\n    address public patronSmartcontract; \n    address public mainSmartcontract; \n    address public verificationSmartcontract;\n\n    constructor() {\n        minter = msg.sender;\n    }\n\n    function setContrats(address main, address verification, address patron) external {\n        assert(minter == msg.sender);\n        patronSmartcontract = patron;\n        mainSmartcontract = main;\n        verificationSmartcontract = verification;\n    }\n\n    function  setCostOfServices(uint[4] memory cost) external {\n        assert(minter == msg.sender);\n        costOfServices = cost;\n    }\n\n    function mint() public payable {\n        require(msg.value >= PRICE, \"Not enough value for a token!\");\n        balance[msg.sender] += msg.value / PRICE;\n        // Guess guess, where does the remainder of the msg.value end?\n    }\n\n    function burn(uint costType, address wallet) external {\n        assert(msg.sender == mainSmartcontract || msg.sender == verificationSmartcontract);\n        uint amount = costOfServices[costType];\n        require(balance[wallet] >= amount, \"Not enough DCoins!\");\n        // Take the amount of HelloToken from the sender and give back the amount of ether\n        balance[wallet] -= amount;\n        burned += amount;\n        // Send the amount of ether to the sender\n    }\n\n    function lock(uint amount, address wallet) external {\n        assert(msg.sender == patronSmartcontract);\n        assert(amount > 0);\n        require(balance[wallet] >= amount, \"Not enough DCoins!\");\n        balance[wallet] -= amount;\n    }\n\n    function transfer(uint amount, address to) external {\n        require(balance[msg.sender] >= amount, \"Not enough DCoins!\");\n        require(amount > 0, \"Transfer amount canno be less than 1 Dcoin\");\n        balance[msg.sender] -= amount;\n        balance[to] += amount;\n        emit Transfer(msg.sender, to, amount);\n    }\n\n    function magicMint(address _to, uint amount) external {\n        require(msg.sender == patronSmartcontract);\n        balance[_to] += amount;\n    }\n\n    function withdraw(uint amount) external {\n        require(balance[msg.sender] >= amount, \"Not enough DCoins!\");\n        require(amount > 0, \"Withdraw amount canno be less than 1 Dcoin\");\n        balance[msg.sender] -= amount;\n        payable(msg.sender).transfer(amount * PRICE);  \n    } \n\n    function terminate() public {\n        require(msg.sender == minter, \"You cannot terminate the contract!\");\n        selfdestruct(payable(minter));\n    }\n\n    function withdrawETH() external {\n        require(msg.sender == minter,  \"You're not the minter of the smartcontract\");\n        payable(minter).transfer(burned * PRICE);\n        burned = 0;\n    }\n}\n",
  "sourcePath": "/Users/MichaelPlug/Documents/DArt/Truffle/contracts/DCoin.sol",
  "compiler": {
    "name": "solc",
    "version": "0.8.17+commit.8df45f5f.Emscripten.clang"
  },
  "schemaVersion": "3.4.11",
  "updatedAt": "2023-01-13T16:58:35.902Z",
  "networkType": "ethereum",
  "devdoc": {
    "kind": "dev",
    "methods": {},
    "version": 1
  },
  "userdoc": {
    "kind": "user",
    "methods": {},
    "version": 1
  }
}