{
  "contractName": "DCoin",
  "abi": [
    {
      "inputs": [],
      "stateMutability": "nonpayable",
      "type": "constructor"
    },
    {
      "inputs": [],
      "name": "PRICE",
      "outputs": [
        {
          "internalType": "uint256",
          "name": "",
          "type": "uint256"
        }
      ],
      "stateMutability": "view",
      "type": "function",
      "constant": true
    },
    {
      "inputs": [
        {
          "internalType": "address",
          "name": "",
          "type": "address"
        }
      ],
      "name": "balance",
      "outputs": [
        {
          "internalType": "uint256",
          "name": "",
          "type": "uint256"
        }
      ],
      "stateMutability": "view",
      "type": "function",
      "constant": true
    },
    {
      "inputs": [],
      "name": "burned",
      "outputs": [
        {
          "internalType": "uint256",
          "name": "",
          "type": "uint256"
        }
      ],
      "stateMutability": "view",
      "type": "function",
      "constant": true
    },
    {
      "inputs": [
        {
          "internalType": "uint256",
          "name": "",
          "type": "uint256"
        }
      ],
      "name": "costOfServices",
      "outputs": [
        {
          "internalType": "uint256",
          "name": "",
          "type": "uint256"
        }
      ],
      "stateMutability": "view",
      "type": "function",
      "constant": true
    },
    {
      "inputs": [],
      "name": "mainSmartcontract",
      "outputs": [
        {
          "internalType": "address",
          "name": "",
          "type": "address"
        }
      ],
      "stateMutability": "view",
      "type": "function",
      "constant": true
    },
    {
      "inputs": [],
      "name": "minter",
      "outputs": [
        {
          "internalType": "address",
          "name": "",
          "type": "address"
        }
      ],
      "stateMutability": "view",
      "type": "function",
      "constant": true
    },
    {
      "inputs": [],
      "name": "patronSmartcontract",
      "outputs": [
        {
          "internalType": "address",
          "name": "",
          "type": "address"
        }
      ],
      "stateMutability": "view",
      "type": "function",
      "constant": true
    },
    {
      "inputs": [],
      "name": "verificationSmartcontract",
      "outputs": [
        {
          "internalType": "address",
          "name": "",
          "type": "address"
        }
      ],
      "stateMutability": "view",
      "type": "function",
      "constant": true
    },
    {
      "inputs": [
        {
          "internalType": "address",
          "name": "main",
          "type": "address"
        },
        {
          "internalType": "address",
          "name": "verification",
          "type": "address"
        },
        {
          "internalType": "address",
          "name": "patron",
          "type": "address"
        }
      ],
      "name": "setContrats",
      "outputs": [],
      "stateMutability": "nonpayable",
      "type": "function"
    },
    {
      "inputs": [
        {
          "internalType": "uint256[4]",
          "name": "cost",
          "type": "uint256[4]"
        }
      ],
      "name": "setCostOfServices",
      "outputs": [],
      "stateMutability": "nonpayable",
      "type": "function"
    },
    {
      "inputs": [],
      "name": "mint",
      "outputs": [],
      "stateMutability": "payable",
      "type": "function",
      "payable": true
    },
    {
      "inputs": [
        {
          "internalType": "uint256",
          "name": "costType",
          "type": "uint256"
        },
        {
          "internalType": "address",
          "name": "wallet",
          "type": "address"
        }
      ],
      "name": "burn",
      "outputs": [],
      "stateMutability": "nonpayable",
      "type": "function"
    },
    {
      "inputs": [
        {
          "internalType": "uint256",
          "name": "amount",
          "type": "uint256"
        },
        {
          "internalType": "address",
          "name": "wallet",
          "type": "address"
        }
      ],
      "name": "lock",
      "outputs": [],
      "stateMutability": "nonpayable",
      "type": "function"
    },
    {
      "inputs": [
        {
          "internalType": "uint256",
          "name": "amount",
          "type": "uint256"
        },
        {
          "internalType": "address",
          "name": "to",
          "type": "address"
        }
      ],
      "name": "transfer",
      "outputs": [],
      "stateMutability": "nonpayable",
      "type": "function"
    },
    {
      "inputs": [
        {
          "internalType": "address",
          "name": "_to",
          "type": "address"
        },
        {
          "internalType": "uint256",
          "name": "amount",
          "type": "uint256"
        }
      ],
      "name": "magicMint",
      "outputs": [],
      "stateMutability": "nonpayable",
      "type": "function"
    },
    {
      "inputs": [
        {
          "internalType": "uint256",
          "name": "amount",
          "type": "uint256"
        }
      ],
      "name": "withdraw",
      "outputs": [],
      "stateMutability": "nonpayable",
      "type": "function"
    },
    {
      "inputs": [],
      "name": "terminate",
      "outputs": [],
      "stateMutability": "nonpayable",
      "type": "function"
    },
    {
      "inputs": [],
      "name": "withdrawETH",
      "outputs": [],
      "stateMutability": "nonpayable",
      "type": "function"
    }
  ],
  "bytecode": "0x608060405260006002556040518060800160405280600160ff168152602001600160ff168152602001600160ff168152602001600160ff1681525060039060046200004c929190620000a1565b503480156200005a57600080fd5b50336000806101000a81548173ffffffffffffffffffffffffffffffffffffffff021916908373ffffffffffffffffffffffffffffffffffffffff1602179055506200010a565b8260048101928215620000d8579160200282015b82811115620000d7578251829060ff16905591602001919060010190620000b5565b5b509050620000e79190620000eb565b5090565b5b8082111562000106576000816000905550600101620000ec565b5090565b611882806200011a6000396000f3fe6080604052600436106101095760003560e01c806366dfbfb411610095578063954abe3411610064578063954abe3414610310578063b7760c8f1461033b578063e086e5ec14610364578063e3d670d71461037b578063fcd3533c146103b857610109565b806366dfbfb41461025457806373f425611461027d578063747c7338146102a85780638d859f3e146102e557610109565b80632e1a7d4d116100dc5780632e1a7d4d146101835780632ef52674146101ac5780634b60690d146101d55780635a9ebcf014610200578063603e5f251461022957610109565b8063075461721461010e5780630c08bf88146101395780630f177a6f146101505780631249c58b14610179575b600080fd5b34801561011a57600080fd5b506101236103e1565b604051610130919061102d565b60405180910390f35b34801561014557600080fd5b5061014e610405565b005b34801561015c57600080fd5b50610177600480360381019061017291906110b9565b6104cc565b005b610181610580565b005b34801561018f57600080fd5b506101aa60048036038101906101a591906110f9565b610634565b005b3480156101b857600080fd5b506101d360048036038101906101ce919061126d565b6107ab565b005b3480156101e157600080fd5b506101ea61081c565b6040516101f7919061102d565b60405180910390f35b34801561020c57600080fd5b506102276004803603810190610222919061129a565b610842565b005b34801561023557600080fd5b5061023e610966565b60405161024b919061102d565b60405180910390f35b34801561026057600080fd5b5061027b600480360381019061027691906112ed565b61098c565b005b34801561028957600080fd5b50610292610ad7565b60405161029f919061133c565b60405180910390f35b3480156102b457600080fd5b506102cf60048036038101906102ca91906110f9565b610add565b6040516102dc919061133c565b60405180910390f35b3480156102f157600080fd5b506102fa610af8565b604051610307919061133c565b60405180910390f35b34801561031c57600080fd5b50610325610b03565b604051610332919061102d565b60405180910390f35b34801561034757600080fd5b50610362600480360381019061035d91906112ed565b610b29565b005b34801561037057600080fd5b50610379610c9e565b005b34801561038757600080fd5b506103a2600480360381019061039d9190611357565b610db1565b6040516103af919061133c565b60405180910390f35b3480156103c457600080fd5b506103df60048036038101906103da91906112ed565b610dc9565b005b60008054906101000a900473ffffffffffffffffffffffffffffffffffffffff1681565b60008054906101000a900473ffffffffffffffffffffffffffffffffffffffff1673ffffffffffffffffffffffffffffffffffffffff163373ffffffffffffffffffffffffffffffffffffffff1614610493576040517f08c379a000000000000000000000000000000000000000000000000000000000815260040161048a90611407565b60405180910390fd5b60008054906101000a900473ffffffffffffffffffffffffffffffffffffffff1673ffffffffffffffffffffffffffffffffffffffff16ff5b600760009054906101000a900473ffffffffffffffffffffffffffffffffffffffff1673ffffffffffffffffffffffffffffffffffffffff163373ffffffffffffffffffffffffffffffffffffffff161461052657600080fd5b80600160008473ffffffffffffffffffffffffffffffffffffffff1673ffffffffffffffffffffffffffffffffffffffff16815260200190815260200160002060008282546105759190611456565b925050819055505050565b66071afd498d00003410156105ca576040517f08c379a00000000000000000000000000000000000000000000000000000000081526004016105c1906114d6565b60405180910390fd5b66071afd498d0000346105dd9190611525565b600160003373ffffffffffffffffffffffffffffffffffffffff1673ffffffffffffffffffffffffffffffffffffffff168152602001908152602001600020600082825461062b9190611456565b92505081905550565b80600160003373ffffffffffffffffffffffffffffffffffffffff1673ffffffffffffffffffffffffffffffffffffffff1681526020019081526020016000205410156106b6576040517f08c379a00000000000000000000000000000000000000000000000000000000081526004016106ad906115a2565b60405180910390fd5b600081116106f9576040517f08c379a00000000000000000000000000000000000000000000000000000000081526004016106f090611634565b60405180910390fd5b80600160003373ffffffffffffffffffffffffffffffffffffffff1673ffffffffffffffffffffffffffffffffffffffff16815260200190815260200160002060008282546107489190611654565b925050819055503373ffffffffffffffffffffffffffffffffffffffff166108fc66071afd498d00008361077c9190611688565b9081150290604051600060405180830381858888f193505050501580156107a7573d6000803e3d6000fd5b5050565b3373ffffffffffffffffffffffffffffffffffffffff1660008054906101000a900473ffffffffffffffffffffffffffffffffffffffff1673ffffffffffffffffffffffffffffffffffffffff1614610807576108066116ca565b5b806003906004610818929190610f8f565b5050565b600860009054906101000a900473ffffffffffffffffffffffffffffffffffffffff1681565b3373ffffffffffffffffffffffffffffffffffffffff1660008054906101000a900473ffffffffffffffffffffffffffffffffffffffff1673ffffffffffffffffffffffffffffffffffffffff161461089e5761089d6116ca565b5b80600760006101000a81548173ffffffffffffffffffffffffffffffffffffffff021916908373ffffffffffffffffffffffffffffffffffffffff16021790555082600860006101000a81548173ffffffffffffffffffffffffffffffffffffffff021916908373ffffffffffffffffffffffffffffffffffffffff16021790555081600960006101000a81548173ffffffffffffffffffffffffffffffffffffffff021916908373ffffffffffffffffffffffffffffffffffffffff160217905550505050565b600760009054906101000a900473ffffffffffffffffffffffffffffffffffffffff1681565b600760009054906101000a900473ffffffffffffffffffffffffffffffffffffffff1673ffffffffffffffffffffffffffffffffffffffff163373ffffffffffffffffffffffffffffffffffffffff16146109ea576109e96116ca565b5b600082116109fb576109fa6116ca565b5b81600160008373ffffffffffffffffffffffffffffffffffffffff1673ffffffffffffffffffffffffffffffffffffffff168152602001908152602001600020541015610a7d576040517f08c379a0000000000000000000000000000000000000000000000000000000008152600401610a74906115a2565b60405180910390fd5b81600160008373ffffffffffffffffffffffffffffffffffffffff1673ffffffffffffffffffffffffffffffffffffffff1681526020019081526020016000206000828254610acc9190611654565b925050819055505050565b60025481565b60038160048110610aed57600080fd5b016000915090505481565b66071afd498d000081565b600960009054906101000a900473ffffffffffffffffffffffffffffffffffffffff1681565b81600160003373ffffffffffffffffffffffffffffffffffffffff1673ffffffffffffffffffffffffffffffffffffffff168152602001908152602001600020541015610bab576040517f08c379a0000000000000000000000000000000000000000000000000000000008152600401610ba2906115a2565b60405180910390fd5b60008211610bee576040517f08c379a0000000000000000000000000000000000000000000000000000000008152600401610be59061176b565b60405180910390fd5b81600160003373ffffffffffffffffffffffffffffffffffffffff1673ffffffffffffffffffffffffffffffffffffffff1681526020019081526020016000206000828254610c3d9190611654565b9250508190555081600160008373ffffffffffffffffffffffffffffffffffffffff1673ffffffffffffffffffffffffffffffffffffffff1681526020019081526020016000206000828254610c939190611456565b925050819055505050565b60008054906101000a900473ffffffffffffffffffffffffffffffffffffffff1673ffffffffffffffffffffffffffffffffffffffff163373ffffffffffffffffffffffffffffffffffffffff1614610d2c576040517f08c379a0000000000000000000000000000000000000000000000000000000008152600401610d23906117fd565b60405180910390fd5b60008054906101000a900473ffffffffffffffffffffffffffffffffffffffff1673ffffffffffffffffffffffffffffffffffffffff166108fc66071afd498d0000600254610d7b9190611688565b9081150290604051600060405180830381858888f19350505050158015610da6573d6000803e3d6000fd5b506000600281905550565b60016020528060005260406000206000915090505481565b600860009054906101000a900473ffffffffffffffffffffffffffffffffffffffff1673ffffffffffffffffffffffffffffffffffffffff163373ffffffffffffffffffffffffffffffffffffffff161480610e725750600960009054906101000a900473ffffffffffffffffffffffffffffffffffffffff1673ffffffffffffffffffffffffffffffffffffffff163373ffffffffffffffffffffffffffffffffffffffff16145b610e7f57610e7e6116ca565b5b600060038360048110610e9557610e9461181d565b5b0154905080600160008473ffffffffffffffffffffffffffffffffffffffff1673ffffffffffffffffffffffffffffffffffffffff168152602001908152602001600020541015610f1b576040517f08c379a0000000000000000000000000000000000000000000000000000000008152600401610f12906115a2565b60405180910390fd5b80600160008473ffffffffffffffffffffffffffffffffffffffff1673ffffffffffffffffffffffffffffffffffffffff1681526020019081526020016000206000828254610f6a9190611654565b925050819055508060026000828254610f839190611456565b92505081905550505050565b8260048101928215610fbe579160200282015b82811115610fbd578251825591602001919060010190610fa2565b5b509050610fcb9190610fcf565b5090565b5b80821115610fe8576000816000905550600101610fd0565b5090565b600073ffffffffffffffffffffffffffffffffffffffff82169050919050565b600061101782610fec565b9050919050565b6110278161100c565b82525050565b6000602082019050611042600083018461101e565b92915050565b6000604051905090565b600080fd5b6110608161100c565b811461106b57600080fd5b50565b60008135905061107d81611057565b92915050565b6000819050919050565b61109681611083565b81146110a157600080fd5b50565b6000813590506110b38161108d565b92915050565b600080604083850312156110d0576110cf611052565b5b60006110de8582860161106e565b92505060206110ef858286016110a4565b9150509250929050565b60006020828403121561110f5761110e611052565b5b600061111d848285016110a4565b91505092915050565b600080fd5b6000601f19601f8301169050919050565b7f4e487b7100000000000000000000000000000000000000000000000000000000600052604160045260246000fd5b6111748261112b565b810181811067ffffffffffffffff821117156111935761119261113c565b5b80604052505050565b60006111a6611048565b90506111b2828261116b565b919050565b600067ffffffffffffffff8211156111d2576111d161113c565b5b602082029050919050565b600080fd5b60006111f56111f0846111b7565b61119c565b9050806020840283018581111561120f5761120e6111dd565b5b835b81811015611238578061122488826110a4565b845260208401935050602081019050611211565b5050509392505050565b600082601f83011261125757611256611126565b5b60046112648482856111e2565b91505092915050565b60006080828403121561128357611282611052565b5b600061129184828501611242565b91505092915050565b6000806000606084860312156112b3576112b2611052565b5b60006112c18682870161106e565b93505060206112d28682870161106e565b92505060406112e38682870161106e565b9150509250925092565b6000806040838503121561130457611303611052565b5b6000611312858286016110a4565b92505060206113238582860161106e565b9150509250929050565b61133681611083565b82525050565b6000602082019050611351600083018461132d565b92915050565b60006020828403121561136d5761136c611052565b5b600061137b8482850161106e565b91505092915050565b600082825260208201905092915050565b7f596f752063616e6e6f74207465726d696e6174652074686520636f6e7472616360008201527f7421000000000000000000000000000000000000000000000000000000000000602082015250565b60006113f1602283611384565b91506113fc82611395565b604082019050919050565b60006020820190508181036000830152611420816113e4565b9050919050565b7f4e487b7100000000000000000000000000000000000000000000000000000000600052601160045260246000fd5b600061146182611083565b915061146c83611083565b925082820190508082111561148457611483611427565b5b92915050565b7f4e6f7420656e6f7567682076616c756520666f72206120746f6b656e21000000600082015250565b60006114c0601d83611384565b91506114cb8261148a565b602082019050919050565b600060208201905081810360008301526114ef816114b3565b9050919050565b7f4e487b7100000000000000000000000000000000000000000000000000000000600052601260045260246000fd5b600061153082611083565b915061153b83611083565b92508261154b5761154a6114f6565b5b828204905092915050565b7f4e6f7420656e6f7567682044436f696e73210000000000000000000000000000600082015250565b600061158c601283611384565b915061159782611556565b602082019050919050565b600060208201905081810360008301526115bb8161157f565b9050919050565b7f576974686472617720616d6f756e742063616e6e6f206265206c65737320746860008201527f616e20312044636f696e00000000000000000000000000000000000000000000602082015250565b600061161e602a83611384565b9150611629826115c2565b604082019050919050565b6000602082019050818103600083015261164d81611611565b9050919050565b600061165f82611083565b915061166a83611083565b925082820390508181111561168257611681611427565b5b92915050565b600061169382611083565b915061169e83611083565b92508282026116ac81611083565b915082820484148315176116c3576116c2611427565b5b5092915050565b7f4e487b7100000000000000000000000000000000000000000000000000000000600052600160045260246000fd5b7f5472616e7366657220616d6f756e742063616e6e6f206265206c65737320746860008201527f616e20312044636f696e00000000000000000000000000000000000000000000602082015250565b6000611755602a83611384565b9150611760826116f9565b604082019050919050565b6000602082019050818103600083015261178481611748565b9050919050565b7f596f75277265206e6f7420746865206d696e746572206f662074686520736d6160008201527f7274636f6e747261637400000000000000000000000000000000000000000000602082015250565b60006117e7602a83611384565b91506117f28261178b565b604082019050919050565b60006020820190508181036000830152611816816117da565b9050919050565b7f4e487b7100000000000000000000000000000000000000000000000000000000600052603260045260246000fdfea2646970667358221220da64290baef9db371bbfd2748871592d5ae9648b57b33c2745bee88616566ce264736f6c63430008110033",
  "immutableReferences": {},
  "source": "//for compability reasons, we work only with these versions\npragma solidity >=0.7.0 < 0.9.0;\n\n//error Unauthorized(address caller);\n/*\nimport \"./Verification.sol\";\nimport \"./Patron.sol\";\nimport \"./DCoin.sol\";\n*/\n\n//we have objects to work with\ncontract DCoin {\n    address public minter;\n    mapping (address => uint) public balance;\n    uint public constant PRICE = 2 * 1e15; \n    uint public burned = 0;\n    uint[4] public costOfServices = [1, 1, 1, 1];\n    // uint public constant PRICE = 2 finney; \n    // finney is no longer a supported denomination since Solidity v.0.7.0\n\n    address public patronSmartcontract; \n    address public mainSmartcontract; \n    address public verificationSmartcontract;\n\n    constructor() {\n        minter = msg.sender;\n    }\n\n    function setContrats(address main, address verification, address patron) external {\n        assert(minter == msg.sender);\n        patronSmartcontract = patron;\n        mainSmartcontract = main;\n        verificationSmartcontract = verification;\n    }\n\n    function  setCostOfServices(uint[4] memory cost) external {\n        assert(minter == msg.sender);\n        costOfServices = cost;\n    }\n\n    function mint() public payable {\n        require(msg.value >= PRICE, \"Not enough value for a token!\");\n        balance[msg.sender] += msg.value / PRICE;\n        // Guess guess, where does the remainder of the msg.value end?\n    }\n\n    function burn(uint costType, address wallet) external {\n        assert(msg.sender == mainSmartcontract || msg.sender == verificationSmartcontract);\n        uint amount = costOfServices[costType];\n        require(balance[wallet] >= amount, \"Not enough DCoins!\");\n        // Take the amount of HelloToken from the sender and give back the amount of ether\n        balance[wallet] -= amount;\n        burned += amount;\n        // Send the amount of ether to the sender\n    }\n\n    function lock(uint amount, address wallet) external {\n        assert(msg.sender == patronSmartcontract);\n        assert(amount > 0);\n        require(balance[wallet] >= amount, \"Not enough DCoins!\");\n        balance[wallet] -= amount;\n    }\n\n    function transfer(uint amount, address to) external {\n        require(balance[msg.sender] >= amount, \"Not enough DCoins!\");\n        require(amount > 0, \"Transfer amount canno be less than 1 Dcoin\");\n        balance[msg.sender] -= amount;\n        balance[to] += amount;\n    }\n\n    function magicMint(address _to, uint amount) external {\n        require(msg.sender == patronSmartcontract);\n        balance[_to] += amount;\n    }\n\n    function withdraw(uint amount) external {\n        require(balance[msg.sender] >= amount, \"Not enough DCoins!\");\n        require(amount > 0, \"Withdraw amount canno be less than 1 Dcoin\");\n        balance[msg.sender] -= amount;\n        payable(msg.sender).transfer(amount * PRICE);  \n    } \n\n    function terminate() public {\n        require(msg.sender == minter, \"You cannot terminate the contract!\");\n        selfdestruct(payable(minter));\n    }\n\n    function withdrawETH() external {\n        require(msg.sender == minter,  \"You're not the minter of the smartcontract\");\n        payable(minter).transfer(burned * PRICE);\n        burned = 0;\n    }\n}\n",
  "sourcePath": "/Users/MichaelPlug/Documents/DArt/Truffle/contracts/DCoin.sol",
  "compiler": {
    "name": "solc",
    "version": "0.8.17+commit.8df45f5f.Emscripten.clang"
  },
  "schemaVersion": "3.4.11",
  "updatedAt": "2023-01-12T20:20:41.340Z",
  "networkType": "ethereum",
  "devdoc": {
    "kind": "dev",
    "methods": {},
    "version": 1
  },
  "userdoc": {
    "kind": "user",
    "methods": {},
    "version": 1
  }
}