{
  "contractName": "Patron",
  "abi": [
    {
      "inputs": [],
      "stateMutability": "nonpayable",
      "type": "constructor"
    },
    {
      "inputs": [],
      "name": "dcoinSmartcontract",
      "outputs": [
        {
          "internalType": "contract DCoin",
          "name": "",
          "type": "address"
        }
      ],
      "stateMutability": "view",
      "type": "function",
      "constant": true
    },
    {
      "inputs": [
        {
          "internalType": "bytes32",
          "name": "",
          "type": "bytes32"
        }
      ],
      "name": "funds",
      "outputs": [
        {
          "internalType": "uint256",
          "name": "",
          "type": "uint256"
        }
      ],
      "stateMutability": "view",
      "type": "function",
      "constant": true
    },
    {
      "inputs": [],
      "name": "mainSmartcontract",
      "outputs": [
        {
          "internalType": "contract DArt",
          "name": "",
          "type": "address"
        }
      ],
      "stateMutability": "view",
      "type": "function",
      "constant": true
    },
    {
      "inputs": [],
      "name": "minter",
      "outputs": [
        {
          "internalType": "address",
          "name": "",
          "type": "address"
        }
      ],
      "stateMutability": "view",
      "type": "function",
      "constant": true
    },
    {
      "inputs": [
        {
          "internalType": "bytes32",
          "name": "",
          "type": "bytes32"
        }
      ],
      "name": "patronCredit",
      "outputs": [
        {
          "internalType": "uint256",
          "name": "",
          "type": "uint256"
        }
      ],
      "stateMutability": "view",
      "type": "function",
      "constant": true
    },
    {
      "inputs": [
        {
          "internalType": "address",
          "name": "main",
          "type": "address"
        },
        {
          "internalType": "address",
          "name": "dcoin",
          "type": "address"
        }
      ],
      "name": "setContrats",
      "outputs": [],
      "stateMutability": "nonpayable",
      "type": "function"
    },
    {
      "inputs": [
        {
          "internalType": "bytes32",
          "name": "artwork",
          "type": "bytes32"
        },
        {
          "internalType": "uint256",
          "name": "amount",
          "type": "uint256"
        }
      ],
      "name": "crowfunding",
      "outputs": [],
      "stateMutability": "nonpayable",
      "type": "function"
    },
    {
      "inputs": [
        {
          "internalType": "address",
          "name": "first",
          "type": "address"
        },
        {
          "internalType": "address",
          "name": "second",
          "type": "address"
        }
      ],
      "name": "hashAddressAndAddress",
      "outputs": [
        {
          "internalType": "bytes32",
          "name": "",
          "type": "bytes32"
        }
      ],
      "stateMutability": "pure",
      "type": "function",
      "constant": true
    },
    {
      "inputs": [
        {
          "internalType": "bytes32",
          "name": "artwork",
          "type": "bytes32"
        }
      ],
      "name": "viewFunds",
      "outputs": [
        {
          "internalType": "uint256",
          "name": "",
          "type": "uint256"
        }
      ],
      "stateMutability": "view",
      "type": "function",
      "constant": true
    },
    {
      "inputs": [
        {
          "internalType": "address",
          "name": "patron",
          "type": "address"
        },
        {
          "internalType": "address",
          "name": "museum",
          "type": "address"
        }
      ],
      "name": "viewPatronCredit",
      "outputs": [
        {
          "internalType": "uint256",
          "name": "",
          "type": "uint256"
        }
      ],
      "stateMutability": "view",
      "type": "function",
      "constant": true
    },
    {
      "inputs": [
        {
          "internalType": "address",
          "name": "_to",
          "type": "address"
        },
        {
          "internalType": "bytes32",
          "name": "artwork",
          "type": "bytes32"
        }
      ],
      "name": "moveFunds",
      "outputs": [],
      "stateMutability": "nonpayable",
      "type": "function"
    },
    {
      "inputs": [],
      "name": "terminate",
      "outputs": [],
      "stateMutability": "nonpayable",
      "type": "function"
    }
  ],
  "bytecode": "0x608060405234801561001057600080fd5b5033600260006101000a81548173ffffffffffffffffffffffffffffffffffffffff021916908373ffffffffffffffffffffffffffffffffffffffff160217905550610e41806100616000396000f3fe608060405234801561001057600080fd5b50600436106100b45760003560e01c8063a3ed221d11610071578063a3ed221d1461017b578063a84a163a146101ab578063a915b5e2146101c7578063b37c16d2146101f7578063ce3d3d4814610213578063da8c80fa14610231576100b4565b806307546172146100b95780630b745c21146100d75780630c08bf88146100f35780633cdc4b58146100fd5780634b60690d1461012d5780636a29a6201461014b575b600080fd5b6100c1610261565b6040516100ce91906108b3565b60405180910390f35b6100f160048036038101906100ec91906108ff565b610287565b005b6100fb61036b565b005b610117600480360381019061011291906108ff565b610436565b6040516101249190610958565b60405180910390f35b61013561047b565b60405161014291906109d2565b60405180910390f35b61016560048036038101906101609190610a23565b6104a1565b6040516101729190610958565b60405180910390f35b61019560048036038101906101909190610a23565b6104b9565b6040516101a29190610958565b60405180910390f35b6101c560048036038101906101c09190610a50565b6104d6565b005b6101e160048036038101906101dc9190610a23565b610602565b6040516101ee9190610958565b60405180910390f35b610211600480360381019061020c9190610abc565b61061a565b005b61021b610819565b6040516102289190610b1d565b60405180910390f35b61024b600480360381019061024691906108ff565b61083f565b6040516102589190610b47565b60405180910390f35b600260009054906101000a900473ffffffffffffffffffffffffffffffffffffffff1681565b600260009054906101000a900473ffffffffffffffffffffffffffffffffffffffff1673ffffffffffffffffffffffffffffffffffffffff163373ffffffffffffffffffffffffffffffffffffffff16146102e5576102e4610b62565b5b81600460006101000a81548173ffffffffffffffffffffffffffffffffffffffff021916908373ffffffffffffffffffffffffffffffffffffffff16021790555080600360006101000a81548173ffffffffffffffffffffffffffffffffffffffff021916908373ffffffffffffffffffffffffffffffffffffffff1602179055505050565b600260009054906101000a900473ffffffffffffffffffffffffffffffffffffffff1673ffffffffffffffffffffffffffffffffffffffff163373ffffffffffffffffffffffffffffffffffffffff16146103fb576040517f08c379a00000000000000000000000000000000000000000000000000000000081526004016103f290610c14565b60405180910390fd5b600260009054906101000a900473ffffffffffffffffffffffffffffffffffffffff1673ffffffffffffffffffffffffffffffffffffffff16ff5b6000806000848460405160200161044e929190610c7c565b60405160208183030381529060405280519060200120815260200190815260200160002054905092915050565b600460009054906101000a900473ffffffffffffffffffffffffffffffffffffffff1681565b60016020528060005260406000206000915090505481565b600060016000838152602001908152602001600020549050919050565b600460009054906101000a900473ffffffffffffffffffffffffffffffffffffffff1673ffffffffffffffffffffffffffffffffffffffff163373ffffffffffffffffffffffffffffffffffffffff161461053457610533610b62565b5b600060016000838152602001908152602001600020549050600081146105fd57600360009054906101000a900473ffffffffffffffffffffffffffffffffffffffff1673ffffffffffffffffffffffffffffffffffffffff16630f177a6f84836040518363ffffffff1660e01b81526004016105b1929190610ca8565b600060405180830381600087803b1580156105cb57600080fd5b505af11580156105df573d6000803e3d6000fd5b50505050600060016000848152602001908152602001600020819055505b505050565b60006020528060005260406000206000915090505481565b6000600460009054906101000a900473ffffffffffffffffffffffffffffffffffffffff1673ffffffffffffffffffffffffffffffffffffffff1663463f7a89846040518263ffffffff1660e01b81526004016106779190610b47565b602060405180830381865afa158015610694573d6000803e3d6000fd5b505050506040513d601f19601f820116820180604052508101906106b89190610ce6565b9050600073ffffffffffffffffffffffffffffffffffffffff168173ffffffffffffffffffffffffffffffffffffffff1603610729576040517f08c379a000000000000000000000000000000000000000000000000000000000815260040161072090610d5f565b60405180910390fd5b600360009054906101000a900473ffffffffffffffffffffffffffffffffffffffff1673ffffffffffffffffffffffffffffffffffffffff166366dfbfb483336040518363ffffffff1660e01b8152600401610786929190610d7f565b600060405180830381600087803b1580156107a057600080fd5b505af11580156107b4573d6000803e3d6000fd5b50505050816001600085815260200190815260200160002060008282546107db9190610dd7565b92505081905550816000806107f0338561083f565b8152602001908152602001600020600082825461080d9190610dd7565b92505081905550505050565b600360009054906101000a900473ffffffffffffffffffffffffffffffffffffffff1681565b60008282604051602001610854929190610c7c565b60405160208183030381529060405280519060200120905092915050565b600073ffffffffffffffffffffffffffffffffffffffff82169050919050565b600061089d82610872565b9050919050565b6108ad81610892565b82525050565b60006020820190506108c860008301846108a4565b92915050565b600080fd5b6108dc81610892565b81146108e757600080fd5b50565b6000813590506108f9816108d3565b92915050565b60008060408385031215610916576109156108ce565b5b6000610924858286016108ea565b9250506020610935858286016108ea565b9150509250929050565b6000819050919050565b6109528161093f565b82525050565b600060208201905061096d6000830184610949565b92915050565b6000819050919050565b600061099861099361098e84610872565b610973565b610872565b9050919050565b60006109aa8261097d565b9050919050565b60006109bc8261099f565b9050919050565b6109cc816109b1565b82525050565b60006020820190506109e760008301846109c3565b92915050565b6000819050919050565b610a00816109ed565b8114610a0b57600080fd5b50565b600081359050610a1d816109f7565b92915050565b600060208284031215610a3957610a386108ce565b5b6000610a4784828501610a0e565b91505092915050565b60008060408385031215610a6757610a666108ce565b5b6000610a75858286016108ea565b9250506020610a8685828601610a0e565b9150509250929050565b610a998161093f565b8114610aa457600080fd5b50565b600081359050610ab681610a90565b92915050565b60008060408385031215610ad357610ad26108ce565b5b6000610ae185828601610a0e565b9250506020610af285828601610aa7565b9150509250929050565b6000610b078261099f565b9050919050565b610b1781610afc565b82525050565b6000602082019050610b326000830184610b0e565b92915050565b610b41816109ed565b82525050565b6000602082019050610b5c6000830184610b38565b92915050565b7f4e487b7100000000000000000000000000000000000000000000000000000000600052600160045260246000fd5b600082825260208201905092915050565b7f596f752063616e6e6f74207465726d696e6174652074686520636f6e7472616360008201527f7421000000000000000000000000000000000000000000000000000000000000602082015250565b6000610bfe602283610b91565b9150610c0982610ba2565b604082019050919050565b60006020820190508181036000830152610c2d81610bf1565b9050919050565b60008160601b9050919050565b6000610c4c82610c34565b9050919050565b6000610c5e82610c41565b9050919050565b610c76610c7182610892565b610c53565b82525050565b6000610c888285610c65565b601482019150610c988284610c65565b6014820191508190509392505050565b6000604082019050610cbd60008301856108a4565b610cca6020830184610949565b9392505050565b600081519050610ce0816108d3565b92915050565b600060208284031215610cfc57610cfb6108ce565b5b6000610d0a84828501610cd1565b91505092915050565b7f417274776f726b20646f6573206e6f7420657869737400000000000000000000600082015250565b6000610d49601683610b91565b9150610d5482610d13565b602082019050919050565b60006020820190508181036000830152610d7881610d3c565b9050919050565b6000604082019050610d946000830185610949565b610da160208301846108a4565b9392505050565b7f4e487b7100000000000000000000000000000000000000000000000000000000600052601160045260246000fd5b6000610de28261093f565b9150610ded8361093f565b9250828201905080821115610e0557610e04610da8565b5b9291505056fea2646970667358221220305c84c2916036fd003811634f0842861ea0622400e2b08bed121494cdf11ca864736f6c63430008110033",
  "immutableReferences": {},
  "source": "//for compability reasons, we work only with these versions\npragma solidity >=0.7.0 < 0.9.0;\n\nimport \"./DArt.sol\";\nimport \"./DCoin.sol\";\n\ncontract Patron {\n\n    mapping (bytes32 => uint) public patronCredit;\n    mapping (bytes32 => uint) public funds;\n\n    \n    address public minter;\n    //address public constant verificatioSmartcontract; \n    \n    DCoin public dcoinSmartcontract;\n    //address public dcoinSmartcontract; \n    DArt public mainSmartcontract; \n    \n\n    constructor(){\n        minter = msg.sender;\n    }\n\n\n    function setContrats(address main, address dcoin) external {\n        assert(msg.sender == minter);\n        mainSmartcontract = DArt(main);\n        dcoinSmartcontract = DCoin(dcoin);\n    }\n\n    function crowfunding(bytes32 artwork, uint amount) external {\n        address museum  = mainSmartcontract.getProperty(artwork);\n        require(museum != address(0x0), \"Artwork does not exist\");\n        dcoinSmartcontract.lock(amount, msg.sender);\n        funds[artwork] += amount;\n        patronCredit[hashAddressAndAddress(msg.sender, museum)] += amount;\n    }\n\n    function hashAddressAndAddress(address first, address second) public pure returns(bytes32) {\n        return keccak256(abi.encodePacked(first, second));\n    }\n\n    function viewFunds(bytes32 artwork) external view returns(uint){\n        return funds[artwork];\n    }\n\n    function viewPatronCredit(address patron, address museum) external view returns(uint){\n        return patronCredit[keccak256(abi.encodePacked(patron,museum))];\n    }\n\n    function moveFunds(address _to, bytes32 artwork) external {\n        assert(msg.sender == address(mainSmartcontract));\n        uint fund = funds[artwork];\n        if (fund != 0) {\n            dcoinSmartcontract.magicMint(_to, fund);\n            /*\n            (bool success, ) = dcoinSmartcontract.call(\n                abi.encodeWithSignature(\"magicMint(address, uint)\", _to, fund)\n            );\n            require(success, \"Dcoin failed to mint the amount\");\n            */\n//            dcoinSmartcontract.magicMint(_to, fund);\n            //dcoinSmartcontract.call(abi.encodingWithSignature(\"magicMint(address,amount)\",_to,funds[bytes32]));\n            funds[artwork] = 0;\n        }\n    }\n    \n    function terminate() public {\n        require(msg.sender == minter, \"You cannot terminate the contract!\");\n        selfdestruct(payable(minter));\n    }\n}",
  "sourcePath": "/Users/MichaelPlug/Documents/DArt/Truffle/contracts/Patron.sol",
  "compiler": {
    "name": "solc",
    "version": "0.8.17+commit.8df45f5f.Emscripten.clang"
  },
  "schemaVersion": "3.4.11",
  "updatedAt": "2023-01-12T20:20:41.358Z",
  "networkType": "ethereum",
  "devdoc": {
    "kind": "dev",
    "methods": {},
    "version": 1
  },
  "userdoc": {
    "kind": "user",
    "methods": {},
    "version": 1
  }
}