{
  "contractName": "Patron",
  "abi": [
    {
      "inputs": [],
      "stateMutability": "nonpayable",
      "type": "constructor"
    },
    {
      "anonymous": false,
      "inputs": [
        {
          "indexed": false,
          "internalType": "address",
          "name": "sender",
          "type": "address"
        },
        {
          "indexed": true,
          "internalType": "address",
          "name": "receiver",
          "type": "address"
        },
        {
          "indexed": false,
          "internalType": "bytes32",
          "name": "artwork",
          "type": "bytes32"
        },
        {
          "indexed": false,
          "internalType": "string",
          "name": "message",
          "type": "string"
        }
      ],
      "name": "Donation",
      "type": "event"
    },
    {
      "anonymous": false,
      "inputs": [
        {
          "indexed": true,
          "internalType": "address",
          "name": "receiver",
          "type": "address"
        },
        {
          "indexed": false,
          "internalType": "bytes32",
          "name": "artwork",
          "type": "bytes32"
        },
        {
          "indexed": false,
          "internalType": "string",
          "name": "message",
          "type": "string"
        }
      ],
      "name": "UnlockedFunds",
      "type": "event"
    },
    {
      "inputs": [],
      "name": "dcoinSmartcontract",
      "outputs": [
        {
          "internalType": "contract DCoin",
          "name": "",
          "type": "address"
        }
      ],
      "stateMutability": "view",
      "type": "function",
      "constant": true
    },
    {
      "inputs": [
        {
          "internalType": "bytes32",
          "name": "",
          "type": "bytes32"
        }
      ],
      "name": "funds",
      "outputs": [
        {
          "internalType": "uint256",
          "name": "",
          "type": "uint256"
        }
      ],
      "stateMutability": "view",
      "type": "function",
      "constant": true
    },
    {
      "inputs": [],
      "name": "mainSmartcontract",
      "outputs": [
        {
          "internalType": "contract DArt",
          "name": "",
          "type": "address"
        }
      ],
      "stateMutability": "view",
      "type": "function",
      "constant": true
    },
    {
      "inputs": [],
      "name": "minter",
      "outputs": [
        {
          "internalType": "address",
          "name": "",
          "type": "address"
        }
      ],
      "stateMutability": "view",
      "type": "function",
      "constant": true
    },
    {
      "inputs": [
        {
          "internalType": "bytes32",
          "name": "",
          "type": "bytes32"
        }
      ],
      "name": "patronCredit",
      "outputs": [
        {
          "internalType": "uint256",
          "name": "",
          "type": "uint256"
        }
      ],
      "stateMutability": "view",
      "type": "function",
      "constant": true
    },
    {
      "inputs": [
        {
          "internalType": "address",
          "name": "main",
          "type": "address"
        },
        {
          "internalType": "address",
          "name": "dcoin",
          "type": "address"
        }
      ],
      "name": "setContrats",
      "outputs": [],
      "stateMutability": "nonpayable",
      "type": "function"
    },
    {
      "inputs": [
        {
          "internalType": "bytes32",
          "name": "artwork",
          "type": "bytes32"
        },
        {
          "internalType": "uint256",
          "name": "amount",
          "type": "uint256"
        }
      ],
      "name": "crowfunding",
      "outputs": [],
      "stateMutability": "nonpayable",
      "type": "function"
    },
    {
      "inputs": [
        {
          "internalType": "address",
          "name": "first",
          "type": "address"
        },
        {
          "internalType": "address",
          "name": "second",
          "type": "address"
        }
      ],
      "name": "hashAddressAndAddress",
      "outputs": [
        {
          "internalType": "bytes32",
          "name": "",
          "type": "bytes32"
        }
      ],
      "stateMutability": "pure",
      "type": "function",
      "constant": true
    },
    {
      "inputs": [
        {
          "internalType": "bytes32",
          "name": "artwork",
          "type": "bytes32"
        }
      ],
      "name": "viewFunds",
      "outputs": [
        {
          "internalType": "uint256",
          "name": "",
          "type": "uint256"
        }
      ],
      "stateMutability": "view",
      "type": "function",
      "constant": true
    },
    {
      "inputs": [
        {
          "internalType": "address",
          "name": "patron",
          "type": "address"
        },
        {
          "internalType": "address",
          "name": "museum",
          "type": "address"
        }
      ],
      "name": "viewPatronCredit",
      "outputs": [
        {
          "internalType": "uint256",
          "name": "",
          "type": "uint256"
        }
      ],
      "stateMutability": "view",
      "type": "function",
      "constant": true
    },
    {
      "inputs": [
        {
          "internalType": "address",
          "name": "_to",
          "type": "address"
        },
        {
          "internalType": "bytes32",
          "name": "artwork",
          "type": "bytes32"
        }
      ],
      "name": "moveFunds",
      "outputs": [],
      "stateMutability": "nonpayable",
      "type": "function"
    },
    {
      "inputs": [],
      "name": "terminate",
      "outputs": [],
      "stateMutability": "nonpayable",
      "type": "function"
    }
  ],
  "bytecode": "0x608060405234801561001057600080fd5b5033600260006101000a81548173ffffffffffffffffffffffffffffffffffffffff021916908373ffffffffffffffffffffffffffffffffffffffff160217905550610fe1806100616000396000f3fe608060405234801561001057600080fd5b50600436106100b45760003560e01c8063a3ed221d11610071578063a3ed221d1461017b578063a84a163a146101ab578063a915b5e2146101c7578063b37c16d2146101f7578063ce3d3d4814610213578063da8c80fa14610231576100b4565b806307546172146100b95780630b745c21146100d75780630c08bf88146100f35780633cdc4b58146100fd5780634b60690d1461012d5780636a29a6201461014b575b600080fd5b6100c1610261565b6040516100ce9190610951565b60405180910390f35b6100f160048036038101906100ec919061099d565b610287565b005b6100fb61036b565b005b6101176004803603810190610112919061099d565b610436565b60405161012491906109f6565b60405180910390f35b61013561047b565b6040516101429190610a70565b60405180910390f35b61016560048036038101906101609190610ac1565b6104a1565b60405161017291906109f6565b60405180910390f35b61019560048036038101906101909190610ac1565b6104b9565b6040516101a291906109f6565b60405180910390f35b6101c560048036038101906101c09190610aee565b6104d6565b005b6101e160048036038101906101dc9190610ac1565b610650565b6040516101ee91906109f6565b60405180910390f35b610211600480360381019061020c9190610b5a565b610668565b005b61021b6108b7565b6040516102289190610bbb565b60405180910390f35b61024b6004803603810190610246919061099d565b6108dd565b6040516102589190610be5565b60405180910390f35b600260009054906101000a900473ffffffffffffffffffffffffffffffffffffffff1681565b600260009054906101000a900473ffffffffffffffffffffffffffffffffffffffff1673ffffffffffffffffffffffffffffffffffffffff163373ffffffffffffffffffffffffffffffffffffffff16146102e5576102e4610c00565b5b81600460006101000a81548173ffffffffffffffffffffffffffffffffffffffff021916908373ffffffffffffffffffffffffffffffffffffffff16021790555080600360006101000a81548173ffffffffffffffffffffffffffffffffffffffff021916908373ffffffffffffffffffffffffffffffffffffffff1602179055505050565b600260009054906101000a900473ffffffffffffffffffffffffffffffffffffffff1673ffffffffffffffffffffffffffffffffffffffff163373ffffffffffffffffffffffffffffffffffffffff16146103fb576040517f08c379a00000000000000000000000000000000000000000000000000000000081526004016103f290610cb2565b60405180910390fd5b600260009054906101000a900473ffffffffffffffffffffffffffffffffffffffff1673ffffffffffffffffffffffffffffffffffffffff16ff5b6000806000848460405160200161044e929190610d1a565b60405160208183030381529060405280519060200120815260200190815260200160002054905092915050565b600460009054906101000a900473ffffffffffffffffffffffffffffffffffffffff1681565b60016020528060005260406000206000915090505481565b600060016000838152602001908152602001600020549050919050565b600460009054906101000a900473ffffffffffffffffffffffffffffffffffffffff1673ffffffffffffffffffffffffffffffffffffffff163373ffffffffffffffffffffffffffffffffffffffff161461053457610533610c00565b5b6000600160008381526020019081526020016000205490506000811461064b57600360009054906101000a900473ffffffffffffffffffffffffffffffffffffffff1673ffffffffffffffffffffffffffffffffffffffff16630f177a6f84836040518363ffffffff1660e01b81526004016105b1929190610d46565b600060405180830381600087803b1580156105cb57600080fd5b505af11580156105df573d6000803e3d6000fd5b50505050600060016000848152602001908152602001600020819055508273ffffffffffffffffffffffffffffffffffffffff167fac613f518c8dacb0b895e802087475fa51e9f8197f6b942043e62113dab4b3f3836040516106429190610dbb565b60405180910390a25b505050565b60006020528060005260406000206000915090505481565b6000600460009054906101000a900473ffffffffffffffffffffffffffffffffffffffff1673ffffffffffffffffffffffffffffffffffffffff1663463f7a89846040518263ffffffff1660e01b81526004016106c59190610be5565b602060405180830381865afa1580156106e2573d6000803e3d6000fd5b505050506040513d601f19601f820116820180604052508101906107069190610dfe565b9050600073ffffffffffffffffffffffffffffffffffffffff168173ffffffffffffffffffffffffffffffffffffffff1603610777576040517f08c379a000000000000000000000000000000000000000000000000000000000815260040161076e90610e77565b60405180910390fd5b600360009054906101000a900473ffffffffffffffffffffffffffffffffffffffff1673ffffffffffffffffffffffffffffffffffffffff166366dfbfb483336040518363ffffffff1660e01b81526004016107d4929190610e97565b600060405180830381600087803b1580156107ee57600080fd5b505af1158015610802573d6000803e3d6000fd5b50505050816001600085815260200190815260200160002060008282546108299190610eef565b925050819055508160008061083e33856108dd565b8152602001908152602001600020600082825461085b9190610eef565b925050819055508073ffffffffffffffffffffffffffffffffffffffff167fc069f96fb7da71223fa2c7398efc04f07df754f2ed740123b0d442fbcffd332233856040516108aa929190610f6f565b60405180910390a2505050565b600360009054906101000a900473ffffffffffffffffffffffffffffffffffffffff1681565b600082826040516020016108f2929190610d1a565b60405160208183030381529060405280519060200120905092915050565b600073ffffffffffffffffffffffffffffffffffffffff82169050919050565b600061093b82610910565b9050919050565b61094b81610930565b82525050565b60006020820190506109666000830184610942565b92915050565b600080fd5b61097a81610930565b811461098557600080fd5b50565b60008135905061099781610971565b92915050565b600080604083850312156109b4576109b361096c565b5b60006109c285828601610988565b92505060206109d385828601610988565b9150509250929050565b6000819050919050565b6109f0816109dd565b82525050565b6000602082019050610a0b60008301846109e7565b92915050565b6000819050919050565b6000610a36610a31610a2c84610910565b610a11565b610910565b9050919050565b6000610a4882610a1b565b9050919050565b6000610a5a82610a3d565b9050919050565b610a6a81610a4f565b82525050565b6000602082019050610a856000830184610a61565b92915050565b6000819050919050565b610a9e81610a8b565b8114610aa957600080fd5b50565b600081359050610abb81610a95565b92915050565b600060208284031215610ad757610ad661096c565b5b6000610ae584828501610aac565b91505092915050565b60008060408385031215610b0557610b0461096c565b5b6000610b1385828601610988565b9250506020610b2485828601610aac565b9150509250929050565b610b37816109dd565b8114610b4257600080fd5b50565b600081359050610b5481610b2e565b92915050565b60008060408385031215610b7157610b7061096c565b5b6000610b7f85828601610aac565b9250506020610b9085828601610b45565b9150509250929050565b6000610ba582610a3d565b9050919050565b610bb581610b9a565b82525050565b6000602082019050610bd06000830184610bac565b92915050565b610bdf81610a8b565b82525050565b6000602082019050610bfa6000830184610bd6565b92915050565b7f4e487b7100000000000000000000000000000000000000000000000000000000600052600160045260246000fd5b600082825260208201905092915050565b7f596f752063616e6e6f74207465726d696e6174652074686520636f6e7472616360008201527f7421000000000000000000000000000000000000000000000000000000000000602082015250565b6000610c9c602283610c2f565b9150610ca782610c40565b604082019050919050565b60006020820190508181036000830152610ccb81610c8f565b9050919050565b60008160601b9050919050565b6000610cea82610cd2565b9050919050565b6000610cfc82610cdf565b9050919050565b610d14610d0f82610930565b610cf1565b82525050565b6000610d268285610d03565b601482019150610d368284610d03565b6014820191508190509392505050565b6000604082019050610d5b6000830185610942565b610d6860208301846109e7565b9392505050565b7f46756e647320756e6c6f636b6564000000000000000000000000000000000000600082015250565b6000610da5600e83610c2f565b9150610db082610d6f565b602082019050919050565b6000604082019050610dd06000830184610bd6565b8181036020830152610de181610d98565b905092915050565b600081519050610df881610971565b92915050565b600060208284031215610e1457610e1361096c565b5b6000610e2284828501610de9565b91505092915050565b7f417274776f726b20646f6573206e6f7420657869737400000000000000000000600082015250565b6000610e61601683610c2f565b9150610e6c82610e2b565b602082019050919050565b60006020820190508181036000830152610e9081610e54565b9050919050565b6000604082019050610eac60008301856109e7565b610eb96020830184610942565b9392505050565b7f4e487b7100000000000000000000000000000000000000000000000000000000600052601160045260246000fd5b6000610efa826109dd565b9150610f05836109dd565b9250828201905080821115610f1d57610f1c610ec0565b5b92915050565b7f446f6e6174696f6e20666f7220617274776f726b000000000000000000000000600082015250565b6000610f59601483610c2f565b9150610f6482610f23565b602082019050919050565b6000606082019050610f846000830185610942565b610f916020830184610bd6565b8181036040830152610fa281610f4c565b9050939250505056fea2646970667358221220b7c8a332b0a5a196b0bb425dc059b38910bca5cff5b2a569cff447b0ef660f2864736f6c63430008110033",
  "immutableReferences": {},
  "source": "//for compability reasons, we work only with these versions\npragma solidity >=0.7.0 < 0.9.0;\n\nimport \"./DArt.sol\";\nimport \"./DCoin.sol\";\n\ncontract Patron {\n\n    event Donation(address sender, address indexed receiver, bytes32 artwork, string message);\n    event UnlockedFunds(address indexed receiver, bytes32 artwork, string message);\n\n    mapping (bytes32 => uint) public patronCredit;\n    mapping (bytes32 => uint) public funds;\n\n    \n    address public minter;\n    //address public constant verificatioSmartcontract; \n    \n    DCoin public dcoinSmartcontract;\n    //address public dcoinSmartcontract; \n    DArt public mainSmartcontract; \n    \n\n    constructor(){\n        minter = msg.sender;\n    }\n\n\n    function setContrats(address main, address dcoin) external {\n        assert(msg.sender == minter);\n        mainSmartcontract = DArt(main);\n        dcoinSmartcontract = DCoin(dcoin);\n    }\n\n    function crowfunding(bytes32 artwork, uint amount) external {\n        address museum  = mainSmartcontract.getProperty(artwork);\n        require(museum != address(0x0), \"Artwork does not exist\");\n        dcoinSmartcontract.lock(amount, msg.sender);\n        funds[artwork] += amount;\n        patronCredit[hashAddressAndAddress(msg.sender, museum)] += amount;\n        emit Donation(msg.sender, museum, artwork, \"Donation for artwork\");\n    }\n\n    function hashAddressAndAddress(address first, address second) public pure returns(bytes32) {\n        return keccak256(abi.encodePacked(first, second));\n    }\n\n    function viewFunds(bytes32 artwork) external view returns(uint){\n        return funds[artwork];\n    }\n\n    function viewPatronCredit(address patron, address museum) external view returns(uint){\n        return patronCredit[keccak256(abi.encodePacked(patron,museum))];\n    }\n\n    function moveFunds(address _to, bytes32 artwork) external {\n        assert(msg.sender == address(mainSmartcontract));\n        uint fund = funds[artwork];\n        if (fund != 0) {\n            dcoinSmartcontract.magicMint(_to, fund);\n            /*\n            (bool success, ) = dcoinSmartcontract.call(\n                abi.encodeWithSignature(\"magicMint(address, uint)\", _to, fund)\n            );\n            require(success, \"Dcoin failed to mint the amount\");\n            */\n//            dcoinSmartcontract.magicMint(_to, fund);\n            //dcoinSmartcontract.call(abi.encodingWithSignature(\"magicMint(address,amount)\",_to,funds[bytes32]));\n            funds[artwork] = 0;\n            emit UnlockedFunds(_to, artwork, \"Funds unlocked\");\n        }\n    }\n    \n    function terminate() public {\n        require(msg.sender == minter, \"You cannot terminate the contract!\");\n        selfdestruct(payable(minter));\n    }\n}",
  "sourcePath": "/Users/MichaelPlug/Documents/DArt/Truffle/contracts/Patron.sol",
  "compiler": {
    "name": "solc",
    "version": "0.8.17+commit.8df45f5f.Emscripten.clang"
  },
  "schemaVersion": "3.4.11",
  "updatedAt": "2023-01-13T15:04:06.950Z",
  "networkType": "ethereum",
  "devdoc": {
    "kind": "dev",
    "methods": {},
    "version": 1
  },
  "userdoc": {
    "kind": "user",
    "methods": {},
    "version": 1
  }
}