{
  "contractName": "Patron",
  "abi": [
    {
      "inputs": [],
      "stateMutability": "nonpayable",
      "type": "constructor"
    },
    {
      "inputs": [],
      "name": "dcoinSmartcontract",
      "outputs": [
        {
          "internalType": "address",
          "name": "",
          "type": "address"
        }
      ],
      "stateMutability": "view",
      "type": "function",
      "constant": true
    },
    {
      "inputs": [
        {
          "internalType": "bytes32",
          "name": "",
          "type": "bytes32"
        }
      ],
      "name": "funds",
      "outputs": [
        {
          "internalType": "uint256",
          "name": "",
          "type": "uint256"
        }
      ],
      "stateMutability": "view",
      "type": "function",
      "constant": true
    },
    {
      "inputs": [],
      "name": "mainSmartcontract",
      "outputs": [
        {
          "internalType": "address",
          "name": "",
          "type": "address"
        }
      ],
      "stateMutability": "view",
      "type": "function",
      "constant": true
    },
    {
      "inputs": [],
      "name": "minter",
      "outputs": [
        {
          "internalType": "address",
          "name": "",
          "type": "address"
        }
      ],
      "stateMutability": "view",
      "type": "function",
      "constant": true
    },
    {
      "inputs": [
        {
          "internalType": "bytes32",
          "name": "",
          "type": "bytes32"
        }
      ],
      "name": "patronCredit",
      "outputs": [
        {
          "internalType": "uint256",
          "name": "",
          "type": "uint256"
        }
      ],
      "stateMutability": "view",
      "type": "function",
      "constant": true
    },
    {
      "inputs": [
        {
          "internalType": "address",
          "name": "main",
          "type": "address"
        },
        {
          "internalType": "address",
          "name": "dcoin",
          "type": "address"
        }
      ],
      "name": "setContrats",
      "outputs": [],
      "stateMutability": "nonpayable",
      "type": "function"
    },
    {
      "inputs": [
        {
          "internalType": "bytes32",
          "name": "artwork",
          "type": "bytes32"
        },
        {
          "internalType": "uint256",
          "name": "amount",
          "type": "uint256"
        }
      ],
      "name": "crowfunding",
      "outputs": [],
      "stateMutability": "nonpayable",
      "type": "function"
    },
    {
      "inputs": [
        {
          "internalType": "bytes32",
          "name": "artwork",
          "type": "bytes32"
        }
      ],
      "name": "viewFunds",
      "outputs": [
        {
          "internalType": "uint256",
          "name": "",
          "type": "uint256"
        }
      ],
      "stateMutability": "view",
      "type": "function",
      "constant": true
    },
    {
      "inputs": [
        {
          "internalType": "address",
          "name": "patron",
          "type": "address"
        },
        {
          "internalType": "address",
          "name": "museum",
          "type": "address"
        }
      ],
      "name": "viewPatronCredit",
      "outputs": [
        {
          "internalType": "uint256",
          "name": "",
          "type": "uint256"
        }
      ],
      "stateMutability": "view",
      "type": "function",
      "constant": true
    },
    {
      "inputs": [
        {
          "internalType": "address",
          "name": "_to",
          "type": "address"
        },
        {
          "internalType": "bytes32",
          "name": "artwork",
          "type": "bytes32"
        }
      ],
      "name": "moveFunds",
      "outputs": [],
      "stateMutability": "nonpayable",
      "type": "function"
    },
    {
      "inputs": [],
      "name": "terminate",
      "outputs": [],
      "stateMutability": "nonpayable",
      "type": "function"
    }
  ],
  "bytecode": "0x608060405234801561001057600080fd5b5033600260006101000a81548173ffffffffffffffffffffffffffffffffffffffff021916908373ffffffffffffffffffffffffffffffffffffffff1602179055506110ce806100616000396000f3fe608060405234801561001057600080fd5b50600436106100a95760003560e01c80636a29a620116100715780636a29a62014610140578063a3ed221d14610170578063a84a163a146101a0578063a915b5e2146101bc578063b37c16d2146101ec578063ce3d3d4814610208576100a9565b806307546172146100ae5780630b745c21146100cc5780630c08bf88146100e85780633cdc4b58146100f25780634b60690d14610122575b600080fd5b6100b6610226565b6040516100c39190610a6d565b60405180910390f35b6100e660048036038101906100e19190610ab9565b61024c565b005b6100f0610330565b005b61010c60048036038101906101079190610ab9565b6103fb565b6040516101199190610b12565b60405180910390f35b61012a610440565b6040516101379190610a6d565b60405180910390f35b61015a60048036038101906101559190610b63565b610466565b6040516101679190610b12565b60405180910390f35b61018a60048036038101906101859190610b63565b61047e565b6040516101979190610b12565b60405180910390f35b6101ba60048036038101906101b59190610b90565b61049b565b005b6101d660048036038101906101d19190610b63565b610697565b6040516101e39190610b12565b60405180910390f35b61020660048036038101906102019190610bfc565b6106af565b005b610210610a06565b60405161021d9190610a6d565b60405180910390f35b600260009054906101000a900473ffffffffffffffffffffffffffffffffffffffff1681565b600260009054906101000a900473ffffffffffffffffffffffffffffffffffffffff1673ffffffffffffffffffffffffffffffffffffffff163373ffffffffffffffffffffffffffffffffffffffff16146102aa576102a9610c3c565b5b81600460006101000a81548173ffffffffffffffffffffffffffffffffffffffff021916908373ffffffffffffffffffffffffffffffffffffffff16021790555080600360006101000a81548173ffffffffffffffffffffffffffffffffffffffff021916908373ffffffffffffffffffffffffffffffffffffffff1602179055505050565b600260009054906101000a900473ffffffffffffffffffffffffffffffffffffffff1673ffffffffffffffffffffffffffffffffffffffff163373ffffffffffffffffffffffffffffffffffffffff16146103c0576040517f08c379a00000000000000000000000000000000000000000000000000000000081526004016103b790610cee565b60405180910390fd5b600260009054906101000a900473ffffffffffffffffffffffffffffffffffffffff1673ffffffffffffffffffffffffffffffffffffffff16ff5b60008060008484604051602001610413929190610d56565b60405160208183030381529060405280519060200120815260200190815260200160002054905092915050565b600460009054906101000a900473ffffffffffffffffffffffffffffffffffffffff1681565b60016020528060005260406000206000915090505481565b600060016000838152602001908152602001600020549050919050565b600460009054906101000a900473ffffffffffffffffffffffffffffffffffffffff1673ffffffffffffffffffffffffffffffffffffffff163373ffffffffffffffffffffffffffffffffffffffff16146104f9576104f8610c3c565b5b60006001600083815260200190815260200160002054905060008114610692576000600360009054906101000a900473ffffffffffffffffffffffffffffffffffffffff1673ffffffffffffffffffffffffffffffffffffffff168483604051602401610567929190610d82565b6040516020818303038152906040527f83470df0000000000000000000000000000000000000000000000000000000007bffffffffffffffffffffffffffffffffffffffffffffffffffffffff19166020820180517bffffffffffffffffffffffffffffffffffffffffffffffffffffffff83818316178352505050506040516105f19190610e1c565b6000604051808303816000865af19150503d806000811461062e576040519150601f19603f3d011682016040523d82523d6000602084013e610633565b606091505b5050905080610677576040517f08c379a000000000000000000000000000000000000000000000000000000000815260040161066e90610e7f565b60405180910390fd5b60006001600085815260200190815260200160002081905550505b505050565b60006020528060005260406000206000915090505481565b6000600360009054906101000a900473ffffffffffffffffffffffffffffffffffffffff1673ffffffffffffffffffffffffffffffffffffffff1682336040516024016106fd929190610e9f565b6040516020818303038152906040527f66c7bbae000000000000000000000000000000000000000000000000000000007bffffffffffffffffffffffffffffffffffffffffffffffffffffffff19166020820180517bffffffffffffffffffffffffffffffffffffffffffffffffffffffff83818316178352505050506040516107879190610e1c565b6000604051808303816000865af19150503d80600081146107c4576040519150601f19603f3d011682016040523d82523d6000602084013e6107c9565b606091505b505090508061080d576040517f08c379a000000000000000000000000000000000000000000000000000000000815260040161080490610f14565b60405180910390fd5b816001600085815260200190815260200160002060008282546108309190610f63565b92505081905550600080600460009054906101000a900473ffffffffffffffffffffffffffffffffffffffff1673ffffffffffffffffffffffffffffffffffffffff16856040516024016108849190610fa6565b6040516020818303038152906040527f463f7a89000000000000000000000000000000000000000000000000000000007bffffffffffffffffffffffffffffffffffffffffffffffffffffffff19166020820180517bffffffffffffffffffffffffffffffffffffffffffffffffffffffff838183161783525050505060405161090e9190610e1c565b6000604051808303816000865af19150503d806000811461094b576040519150601f19603f3d011682016040523d82523d6000602084013e610950565b606091505b509150915081610995576040517f08c379a000000000000000000000000000000000000000000000000000000000815260040161098c9061100d565b60405180910390fd5b6000818060200190518101906109ab919061106b565b90508460008033846040516020016109c4929190610d56565b60405160208183030381529060405280519060200120815260200190815260200160002060008282546109f79190610f63565b92505081905550505050505050565b600360009054906101000a900473ffffffffffffffffffffffffffffffffffffffff1681565b600073ffffffffffffffffffffffffffffffffffffffff82169050919050565b6000610a5782610a2c565b9050919050565b610a6781610a4c565b82525050565b6000602082019050610a826000830184610a5e565b92915050565b600080fd5b610a9681610a4c565b8114610aa157600080fd5b50565b600081359050610ab381610a8d565b92915050565b60008060408385031215610ad057610acf610a88565b5b6000610ade85828601610aa4565b9250506020610aef85828601610aa4565b9150509250929050565b6000819050919050565b610b0c81610af9565b82525050565b6000602082019050610b276000830184610b03565b92915050565b6000819050919050565b610b4081610b2d565b8114610b4b57600080fd5b50565b600081359050610b5d81610b37565b92915050565b600060208284031215610b7957610b78610a88565b5b6000610b8784828501610b4e565b91505092915050565b60008060408385031215610ba757610ba6610a88565b5b6000610bb585828601610aa4565b9250506020610bc685828601610b4e565b9150509250929050565b610bd981610af9565b8114610be457600080fd5b50565b600081359050610bf681610bd0565b92915050565b60008060408385031215610c1357610c12610a88565b5b6000610c2185828601610b4e565b9250506020610c3285828601610be7565b9150509250929050565b7f4e487b7100000000000000000000000000000000000000000000000000000000600052600160045260246000fd5b600082825260208201905092915050565b7f596f752063616e6e6f74207465726d696e6174652074686520636f6e7472616360008201527f7421000000000000000000000000000000000000000000000000000000000000602082015250565b6000610cd8602283610c6b565b9150610ce382610c7c565b604082019050919050565b60006020820190508181036000830152610d0781610ccb565b9050919050565b60008160601b9050919050565b6000610d2682610d0e565b9050919050565b6000610d3882610d1b565b9050919050565b610d50610d4b82610a4c565b610d2d565b82525050565b6000610d628285610d3f565b601482019150610d728284610d3f565b6014820191508190509392505050565b6000604082019050610d976000830185610a5e565b610da46020830184610b03565b9392505050565b600081519050919050565b600081905092915050565b60005b83811015610ddf578082015181840152602081019050610dc4565b60008484015250505050565b6000610df682610dab565b610e008185610db6565b9350610e10818560208601610dc1565b80840191505092915050565b6000610e288284610deb565b915081905092915050565b7f44636f696e206661696c656420746f206d696e742074686520616d6f756e7400600082015250565b6000610e69601f83610c6b565b9150610e7482610e33565b602082019050919050565b60006020820190508181036000830152610e9881610e5c565b9050919050565b6000604082019050610eb46000830185610b03565b610ec16020830184610a5e565b9392505050565b7f44636f696e206661696c656420746f206c6f636b2074686520616d6f756e7400600082015250565b6000610efe601f83610c6b565b9150610f0982610ec8565b602082019050919050565b60006020820190508181036000830152610f2d81610ef1565b9050919050565b7f4e487b7100000000000000000000000000000000000000000000000000000000600052601160045260246000fd5b6000610f6e82610af9565b9150610f7983610af9565b9250828201905080821115610f9157610f90610f34565b5b92915050565b610fa081610b2d565b82525050565b6000602082019050610fbb6000830184610f97565b92915050565b7f44417274206661696c656420746f20676574207468652070726f706572747900600082015250565b6000610ff7601f83610c6b565b915061100282610fc1565b602082019050919050565b6000602082019050818103600083015261102681610fea565b9050919050565b600061103882610a2c565b9050919050565b6110488161102d565b811461105357600080fd5b50565b6000815190506110658161103f565b92915050565b60006020828403121561108157611080610a88565b5b600061108f84828501611056565b9150509291505056fea26469706673582212206d8896f041a3982108afddfc21754814db938d3e2fbc5b2272030052c50e3a1164736f6c63430008110033",
  "immutableReferences": {},
  "source": "//for compability reasons, we work only with these versions\npragma solidity >=0.7.0 < 0.9.0;\n\ncontract Patron {\n\n    mapping (bytes32 => uint) public patronCredit;\n    mapping (bytes32 => uint) public funds;\n\n    \n    address public minter;\n    //address public constant verificatioSmartcontract; \n    \n    address public dcoinSmartcontract;\n    //address public dcoinSmartcontract; \n    address public mainSmartcontract; \n    \n\n    constructor(){\n     //   verification = verificatioSmartcontract;  \n        //mainSmartcontract = main ;\n        //dcoinSmartcontract = dcoin;\n        minter = msg.sender;\n    }\n\n\n    function setContrats(address main, address dcoin) external {\n        assert(msg.sender == minter);\n        mainSmartcontract = main;\n        dcoinSmartcontract = dcoin;\n    }\n\n    function crowfunding(bytes32 artwork, uint amount) external {\n        //require(registeredArtworks[artwork].minter == 0x0, \"This artwork is not registered\");\n        (bool success, ) = dcoinSmartcontract.call(\n            abi.encodeWithSignature(\"lock(uint, address)\", amount, msg.sender)\n        );\n        require(success, \"Dcoin failed to lock the amount\");\n\n        //dcoinSmartcontract.burn(amount, msg.sender, true);\n        //dcoinSmartcontract.call(abi.encodingWithSignature(\"burn(uint,address,bool)\", amount, msg.sender, true));\n        funds[artwork] += amount;\n        (bool success_b, bytes memory result_b) = mainSmartcontract.call(abi.encodeWithSignature(\"getProperty(bytes32)\", artwork));\n        require(success_b, \"DArt failed to get the property\");\n        address museum = abi.decode(result_b, (address));\n        //address museum = mainSmartcontract.getProperty(artwork);\n        //address museum = mainSmartcontract.call(abi.encodingWithSignature(\"getProperty(bytes32)\", artwork));\n        patronCredit[keccak256(abi.encodePacked(msg.sender,museum))] += amount;\n    }\n\n    function viewFunds(bytes32 artwork) external view returns(uint){\n        return funds[artwork];\n    }\n\n    function viewPatronCredit(address patron, address museum) external view returns(uint){\n        return patronCredit[keccak256(abi.encodePacked(patron,museum))];\n    }\n\n    function moveFunds(address _to, bytes32 artwork) external {\n        assert(msg.sender == address(mainSmartcontract));\n        uint fund = funds[artwork];\n        if (fund != 0) {\n            (bool success, ) = dcoinSmartcontract.call(\n                abi.encodeWithSignature(\"magicMint(address, uint)\", _to, fund)\n            );\n            require(success, \"Dcoin failed to mint the amount\");\n//            dcoinSmartcontract.magicMint(_to, fund);\n            //dcoinSmartcontract.call(abi.encodingWithSignature(\"magicMint(address,amount)\",_to,funds[bytes32]));\n            funds[artwork] = 0;\n        }\n    }\n    \n    function terminate() public {\n        require(msg.sender == minter, \"You cannot terminate the contract!\");\n        selfdestruct(payable(minter));\n    }\n}",
  "sourcePath": "/Users/MichaelPlug/Documents/DArt/truffle/contracts/Patron.sol",
  "compiler": {
    "name": "solc",
    "version": "0.8.17+commit.8df45f5f.Emscripten.clang"
  },
  "schemaVersion": "3.4.11",
  "updatedAt": "2023-01-06T11:53:14.930Z",
  "networkType": "ethereum",
  "devdoc": {
    "kind": "dev",
    "methods": {},
    "version": 1
  },
  "userdoc": {
    "kind": "user",
    "methods": {},
    "version": 1
  }
}