{
  "contractName": "Verification",
  "abi": [
    {
      "inputs": [],
      "stateMutability": "nonpayable",
      "type": "constructor"
    },
    {
      "inputs": [],
      "name": "creator",
      "outputs": [
        {
          "internalType": "address",
          "name": "",
          "type": "address"
        }
      ],
      "stateMutability": "view",
      "type": "function",
      "constant": true
    },
    {
      "inputs": [],
      "name": "dcoin",
      "outputs": [
        {
          "internalType": "address",
          "name": "",
          "type": "address"
        }
      ],
      "stateMutability": "view",
      "type": "function",
      "constant": true
    },
    {
      "inputs": [
        {
          "internalType": "address",
          "name": "",
          "type": "address"
        }
      ],
      "name": "registeredWallets",
      "outputs": [
        {
          "internalType": "bytes32",
          "name": "hashedName",
          "type": "bytes32"
        },
        {
          "internalType": "bool",
          "name": "verified",
          "type": "bool"
        },
        {
          "internalType": "enum Verification.Actors",
          "name": "role",
          "type": "uint8"
        }
      ],
      "stateMutability": "view",
      "type": "function",
      "constant": true
    },
    {
      "inputs": [
        {
          "internalType": "address",
          "name": "dcoinad",
          "type": "address"
        }
      ],
      "name": "setContracts",
      "outputs": [],
      "stateMutability": "nonpayable",
      "type": "function"
    },
    {
      "inputs": [
        {
          "internalType": "bytes32",
          "name": "hashedName",
          "type": "bytes32"
        },
        {
          "internalType": "enum Verification.Actors",
          "name": "role",
          "type": "uint8"
        }
      ],
      "name": "museumRequestCreation",
      "outputs": [],
      "stateMutability": "nonpayable",
      "type": "function"
    },
    {
      "inputs": [
        {
          "internalType": "bytes32",
          "name": "hashedName",
          "type": "bytes32"
        },
        {
          "internalType": "enum Verification.Actors",
          "name": "role",
          "type": "uint8"
        },
        {
          "internalType": "address",
          "name": "museum",
          "type": "address"
        }
      ],
      "name": "museumCreation",
      "outputs": [],
      "stateMutability": "nonpayable",
      "type": "function"
    },
    {
      "inputs": [
        {
          "internalType": "address",
          "name": "museum",
          "type": "address"
        }
      ],
      "name": "isVerified",
      "outputs": [
        {
          "internalType": "bool",
          "name": "",
          "type": "bool"
        }
      ],
      "stateMutability": "view",
      "type": "function",
      "constant": true
    },
    {
      "inputs": [
        {
          "internalType": "address",
          "name": "museum",
          "type": "address"
        }
      ],
      "name": "getRole",
      "outputs": [
        {
          "internalType": "uint256",
          "name": "role",
          "type": "uint256"
        }
      ],
      "stateMutability": "view",
      "type": "function",
      "constant": true
    },
    {
      "inputs": [
        {
          "internalType": "address",
          "name": "museum",
          "type": "address"
        }
      ],
      "name": "getHashedName",
      "outputs": [
        {
          "internalType": "bytes32",
          "name": "",
          "type": "bytes32"
        }
      ],
      "stateMutability": "view",
      "type": "function",
      "constant": true
    },
    {
      "inputs": [
        {
          "internalType": "bytes32",
          "name": "hashedName",
          "type": "bytes32"
        },
        {
          "internalType": "address",
          "name": "museum",
          "type": "address"
        }
      ],
      "name": "verifyHashedName",
      "outputs": [
        {
          "internalType": "bool",
          "name": "",
          "type": "bool"
        }
      ],
      "stateMutability": "view",
      "type": "function",
      "constant": true
    },
    {
      "inputs": [
        {
          "internalType": "string",
          "name": "name",
          "type": "string"
        }
      ],
      "name": "hashString",
      "outputs": [
        {
          "internalType": "bytes32",
          "name": "",
          "type": "bytes32"
        }
      ],
      "stateMutability": "pure",
      "type": "function",
      "constant": true
    },
    {
      "inputs": [
        {
          "internalType": "string",
          "name": "name",
          "type": "string"
        },
        {
          "internalType": "address",
          "name": "wallet",
          "type": "address"
        }
      ],
      "name": "hashStringAndWallet",
      "outputs": [
        {
          "internalType": "bytes32",
          "name": "",
          "type": "bytes32"
        }
      ],
      "stateMutability": "pure",
      "type": "function",
      "constant": true
    },
    {
      "inputs": [],
      "name": "terminate",
      "outputs": [],
      "stateMutability": "nonpayable",
      "type": "function"
    }
  ],
  "bytecode": "0x608060405234801561001057600080fd5b50336000806101000a81548173ffffffffffffffffffffffffffffffffffffffff021916908373ffffffffffffffffffffffffffffffffffffffff1602179055506115da806100606000396000f3fe608060405234801561001057600080fd5b50600436106100cf5760003560e01c806370ef131e1161008c578063923f0b9311610066578063923f0b9314610212578063a2d7ed761461022e578063b479d3a91461025e578063b9209e3314610290576100cf565b806370ef131e14610194578063766954b4146101b2578063826c8169146101e2576100cf565b806302d05d3f146100d45780630c08bf88146100f25780631d109973146100fc57806344276733146101185780635a2e2f47146101485780635f1ef4e314610164575b600080fd5b6100dc6102c0565b6040516100e99190610d2c565b60405180910390f35b6100fa6102e4565b005b61011660048036038101906101119190610dd8565b6103ab565b005b610132600480360381019061012d9190610e2b565b610618565b60405161013f9190610e71565b60405180910390f35b610162600480360381019061015d9190610e2b565b6106e2565b005b61017e60048036038101906101799190610e8c565b6107b4565b60405161018b9190610ee7565b60405180910390f35b61019c610862565b6040516101a99190610d2c565b60405180910390f35b6101cc60048036038101906101c79190610f67565b610888565b6040516101d99190610fc3565b60405180910390f35b6101fc60048036038101906101f79190610fde565b6108bb565b6040516102099190610fc3565b60405180910390f35b61022c6004803603810190610227919061103e565b610917565b005b61024860048036038101906102439190610e2b565b610ba3565b6040516102559190610fc3565b60405180910390f35b61027860048036038101906102739190610e2b565b610c4e565b604051610287939291906110f5565b60405180910390f35b6102aa60048036038101906102a59190610e2b565b610c92565b6040516102b79190610ee7565b60405180910390f35b60008054906101000a900473ffffffffffffffffffffffffffffffffffffffff1681565b60008054906101000a900473ffffffffffffffffffffffffffffffffffffffff1673ffffffffffffffffffffffffffffffffffffffff163373ffffffffffffffffffffffffffffffffffffffff1614610372576040517f08c379a0000000000000000000000000000000000000000000000000000000008152600401610369906111af565b60405180910390fd5b60008054906101000a900473ffffffffffffffffffffffffffffffffffffffff1673ffffffffffffffffffffffffffffffffffffffff16ff5b60008054906101000a900473ffffffffffffffffffffffffffffffffffffffff1673ffffffffffffffffffffffffffffffffffffffff163373ffffffffffffffffffffffffffffffffffffffff1614610407576104066111cf565b5b82600260008373ffffffffffffffffffffffffffffffffffffffff1673ffffffffffffffffffffffffffffffffffffffff168152602001908152602001600020600001541480156104ca57508160048111156104665761046561107e565b5b600260008373ffffffffffffffffffffffffffffffffffffffff1673ffffffffffffffffffffffffffffffffffffffff16815260200190815260200160002060010160019054906101000a900460ff1660048111156104c8576104c761107e565b5b145b610509576040517f08c379a000000000000000000000000000000000000000000000000000000000815260040161050090611296565b60405180910390fd5b60008054906101000a900473ffffffffffffffffffffffffffffffffffffffff1673ffffffffffffffffffffffffffffffffffffffff163373ffffffffffffffffffffffffffffffffffffffff161480156105a957506000801b600260008373ffffffffffffffffffffffffffffffffffffffff1673ffffffffffffffffffffffffffffffffffffffff1681526020019081526020016000206000015414155b1561060e576001600260008373ffffffffffffffffffffffffffffffffffffffff1673ffffffffffffffffffffffffffffffffffffffff16815260200190815260200160002060010160006101000a81548160ff021916908315150217905550610613565b600080fd5b505050565b6000801515600260008473ffffffffffffffffffffffffffffffffffffffff1673ffffffffffffffffffffffffffffffffffffffff16815260200190815260200160002060010160009054906101000a900460ff1615150361067957600080fd5b600260008373ffffffffffffffffffffffffffffffffffffffff1673ffffffffffffffffffffffffffffffffffffffff16815260200190815260200160002060010160019054906101000a900460ff1660048111156106db576106da61107e565b5b9050919050565b60008054906101000a900473ffffffffffffffffffffffffffffffffffffffff1673ffffffffffffffffffffffffffffffffffffffff163373ffffffffffffffffffffffffffffffffffffffff1614610770576040517f08c379a000000000000000000000000000000000000000000000000000000000815260040161076790611328565b60405180910390fd5b80600160006101000a81548173ffffffffffffffffffffffffffffffffffffffff021916908373ffffffffffffffffffffffffffffffffffffffff16021790555050565b6000801515600260008473ffffffffffffffffffffffffffffffffffffffff1673ffffffffffffffffffffffffffffffffffffffff16815260200190815260200160002060010160009054906101000a900460ff1615150361081557600080fd5b600260008373ffffffffffffffffffffffffffffffffffffffff1673ffffffffffffffffffffffffffffffffffffffff168152602001908152602001600020600001548314905092915050565b600160009054906101000a900473ffffffffffffffffffffffffffffffffffffffff1681565b6000828260405160200161089d929190611387565b60405160208183030381529060405280519060200120905092915050565b600083836040516020016108d0929190611387565b60405160208183030381529060405280519060200120826040516020016108f8929190611409565b6040516020818303038152906040528051906020012090509392505050565b6000600160009054906101000a900473ffffffffffffffffffffffffffffffffffffffff1673ffffffffffffffffffffffffffffffffffffffff16600333604051602401610966929190611487565b6040516020818303038152906040527f6657b7bd000000000000000000000000000000000000000000000000000000007bffffffffffffffffffffffffffffffffffffffffffffffffffffffff19166020820180517bffffffffffffffffffffffffffffffffffffffffffffffffffffffff83818316178352505050506040516109f09190611521565b6000604051808303816000865af19150503d8060008114610a2d576040519150601f19603f3d011682016040523d82523d6000602084013e610a32565b606091505b5050905080610a76576040517f08c379a0000000000000000000000000000000000000000000000000000000008152600401610a6d90611584565b60405180910390fd5b60001515600260003373ffffffffffffffffffffffffffffffffffffffff1673ffffffffffffffffffffffffffffffffffffffff16815260200190815260200160002060010160009054906101000a900460ff16151503610b9e576040518060600160405280848152602001600015158152602001836004811115610afe57610afd61107e565b5b815250600260003373ffffffffffffffffffffffffffffffffffffffff1673ffffffffffffffffffffffffffffffffffffffff1681526020019081526020016000206000820151816000015560208201518160010160006101000a81548160ff02191690831515021790555060408201518160010160016101000a81548160ff02191690836004811115610b9557610b9461107e565b5b02179055509050505b505050565b6000801515600260008473ffffffffffffffffffffffffffffffffffffffff1673ffffffffffffffffffffffffffffffffffffffff16815260200190815260200160002060010160009054906101000a900460ff16151503610c0457600080fd5b600260008373ffffffffffffffffffffffffffffffffffffffff1673ffffffffffffffffffffffffffffffffffffffff168152602001908152602001600020600001549050919050565b60026020528060005260406000206000915090508060000154908060010160009054906101000a900460ff16908060010160019054906101000a900460ff16905083565b6000600260008373ffffffffffffffffffffffffffffffffffffffff1673ffffffffffffffffffffffffffffffffffffffff16815260200190815260200160002060010160009054906101000a900460ff169050919050565b600073ffffffffffffffffffffffffffffffffffffffff82169050919050565b6000610d1682610ceb565b9050919050565b610d2681610d0b565b82525050565b6000602082019050610d416000830184610d1d565b92915050565b600080fd5b600080fd5b6000819050919050565b610d6481610d51565b8114610d6f57600080fd5b50565b600081359050610d8181610d5b565b92915050565b60058110610d9457600080fd5b50565b600081359050610da681610d87565b92915050565b610db581610d0b565b8114610dc057600080fd5b50565b600081359050610dd281610dac565b92915050565b600080600060608486031215610df157610df0610d47565b5b6000610dff86828701610d72565b9350506020610e1086828701610d97565b9250506040610e2186828701610dc3565b9150509250925092565b600060208284031215610e4157610e40610d47565b5b6000610e4f84828501610dc3565b91505092915050565b6000819050919050565b610e6b81610e58565b82525050565b6000602082019050610e866000830184610e62565b92915050565b60008060408385031215610ea357610ea2610d47565b5b6000610eb185828601610d72565b9250506020610ec285828601610dc3565b9150509250929050565b60008115159050919050565b610ee181610ecc565b82525050565b6000602082019050610efc6000830184610ed8565b92915050565b600080fd5b600080fd5b600080fd5b60008083601f840112610f2757610f26610f02565b5b8235905067ffffffffffffffff811115610f4457610f43610f07565b5b602083019150836001820283011115610f6057610f5f610f0c565b5b9250929050565b60008060208385031215610f7e57610f7d610d47565b5b600083013567ffffffffffffffff811115610f9c57610f9b610d4c565b5b610fa885828601610f11565b92509250509250929050565b610fbd81610d51565b82525050565b6000602082019050610fd86000830184610fb4565b92915050565b600080600060408486031215610ff757610ff6610d47565b5b600084013567ffffffffffffffff81111561101557611014610d4c565b5b61102186828701610f11565b9350935050602061103486828701610dc3565b9150509250925092565b6000806040838503121561105557611054610d47565b5b600061106385828601610d72565b925050602061107485828601610d97565b9150509250929050565b7f4e487b7100000000000000000000000000000000000000000000000000000000600052602160045260246000fd5b600581106110be576110bd61107e565b5b50565b60008190506110cf826110ad565b919050565b60006110df826110c1565b9050919050565b6110ef816110d4565b82525050565b600060608201905061110a6000830186610fb4565b6111176020830185610ed8565b61112460408301846110e6565b949350505050565b600082825260208201905092915050565b7f596f752063616e6e6f74207465726d696e6174652074686520636f6e7472616360008201527f7421000000000000000000000000000000000000000000000000000000000000602082015250565b600061119960228361112c565b91506111a48261113d565b604082019050919050565b600060208201905081810360008301526111c88161118c565b9050919050565b7f4e487b7100000000000000000000000000000000000000000000000000000000600052600160045260246000fd5b7f5468657265206973206e6f2070656e64696e67207265717565737420746f207260008201527f6567697374657220746869732077616c6c6574206f7220696e7075747320617260208201527f652077726f6e6700000000000000000000000000000000000000000000000000604082015250565b600061128060478361112c565b915061128b826111fe565b606082019050919050565b600060208201905081810360008301526112af81611273565b9050919050565b7f4f6e6c79207468652063726561746f722063616e207365742074686520636f6e60008201527f7472616374730000000000000000000000000000000000000000000000000000602082015250565b600061131260268361112c565b915061131d826112b6565b604082019050919050565b6000602082019050818103600083015261134181611305565b9050919050565b600081905092915050565b82818337600083830152505050565b600061136e8385611348565b935061137b838584611353565b82840190509392505050565b6000611394828486611362565b91508190509392505050565b6000819050919050565b6113bb6113b682610d51565b6113a0565b82525050565b60008160601b9050919050565b60006113d9826113c1565b9050919050565b60006113eb826113ce565b9050919050565b6114036113fe82610d0b565b6113e0565b82525050565b600061141582856113aa565b60208201915061142582846113f2565b6014820191508190509392505050565b6000819050919050565b600060ff82169050919050565b6000819050919050565b600061147161146c61146784611435565b61144c565b61143f565b9050919050565b61148181611456565b82525050565b600060408201905061149c6000830185611478565b6114a96020830184610d1d565b9392505050565b600081519050919050565b600081905092915050565b60005b838110156114e45780820151818401526020810190506114c9565b60008484015250505050565b60006114fb826114b0565b61150581856114bb565b93506115158185602086016114c6565b80840191505092915050565b600061152d82846114f0565b915081905092915050565b7f44636f696e206661696c65640000000000000000000000000000000000000000600082015250565b600061156e600c8361112c565b915061157982611538565b602082019050919050565b6000602082019050818103600083015261159d81611561565b905091905056fea2646970667358221220cb350eea32b4cdb230bc7730ea8da7dc6299002dbcb1baa0cff983ef30c5466464736f6c63430008110033",
  "immutableReferences": {},
  "source": "//for compability reasons, we work only with these versions\npragma solidity >=0.7.0 < 0.9.0;\n\n//error Unauthorized(address caller);\n\n\ncontract Verification {\n\n    /// @notice A collection of informations about a wallet that operate with the contact\n    struct Wallet{\n        //we have to hash also the address?\n        bytes32 hashedName;\n        bool verified;\n        Actors role;\n    }\n\n    // This enum indicates the type of actor associated to a registered wallet\n    enum Actors {\n        MUSEUM,\n        GALLERY,\n        PRIVATE_COLLECTOR,\n        ARTIST,\n        PROTECTION_LAB\n    }\n\n    //this is the address of the creator MAYBE PRIVATE, namely the owner\n    //of the smart contract that it can do some special actions\n    address public creator;\n\n    address public dcoin;\n\n    //this is a list that contains all the ids registered (true) or pending to be it (false) to DArt\n    mapping (address => Wallet) public registeredWallets;\n\n    //the first time that we call che smart contract we need to save which is the\n    //creator, because it can do after some important actions\n    constructor(){\n        //so we save the address of the creator, one time and forever\n        creator = msg.sender;\n    }\n\n    function setContracts(address dcoinad) external{\n        require(msg.sender == creator, \"Only the creator can set the contracts\");\n        dcoin = dcoinad;\n    }\n        \n\n    //mettiamo noi o l'utente queste informazioni? se lo fa l'utente significa che potrebbe richiamare la funzione e resettarle?\n    //called by a museum that wants to enter in the blockchain\n    /**\n        @notice the sender create a request of verification, minting an IDNFT with verification variable as false\n        @param hashedName the hashed name of the requesting actor\n        @param role the type of the actor\n     */\n    function museumRequestCreation(bytes32 hashedName, Actors role) external {\n        (bool success_b, ) = dcoin.call(\n            abi.encodeWithSignature(\"burn(uint, address)\", 3, msg.sender)\n        );\n        require(success_b, \"Dcoin failed\");\n        if (registeredWallets[msg.sender].verified == false){\n            registeredWallets[msg.sender] = Wallet(hashedName, false, role);\n        }\n    }\n\n    //called by a smart contract, given a specificc address\n    function museumCreation(bytes32 hashedName, Actors role, address museum) external {\n        // veryf the sender is the creator/owner of the smart contract and that there is a pendig reques to register the wallet\n        assert(msg.sender == creator);\n        require(registeredWallets[museum].hashedName == hashedName && registeredWallets[museum].role == role, \"There is no pending request to register this wallet or inputs are wrong\");\n        if (msg.sender == creator && registeredWallets[museum].hashedName != 0){\n            // change the status of the museum to verified\n            registeredWallets[museum].verified = true;\n        }\n         else {\n            revert();\n        }\n    }\n\n    // Verify if a wallet is registered in the blockchain as an verified actor\n    function isVerified(address museum) external view returns(bool) {\n        return registeredWallets[museum].verified;\n    }\n\n    // Get the role of a wallet if it is registered in the blockchain as an verified actor\n    function getRole(address museum) external view returns(uint role) {\n        if (registeredWallets[museum].verified == false){\n            revert();\n        }\n        else {\n\n            return uint(registeredWallets[museum].role);\n        }\n    }\n\n    // Get the hashed name of a wallet if it is registered in the blockchain as an verified actor\n    function getHashedName(address museum) external view returns(bytes32) {\n        if (registeredWallets[museum].verified == false){\n            revert();\n        }\n        else {\n            return registeredWallets[museum].hashedName;\n        }\n    }\n\n    // Verify if a name is the same of the hashed name of a wallet if it is registered in the blockchain as an verified actor\n    function verifyHashedName(bytes32 hashedName, address museum) external view returns(bool) {\n        if (registeredWallets[museum].verified == false){\n            revert();\n        }\n        else {\n            return hashedName == registeredWallets[museum].hashedName;\n        }\n    }\n\n    function hashString(string calldata name) external pure returns(bytes32) {\n        return keccak256(abi.encodePacked(name));\n    }\n\n    function hashStringAndWallet(string calldata name, address wallet) external pure returns(bytes32){\n        return keccak256(abi.encodePacked(keccak256(abi.encodePacked(name)), wallet));\n    }\n\n\n    function terminate() public {\n        require(msg.sender == creator, \"You cannot terminate the contract!\");\n        selfdestruct(payable(creator));\n    }\n}",
  "sourcePath": "/Users/MichaelPlug/Documents/DArt/truffle/contracts/Verification.sol",
  "compiler": {
    "name": "solc",
    "version": "0.8.17+commit.8df45f5f.Emscripten.clang"
  },
  "schemaVersion": "3.4.11",
  "updatedAt": "2023-01-06T10:35:52.588Z",
  "networkType": "ethereum",
  "devdoc": {
    "kind": "dev",
    "methods": {
      "museumRequestCreation(bytes32,uint8)": {
        "params": {
          "hashedName": "the hashed name of the requesting actor",
          "role": "the type of the actor"
        }
      }
    },
    "version": 1
  },
  "userdoc": {
    "kind": "user",
    "methods": {
      "museumRequestCreation(bytes32,uint8)": {
        "notice": "the sender create a request of verification, minting an IDNFT with verification variable as false"
      }
    },
    "version": 1
  }
}