{
  "contractName": "Verification",
  "abi": [
    {
      "inputs": [],
      "stateMutability": "nonpayable",
      "type": "constructor"
    },
    {
      "inputs": [],
      "name": "creator",
      "outputs": [
        {
          "internalType": "address",
          "name": "",
          "type": "address"
        }
      ],
      "stateMutability": "view",
      "type": "function",
      "constant": true
    },
    {
      "inputs": [],
      "name": "dcoin",
      "outputs": [
        {
          "internalType": "contract DCoin",
          "name": "",
          "type": "address"
        }
      ],
      "stateMutability": "view",
      "type": "function",
      "constant": true
    },
    {
      "inputs": [
        {
          "internalType": "address",
          "name": "",
          "type": "address"
        }
      ],
      "name": "registeredWallets",
      "outputs": [
        {
          "internalType": "bytes32",
          "name": "hashedName",
          "type": "bytes32"
        },
        {
          "internalType": "bool",
          "name": "verified",
          "type": "bool"
        },
        {
          "internalType": "enum Verification.Actors",
          "name": "role",
          "type": "uint8"
        }
      ],
      "stateMutability": "view",
      "type": "function",
      "constant": true
    },
    {
      "inputs": [
        {
          "internalType": "address",
          "name": "dcoinad",
          "type": "address"
        }
      ],
      "name": "setContracts",
      "outputs": [],
      "stateMutability": "nonpayable",
      "type": "function"
    },
    {
      "inputs": [
        {
          "internalType": "bytes32",
          "name": "hashedName",
          "type": "bytes32"
        },
        {
          "internalType": "enum Verification.Actors",
          "name": "role",
          "type": "uint8"
        }
      ],
      "name": "museumRequestCreation",
      "outputs": [],
      "stateMutability": "nonpayable",
      "type": "function"
    },
    {
      "inputs": [
        {
          "internalType": "bytes32",
          "name": "hashedName",
          "type": "bytes32"
        },
        {
          "internalType": "enum Verification.Actors",
          "name": "role",
          "type": "uint8"
        },
        {
          "internalType": "address",
          "name": "museum",
          "type": "address"
        }
      ],
      "name": "museumCreation",
      "outputs": [],
      "stateMutability": "nonpayable",
      "type": "function"
    },
    {
      "inputs": [
        {
          "internalType": "address",
          "name": "museum",
          "type": "address"
        }
      ],
      "name": "isVerified",
      "outputs": [
        {
          "internalType": "bool",
          "name": "",
          "type": "bool"
        }
      ],
      "stateMutability": "view",
      "type": "function",
      "constant": true
    },
    {
      "inputs": [
        {
          "internalType": "address",
          "name": "museum",
          "type": "address"
        }
      ],
      "name": "getRole",
      "outputs": [
        {
          "internalType": "uint256",
          "name": "role",
          "type": "uint256"
        }
      ],
      "stateMutability": "view",
      "type": "function",
      "constant": true
    },
    {
      "inputs": [
        {
          "internalType": "address",
          "name": "museum",
          "type": "address"
        }
      ],
      "name": "getHashedName",
      "outputs": [
        {
          "internalType": "bytes32",
          "name": "",
          "type": "bytes32"
        }
      ],
      "stateMutability": "view",
      "type": "function",
      "constant": true
    },
    {
      "inputs": [
        {
          "internalType": "bytes32",
          "name": "hashedName",
          "type": "bytes32"
        },
        {
          "internalType": "address",
          "name": "museum",
          "type": "address"
        }
      ],
      "name": "verifyHashedName",
      "outputs": [
        {
          "internalType": "bool",
          "name": "",
          "type": "bool"
        }
      ],
      "stateMutability": "view",
      "type": "function",
      "constant": true
    },
    {
      "inputs": [
        {
          "internalType": "string",
          "name": "name",
          "type": "string"
        }
      ],
      "name": "hashString",
      "outputs": [
        {
          "internalType": "bytes32",
          "name": "",
          "type": "bytes32"
        }
      ],
      "stateMutability": "pure",
      "type": "function",
      "constant": true
    },
    {
      "inputs": [
        {
          "internalType": "string",
          "name": "name",
          "type": "string"
        },
        {
          "internalType": "address",
          "name": "wallet",
          "type": "address"
        }
      ],
      "name": "hashStringAndWallet",
      "outputs": [
        {
          "internalType": "bytes32",
          "name": "",
          "type": "bytes32"
        }
      ],
      "stateMutability": "pure",
      "type": "function",
      "constant": true
    },
    {
      "inputs": [],
      "name": "terminate",
      "outputs": [],
      "stateMutability": "nonpayable",
      "type": "function"
    }
  ],
  "bytecode": "0x608060405234801561001057600080fd5b50336000806101000a81548173ffffffffffffffffffffffffffffffffffffffff021916908373ffffffffffffffffffffffffffffffffffffffff160217905550611479806100606000396000f3fe608060405234801561001057600080fd5b50600436106100cf5760003560e01c806370ef131e1161008c578063923f0b9311610066578063923f0b9314610212578063a2d7ed761461022e578063b479d3a91461025e578063b9209e3314610290576100cf565b806370ef131e14610194578063766954b4146101b2578063826c8169146101e2576100cf565b806302d05d3f146100d45780630c08bf88146100f25780631d109973146100fc57806344276733146101185780635a2e2f47146101485780635f1ef4e314610164575b600080fd5b6100dc6102c0565b6040516100e99190610c5c565b60405180910390f35b6100fa6102e4565b005b61011660048036038101906101119190610d08565b6103ab565b005b610132600480360381019061012d9190610d5b565b610618565b60405161013f9190610da1565b60405180910390f35b610162600480360381019061015d9190610d5b565b6106e2565b005b61017e60048036038101906101799190610dbc565b6107b4565b60405161018b9190610e17565b60405180910390f35b61019c610862565b6040516101a99190610e91565b60405180910390f35b6101cc60048036038101906101c79190610f11565b610888565b6040516101d99190610f6d565b60405180910390f35b6101fc60048036038101906101f79190610f88565b6108bb565b6040516102099190610f6d565b60405180910390f35b61022c60048036038101906102279190610fe8565b610917565b005b61024860048036038101906102439190610d5b565b610ad3565b6040516102559190610f6d565b60405180910390f35b61027860048036038101906102739190610d5b565b610b7e565b6040516102879392919061109f565b60405180910390f35b6102aa60048036038101906102a59190610d5b565b610bc2565b6040516102b79190610e17565b60405180910390f35b60008054906101000a900473ffffffffffffffffffffffffffffffffffffffff1681565b60008054906101000a900473ffffffffffffffffffffffffffffffffffffffff1673ffffffffffffffffffffffffffffffffffffffff163373ffffffffffffffffffffffffffffffffffffffff1614610372576040517f08c379a000000000000000000000000000000000000000000000000000000000815260040161036990611159565b60405180910390fd5b60008054906101000a900473ffffffffffffffffffffffffffffffffffffffff1673ffffffffffffffffffffffffffffffffffffffff16ff5b60008054906101000a900473ffffffffffffffffffffffffffffffffffffffff1673ffffffffffffffffffffffffffffffffffffffff163373ffffffffffffffffffffffffffffffffffffffff161461040757610406611179565b5b82600260008373ffffffffffffffffffffffffffffffffffffffff1673ffffffffffffffffffffffffffffffffffffffff168152602001908152602001600020600001541480156104ca575081600481111561046657610465611028565b5b600260008373ffffffffffffffffffffffffffffffffffffffff1673ffffffffffffffffffffffffffffffffffffffff16815260200190815260200160002060010160019054906101000a900460ff1660048111156104c8576104c7611028565b5b145b610509576040517f08c379a000000000000000000000000000000000000000000000000000000000815260040161050090611240565b60405180910390fd5b60008054906101000a900473ffffffffffffffffffffffffffffffffffffffff1673ffffffffffffffffffffffffffffffffffffffff163373ffffffffffffffffffffffffffffffffffffffff161480156105a957506000801b600260008373ffffffffffffffffffffffffffffffffffffffff1673ffffffffffffffffffffffffffffffffffffffff1681526020019081526020016000206000015414155b1561060e576001600260008373ffffffffffffffffffffffffffffffffffffffff1673ffffffffffffffffffffffffffffffffffffffff16815260200190815260200160002060010160006101000a81548160ff021916908315150217905550610613565b600080fd5b505050565b6000801515600260008473ffffffffffffffffffffffffffffffffffffffff1673ffffffffffffffffffffffffffffffffffffffff16815260200190815260200160002060010160009054906101000a900460ff1615150361067957600080fd5b600260008373ffffffffffffffffffffffffffffffffffffffff1673ffffffffffffffffffffffffffffffffffffffff16815260200190815260200160002060010160019054906101000a900460ff1660048111156106db576106da611028565b5b9050919050565b60008054906101000a900473ffffffffffffffffffffffffffffffffffffffff1673ffffffffffffffffffffffffffffffffffffffff163373ffffffffffffffffffffffffffffffffffffffff1614610770576040517f08c379a0000000000000000000000000000000000000000000000000000000008152600401610767906112d2565b60405180910390fd5b80600160006101000a81548173ffffffffffffffffffffffffffffffffffffffff021916908373ffffffffffffffffffffffffffffffffffffffff16021790555050565b6000801515600260008473ffffffffffffffffffffffffffffffffffffffff1673ffffffffffffffffffffffffffffffffffffffff16815260200190815260200160002060010160009054906101000a900460ff1615150361081557600080fd5b600260008373ffffffffffffffffffffffffffffffffffffffff1673ffffffffffffffffffffffffffffffffffffffff168152602001908152602001600020600001548314905092915050565b600160009054906101000a900473ffffffffffffffffffffffffffffffffffffffff1681565b6000828260405160200161089d929190611331565b60405160208183030381529060405280519060200120905092915050565b600083836040516020016108d0929190611331565b60405160208183030381529060405280519060200120826040516020016108f89291906113b3565b6040516020818303038152906040528051906020012090509392505050565b600160009054906101000a900473ffffffffffffffffffffffffffffffffffffffff1673ffffffffffffffffffffffffffffffffffffffff1663fcd3533c6003336040518363ffffffff1660e01b815260040161097592919061141a565b600060405180830381600087803b15801561098f57600080fd5b505af11580156109a3573d6000803e3d6000fd5b5050505060001515600260003373ffffffffffffffffffffffffffffffffffffffff1673ffffffffffffffffffffffffffffffffffffffff16815260200190815260200160002060010160009054906101000a900460ff16151503610acf576040518060600160405280838152602001600015158152602001826004811115610a2f57610a2e611028565b5b815250600260003373ffffffffffffffffffffffffffffffffffffffff1673ffffffffffffffffffffffffffffffffffffffff1681526020019081526020016000206000820151816000015560208201518160010160006101000a81548160ff02191690831515021790555060408201518160010160016101000a81548160ff02191690836004811115610ac657610ac5611028565b5b02179055509050505b5050565b6000801515600260008473ffffffffffffffffffffffffffffffffffffffff1673ffffffffffffffffffffffffffffffffffffffff16815260200190815260200160002060010160009054906101000a900460ff16151503610b3457600080fd5b600260008373ffffffffffffffffffffffffffffffffffffffff1673ffffffffffffffffffffffffffffffffffffffff168152602001908152602001600020600001549050919050565b60026020528060005260406000206000915090508060000154908060010160009054906101000a900460ff16908060010160019054906101000a900460ff16905083565b6000600260008373ffffffffffffffffffffffffffffffffffffffff1673ffffffffffffffffffffffffffffffffffffffff16815260200190815260200160002060010160009054906101000a900460ff169050919050565b600073ffffffffffffffffffffffffffffffffffffffff82169050919050565b6000610c4682610c1b565b9050919050565b610c5681610c3b565b82525050565b6000602082019050610c716000830184610c4d565b92915050565b600080fd5b600080fd5b6000819050919050565b610c9481610c81565b8114610c9f57600080fd5b50565b600081359050610cb181610c8b565b92915050565b60058110610cc457600080fd5b50565b600081359050610cd681610cb7565b92915050565b610ce581610c3b565b8114610cf057600080fd5b50565b600081359050610d0281610cdc565b92915050565b600080600060608486031215610d2157610d20610c77565b5b6000610d2f86828701610ca2565b9350506020610d4086828701610cc7565b9250506040610d5186828701610cf3565b9150509250925092565b600060208284031215610d7157610d70610c77565b5b6000610d7f84828501610cf3565b91505092915050565b6000819050919050565b610d9b81610d88565b82525050565b6000602082019050610db66000830184610d92565b92915050565b60008060408385031215610dd357610dd2610c77565b5b6000610de185828601610ca2565b9250506020610df285828601610cf3565b9150509250929050565b60008115159050919050565b610e1181610dfc565b82525050565b6000602082019050610e2c6000830184610e08565b92915050565b6000819050919050565b6000610e57610e52610e4d84610c1b565b610e32565b610c1b565b9050919050565b6000610e6982610e3c565b9050919050565b6000610e7b82610e5e565b9050919050565b610e8b81610e70565b82525050565b6000602082019050610ea66000830184610e82565b92915050565b600080fd5b600080fd5b600080fd5b60008083601f840112610ed157610ed0610eac565b5b8235905067ffffffffffffffff811115610eee57610eed610eb1565b5b602083019150836001820283011115610f0a57610f09610eb6565b5b9250929050565b60008060208385031215610f2857610f27610c77565b5b600083013567ffffffffffffffff811115610f4657610f45610c7c565b5b610f5285828601610ebb565b92509250509250929050565b610f6781610c81565b82525050565b6000602082019050610f826000830184610f5e565b92915050565b600080600060408486031215610fa157610fa0610c77565b5b600084013567ffffffffffffffff811115610fbf57610fbe610c7c565b5b610fcb86828701610ebb565b93509350506020610fde86828701610cf3565b9150509250925092565b60008060408385031215610fff57610ffe610c77565b5b600061100d85828601610ca2565b925050602061101e85828601610cc7565b9150509250929050565b7f4e487b7100000000000000000000000000000000000000000000000000000000600052602160045260246000fd5b6005811061106857611067611028565b5b50565b600081905061107982611057565b919050565b60006110898261106b565b9050919050565b6110998161107e565b82525050565b60006060820190506110b46000830186610f5e565b6110c16020830185610e08565b6110ce6040830184611090565b949350505050565b600082825260208201905092915050565b7f596f752063616e6e6f74207465726d696e6174652074686520636f6e7472616360008201527f7421000000000000000000000000000000000000000000000000000000000000602082015250565b60006111436022836110d6565b915061114e826110e7565b604082019050919050565b6000602082019050818103600083015261117281611136565b9050919050565b7f4e487b7100000000000000000000000000000000000000000000000000000000600052600160045260246000fd5b7f5468657265206973206e6f2070656e64696e67207265717565737420746f207260008201527f6567697374657220746869732077616c6c6574206f7220696e7075747320617260208201527f652077726f6e6700000000000000000000000000000000000000000000000000604082015250565b600061122a6047836110d6565b9150611235826111a8565b606082019050919050565b600060208201905081810360008301526112598161121d565b9050919050565b7f4f6e6c79207468652063726561746f722063616e207365742074686520636f6e60008201527f7472616374730000000000000000000000000000000000000000000000000000602082015250565b60006112bc6026836110d6565b91506112c782611260565b604082019050919050565b600060208201905081810360008301526112eb816112af565b9050919050565b600081905092915050565b82818337600083830152505050565b600061131883856112f2565b93506113258385846112fd565b82840190509392505050565b600061133e82848661130c565b91508190509392505050565b6000819050919050565b61136561136082610c81565b61134a565b82525050565b60008160601b9050919050565b60006113838261136b565b9050919050565b600061139582611378565b9050919050565b6113ad6113a882610c3b565b61138a565b82525050565b60006113bf8285611354565b6020820191506113cf828461139c565b6014820191508190509392505050565b6000819050919050565b60006114046113ff6113fa846113df565b610e32565b610d88565b9050919050565b611414816113e9565b82525050565b600060408201905061142f600083018561140b565b61143c6020830184610c4d565b939250505056fea26469706673582212208ef98ab483838054c5be52774b86822fc7fda623d1d3a051e1c7ea049f13197a64736f6c63430008110033",
  "immutableReferences": {},
  "source": "//for compability reasons, we work only with these versions\npragma solidity >=0.7.0 < 0.9.0;\n\n//error Unauthorized(address caller);\n\nimport \"./Verification.sol\";\nimport \"./Patron.sol\";\nimport \"./DCoin.sol\";\n\ncontract Verification {\n\n    /// @notice A collection of informations about a wallet that operate with the contact\n    struct Wallet{\n        //we have to hash also the address?\n        bytes32 hashedName;\n        bool verified;\n        Actors role;\n    }\n\n    // This enum indicates the type of actor associated to a registered wallet\n    enum Actors {\n        MUSEUM,\n        GALLERY,\n        PRIVATE_COLLECTOR,\n        ARTIST,\n        PROTECTION_LAB\n    }\n\n    //this is the address of the creator MAYBE PRIVATE, namely the owner\n    //of the smart contract that it can do some special actions\n    address public creator;\n\n    DCoin public dcoin;\n\n    //this is a list that contains all the ids registered (true) or pending to be it (false) to DArt\n    mapping (address => Wallet) public registeredWallets;\n\n    //the first time that we call che smart contract we need to save which is the\n    //creator, because it can do after some important actions\n    constructor(){\n        //so we save the address of the creator, one time and forever\n        creator = msg.sender;\n    }\n\n    function setContracts(address dcoinad) external{\n        require(msg.sender == creator, \"Only the creator can set the contracts\");\n        dcoin = DCoin(dcoinad);\n    }\n        \n\n    //mettiamo noi o l'utente queste informazioni? se lo fa l'utente significa che potrebbe richiamare la funzione e resettarle?\n    //called by a museum that wants to enter in the blockchain\n    /**\n        @notice the sender create a request of verification, minting an IDNFT with verification variable as false\n        @param hashedName the hashed name of the requesting actor\n        @param role the type of the actor\n     */\n    function museumRequestCreation(bytes32 hashedName, Actors role) external {\n        dcoin.burn(3, msg.sender);\n        /*\n        (bool success_b, ) = dcoin.call(\n            abi.encodeWithSignature(\"burn(uint, address)\", 3, msg.sender)\n        );\n        require(success_b, \"Dcoin failed\");\n        */\n        if (registeredWallets[msg.sender].verified == false){\n            registeredWallets[msg.sender] = Wallet(hashedName, false, role);\n        }\n    }\n\n    //called by a smart contract, given a specificc address\n    function museumCreation(bytes32 hashedName, Actors role, address museum) external {\n        // veryf the sender is the creator/owner of the smart contract and that there is a pendig reques to register the wallet\n        assert(msg.sender == creator);\n        require(registeredWallets[museum].hashedName == hashedName && registeredWallets[museum].role == role, \"There is no pending request to register this wallet or inputs are wrong\");\n        if (msg.sender == creator && registeredWallets[museum].hashedName != 0){\n            // change the status of the museum to verified\n            registeredWallets[museum].verified = true;\n        }\n         else {\n            revert();\n        }\n    }\n\n    // Verify if a wallet is registered in the blockchain as an verified actor\n    function isVerified(address museum) external view returns(bool) {\n        return registeredWallets[museum].verified;\n    }\n\n    // Get the role of a wallet if it is registered in the blockchain as an verified actor\n    function getRole(address museum) external view returns(uint role) {\n        if (registeredWallets[museum].verified == false){\n            revert();\n        }\n        else {\n\n            return uint(registeredWallets[museum].role);\n        }\n    }\n\n    // Get the hashed name of a wallet if it is registered in the blockchain as an verified actor\n    function getHashedName(address museum) external view returns(bytes32) {\n        if (registeredWallets[museum].verified == false){\n            revert();\n        }\n        else {\n            return registeredWallets[museum].hashedName;\n        }\n    }\n\n    // Verify if a name is the same of the hashed name of a wallet if it is registered in the blockchain as an verified actor\n    function verifyHashedName(bytes32 hashedName, address museum) external view returns(bool) {\n        if (registeredWallets[museum].verified == false){\n            revert();\n        }\n        else {\n            return hashedName == registeredWallets[museum].hashedName;\n        }\n    }\n\n    function hashString(string calldata name) external pure returns(bytes32) {\n        return keccak256(abi.encodePacked(name));\n    }\n\n    function hashStringAndWallet(string calldata name, address wallet) external pure returns(bytes32){\n        return keccak256(abi.encodePacked(keccak256(abi.encodePacked(name)), wallet));\n    }\n\n\n    function terminate() public {\n        require(msg.sender == creator, \"You cannot terminate the contract!\");\n        selfdestruct(payable(creator));\n    }\n}",
  "sourcePath": "/Users/MichaelPlug/Documents/DArt/Truffle/contracts/Verification.sol",
  "compiler": {
    "name": "solc",
    "version": "0.8.17+commit.8df45f5f.Emscripten.clang"
  },
  "schemaVersion": "3.4.11",
  "updatedAt": "2023-01-12T17:36:57.207Z",
  "networkType": "ethereum",
  "devdoc": {
    "kind": "dev",
    "methods": {
      "museumRequestCreation(bytes32,uint8)": {
        "params": {
          "hashedName": "the hashed name of the requesting actor",
          "role": "the type of the actor"
        }
      }
    },
    "version": 1
  },
  "userdoc": {
    "kind": "user",
    "methods": {
      "museumRequestCreation(bytes32,uint8)": {
        "notice": "the sender create a request of verification, minting an IDNFT with verification variable as false"
      }
    },
    "version": 1
  }
}